{
	"contracts/mod3.sol": {
		"VotingSystem": {
			"abi": [
				{
					"inputs": [
						{
							"internalType": "uint256",
							"name": "_initialSupply",
							"type": "uint256"
						}
					],
					"stateMutability": "nonpayable",
					"type": "constructor"
				},
				{
					"anonymous": false,
					"inputs": [
						{
							"indexed": true,
							"internalType": "address",
							"name": "candidate",
							"type": "address"
						}
					],
					"name": "CandidateAdded",
					"type": "event"
				},
				{
					"anonymous": false,
					"inputs": [
						{
							"indexed": true,
							"internalType": "address",
							"name": "from",
							"type": "address"
						},
						{
							"indexed": false,
							"internalType": "uint256",
							"name": "value",
							"type": "uint256"
						}
					],
					"name": "TokensBurned",
					"type": "event"
				},
				{
					"anonymous": false,
					"inputs": [
						{
							"indexed": true,
							"internalType": "address",
							"name": "to",
							"type": "address"
						},
						{
							"indexed": false,
							"internalType": "uint256",
							"name": "value",
							"type": "uint256"
						}
					],
					"name": "TokensMinted",
					"type": "event"
				},
				{
					"anonymous": false,
					"inputs": [
						{
							"indexed": true,
							"internalType": "address",
							"name": "voter",
							"type": "address"
						},
						{
							"indexed": true,
							"internalType": "address",
							"name": "candidate",
							"type": "address"
						},
						{
							"indexed": false,
							"internalType": "uint256",
							"name": "value",
							"type": "uint256"
						}
					],
					"name": "Voted",
					"type": "event"
				},
				{
					"anonymous": false,
					"inputs": [
						{
							"indexed": false,
							"internalType": "uint256",
							"name": "endTime",
							"type": "uint256"
						}
					],
					"name": "VotingEnded",
					"type": "event"
				},
				{
					"anonymous": false,
					"inputs": [
						{
							"indexed": false,
							"internalType": "uint256",
							"name": "startTime",
							"type": "uint256"
						},
						{
							"indexed": false,
							"internalType": "uint256",
							"name": "endTime",
							"type": "uint256"
						}
					],
					"name": "VotingStarted",
					"type": "event"
				},
				{
					"inputs": [
						{
							"internalType": "address",
							"name": "_candidate",
							"type": "address"
						}
					],
					"name": "addCandidate",
					"outputs": [],
					"stateMutability": "nonpayable",
					"type": "function"
				},
				{
					"inputs": [
						{
							"internalType": "address",
							"name": "",
							"type": "address"
						}
					],
					"name": "balances",
					"outputs": [
						{
							"internalType": "uint256",
							"name": "",
							"type": "uint256"
						}
					],
					"stateMutability": "view",
					"type": "function"
				},
				{
					"inputs": [
						{
							"internalType": "address",
							"name": "_address",
							"type": "address"
						},
						{
							"internalType": "uint256",
							"name": "_value",
							"type": "uint256"
						}
					],
					"name": "burnTokens",
					"outputs": [],
					"stateMutability": "nonpayable",
					"type": "function"
				},
				{
					"inputs": [
						{
							"internalType": "address",
							"name": "",
							"type": "address"
						}
					],
					"name": "candidateVotes",
					"outputs": [
						{
							"internalType": "uint256",
							"name": "",
							"type": "uint256"
						}
					],
					"stateMutability": "view",
					"type": "function"
				},
				{
					"inputs": [
						{
							"internalType": "uint256",
							"name": "",
							"type": "uint256"
						}
					],
					"name": "candidates",
					"outputs": [
						{
							"internalType": "address",
							"name": "",
							"type": "address"
						}
					],
					"stateMutability": "view",
					"type": "function"
				},
				{
					"inputs": [],
					"name": "endVoting",
					"outputs": [],
					"stateMutability": "nonpayable",
					"type": "function"
				},
				{
					"inputs": [],
					"name": "getCandidates",
					"outputs": [
						{
							"internalType": "address[]",
							"name": "",
							"type": "address[]"
						}
					],
					"stateMutability": "view",
					"type": "function"
				},
				{
					"inputs": [
						{
							"internalType": "address",
							"name": "_candidate",
							"type": "address"
						}
					],
					"name": "getVotes",
					"outputs": [
						{
							"internalType": "uint256",
							"name": "",
							"type": "uint256"
						}
					],
					"stateMutability": "view",
					"type": "function"
				},
				{
					"inputs": [
						{
							"internalType": "address",
							"name": "_address",
							"type": "address"
						},
						{
							"internalType": "uint256",
							"name": "_value",
							"type": "uint256"
						}
					],
					"name": "mintTokens",
					"outputs": [],
					"stateMutability": "nonpayable",
					"type": "function"
				},
				{
					"inputs": [],
					"name": "name",
					"outputs": [
						{
							"internalType": "string",
							"name": "",
							"type": "string"
						}
					],
					"stateMutability": "view",
					"type": "function"
				},
				{
					"inputs": [],
					"name": "owner",
					"outputs": [
						{
							"internalType": "address",
							"name": "",
							"type": "address"
						}
					],
					"stateMutability": "view",
					"type": "function"
				},
				{
					"inputs": [
						{
							"internalType": "uint256",
							"name": "_duration",
							"type": "uint256"
						}
					],
					"name": "startVoting",
					"outputs": [],
					"stateMutability": "nonpayable",
					"type": "function"
				},
				{
					"inputs": [],
					"name": "totalSupply",
					"outputs": [
						{
							"internalType": "uint256",
							"name": "",
							"type": "uint256"
						}
					],
					"stateMutability": "view",
					"type": "function"
				},
				{
					"inputs": [
						{
							"internalType": "address",
							"name": "_candidate",
							"type": "address"
						},
						{
							"internalType": "uint256",
							"name": "_amount",
							"type": "uint256"
						}
					],
					"name": "vote",
					"outputs": [],
					"stateMutability": "nonpayable",
					"type": "function"
				},
				{
					"inputs": [],
					"name": "votingEndTime",
					"outputs": [
						{
							"internalType": "uint256",
							"name": "",
							"type": "uint256"
						}
					],
					"stateMutability": "view",
					"type": "function"
				},
				{
					"inputs": [],
					"name": "votingEnded",
					"outputs": [
						{
							"internalType": "bool",
							"name": "",
							"type": "bool"
						}
					],
					"stateMutability": "view",
					"type": "function"
				},
				{
					"inputs": [],
					"name": "votingStartTime",
					"outputs": [
						{
							"internalType": "uint256",
							"name": "",
							"type": "uint256"
						}
					],
					"stateMutability": "view",
					"type": "function"
				}
			],
			"devdoc": {
				"kind": "dev",
				"methods": {},
				"version": 1
			},
			"evm": {
				"assembly": "    /* \"contracts/mod3.sol\":60:3456  contract VotingSystem {... */\n  mstore(0x40, 0x80)\n    /* \"contracts/mod3.sol\":89:123  string public name = \"VotingToken\" */\n  mload(0x40)\n  dup1\n  0x40\n  add\n  0x40\n  mstore\n  dup1\n  0x0b\n  dup2\n  mstore\n  0x20\n  add\n  0x566f74696e67546f6b656e000000000000000000000000000000000000000000\n  dup2\n  mstore\n  pop\n  0x00\n  swap1\n  dup2\n  tag_1\n  swap2\n  swap1\n  tag_2\n  jump\t// in\ntag_1:\n  pop\n    /* \"contracts/mod3.sol\":873:1055  constructor(uint _initialSupply) {... */\n  callvalue\n  dup1\n  iszero\n  tag_3\n  jumpi\n  0x00\n  dup1\n  revert\ntag_3:\n  pop\n  mload(0x40)\n  sub(codesize, bytecodeSize)\n  dup1\n  bytecodeSize\n  dup4\n  codecopy\n  dup2\n  dup2\n  add\n  0x40\n  mstore\n  dup2\n  add\n  swap1\n  tag_4\n  swap2\n  swap1\n  tag_5\n  jump\t// in\ntag_4:\n    /* \"contracts/mod3.sol\":925:935  msg.sender */\n  caller\n    /* \"contracts/mod3.sol\":917:922  owner */\n  0x02\n  0x00\n    /* \"contracts/mod3.sol\":917:935  owner = msg.sender */\n  0x0100\n  exp\n  dup2\n  sload\n  dup2\n  0xffffffffffffffffffffffffffffffffffffffff\n  mul\n  not\n  and\n  swap1\n  dup4\n  0xffffffffffffffffffffffffffffffffffffffff\n  and\n  mul\n  or\n  swap1\n  sstore\n  pop\n    /* \"contracts/mod3.sol\":960:974  _initialSupply */\n  dup1\n    /* \"contracts/mod3.sol\":946:957  totalSupply */\n  0x01\n    /* \"contracts/mod3.sol\":946:974  totalSupply = _initialSupply */\n  dup2\n  swap1\n  sstore\n  pop\n    /* \"contracts/mod3.sol\":1003:1017  _initialSupply */\n  dup1\n    /* \"contracts/mod3.sol\":985:993  balances */\n  0x06\n    /* \"contracts/mod3.sol\":985:1000  balances[owner] */\n  0x00\n    /* \"contracts/mod3.sol\":994:999  owner */\n  0x02\n  0x00\n  swap1\n  sload\n  swap1\n  0x0100\n  exp\n  swap1\n  div\n  0xffffffffffffffffffffffffffffffffffffffff\n  and\n    /* \"contracts/mod3.sol\":985:1000  balances[owner] */\n  0xffffffffffffffffffffffffffffffffffffffff\n  and\n  0xffffffffffffffffffffffffffffffffffffffff\n  and\n  dup2\n  mstore\n  0x20\n  add\n  swap1\n  dup2\n  mstore\n  0x20\n  add\n  0x00\n  keccak256\n    /* \"contracts/mod3.sol\":985:1017  balances[owner] = _initialSupply */\n  dup2\n  swap1\n  sstore\n  pop\n    /* \"contracts/mod3.sol\":1042:1047  false */\n  0x00\n    /* \"contracts/mod3.sol\":1028:1039  votingEnded */\n  0x05\n  0x00\n    /* \"contracts/mod3.sol\":1028:1047  votingEnded = false */\n  0x0100\n  exp\n  dup2\n  sload\n  dup2\n  0xff\n  mul\n  not\n  and\n  swap1\n  dup4\n  iszero\n  iszero\n  mul\n  or\n  swap1\n  sstore\n  pop\n    /* \"contracts/mod3.sol\":873:1055  constructor(uint _initialSupply) {... */\n  pop\n    /* \"contracts/mod3.sol\":60:3456  contract VotingSystem {... */\n  jump(tag_8)\n    /* \"#utility.yul\":7:106   */\ntag_9:\n    /* \"#utility.yul\":59:65   */\n  0x00\n    /* \"#utility.yul\":93:98   */\n  dup2\n    /* \"#utility.yul\":87:99   */\n  mload\n    /* \"#utility.yul\":77:99   */\n  swap1\n  pop\n    /* \"#utility.yul\":7:106   */\n  swap2\n  swap1\n  pop\n  jump\t// out\n    /* \"#utility.yul\":112:292   */\ntag_10:\n    /* \"#utility.yul\":160:237   */\n  0x4e487b7100000000000000000000000000000000000000000000000000000000\n    /* \"#utility.yul\":157:158   */\n  0x00\n    /* \"#utility.yul\":150:238   */\n  mstore\n    /* \"#utility.yul\":257:261   */\n  0x41\n    /* \"#utility.yul\":254:255   */\n  0x04\n    /* \"#utility.yul\":247:262   */\n  mstore\n    /* \"#utility.yul\":281:285   */\n  0x24\n    /* \"#utility.yul\":278:279   */\n  0x00\n    /* \"#utility.yul\":271:286   */\n  revert\n    /* \"#utility.yul\":298:478   */\ntag_11:\n    /* \"#utility.yul\":346:423   */\n  0x4e487b7100000000000000000000000000000000000000000000000000000000\n    /* \"#utility.yul\":343:344   */\n  0x00\n    /* \"#utility.yul\":336:424   */\n  mstore\n    /* \"#utility.yul\":443:447   */\n  0x22\n    /* \"#utility.yul\":440:441   */\n  0x04\n    /* \"#utility.yul\":433:448   */\n  mstore\n    /* \"#utility.yul\":467:471   */\n  0x24\n    /* \"#utility.yul\":464:465   */\n  0x00\n    /* \"#utility.yul\":457:472   */\n  revert\n    /* \"#utility.yul\":484:804   */\ntag_12:\n    /* \"#utility.yul\":528:534   */\n  0x00\n    /* \"#utility.yul\":565:566   */\n  0x02\n    /* \"#utility.yul\":559:563   */\n  dup3\n    /* \"#utility.yul\":555:567   */\n  div\n    /* \"#utility.yul\":545:567   */\n  swap1\n  pop\n    /* \"#utility.yul\":612:613   */\n  0x01\n    /* \"#utility.yul\":606:610   */\n  dup3\n    /* \"#utility.yul\":602:614   */\n  and\n    /* \"#utility.yul\":633:651   */\n  dup1\n    /* \"#utility.yul\":623:704   */\n  tag_39\n  jumpi\n    /* \"#utility.yul\":689:693   */\n  0x7f\n    /* \"#utility.yul\":681:687   */\n  dup3\n    /* \"#utility.yul\":677:694   */\n  and\n    /* \"#utility.yul\":667:694   */\n  swap2\n  pop\n    /* \"#utility.yul\":623:704   */\ntag_39:\n    /* \"#utility.yul\":751:753   */\n  0x20\n    /* \"#utility.yul\":743:749   */\n  dup3\n    /* \"#utility.yul\":740:754   */\n  lt\n    /* \"#utility.yul\":720:738   */\n  dup2\n    /* \"#utility.yul\":717:755   */\n  sub\n    /* \"#utility.yul\":714:798   */\n  tag_40\n  jumpi\n    /* \"#utility.yul\":770:788   */\n  tag_41\n  tag_11\n  jump\t// in\ntag_41:\n    /* \"#utility.yul\":714:798   */\ntag_40:\n    /* \"#utility.yul\":535:804   */\n  pop\n    /* \"#utility.yul\":484:804   */\n  swap2\n  swap1\n  pop\n  jump\t// out\n    /* \"#utility.yul\":810:951   */\ntag_13:\n    /* \"#utility.yul\":859:863   */\n  0x00\n    /* \"#utility.yul\":882:885   */\n  dup2\n    /* \"#utility.yul\":874:885   */\n  swap1\n  pop\n    /* \"#utility.yul\":905:908   */\n  dup2\n    /* \"#utility.yul\":902:903   */\n  0x00\n    /* \"#utility.yul\":895:909   */\n  mstore\n    /* \"#utility.yul\":939:943   */\n  0x20\n    /* \"#utility.yul\":936:937   */\n  0x00\n    /* \"#utility.yul\":926:944   */\n  keccak256\n    /* \"#utility.yul\":918:944   */\n  swap1\n  pop\n    /* \"#utility.yul\":810:951   */\n  swap2\n  swap1\n  pop\n  jump\t// out\n    /* \"#utility.yul\":957:1050   */\ntag_14:\n    /* \"#utility.yul\":994:1000   */\n  0x00\n    /* \"#utility.yul\":1041:1043   */\n  0x20\n    /* \"#utility.yul\":1036:1038   */\n  0x1f\n    /* \"#utility.yul\":1029:1034   */\n  dup4\n    /* \"#utility.yul\":1025:1039   */\n  add\n    /* \"#utility.yul\":1021:1044   */\n  div\n    /* \"#utility.yul\":1011:1044   */\n  swap1\n  pop\n    /* \"#utility.yul\":957:1050   */\n  swap2\n  swap1\n  pop\n  jump\t// out\n    /* \"#utility.yul\":1056:1163   */\ntag_15:\n    /* \"#utility.yul\":1100:1108   */\n  0x00\n    /* \"#utility.yul\":1150:1155   */\n  dup3\n    /* \"#utility.yul\":1144:1148   */\n  dup3\n    /* \"#utility.yul\":1140:1156   */\n  shl\n    /* \"#utility.yul\":1119:1156   */\n  swap1\n  pop\n    /* \"#utility.yul\":1056:1163   */\n  swap3\n  swap2\n  pop\n  pop\n  jump\t// out\n    /* \"#utility.yul\":1169:1562   */\ntag_16:\n    /* \"#utility.yul\":1238:1244   */\n  0x00\n    /* \"#utility.yul\":1288:1289   */\n  0x08\n    /* \"#utility.yul\":1276:1286   */\n  dup4\n    /* \"#utility.yul\":1272:1290   */\n  mul\n    /* \"#utility.yul\":1311:1408   */\n  tag_46\n    /* \"#utility.yul\":1341:1407   */\n  0xffffffffffffffffffffffffffffffffffffffffffffffffffffffffffffffff\n    /* \"#utility.yul\":1330:1339   */\n  dup3\n    /* \"#utility.yul\":1311:1408   */\n  tag_15\n  jump\t// in\ntag_46:\n    /* \"#utility.yul\":1429:1468   */\n  tag_47\n    /* \"#utility.yul\":1459:1467   */\n  dup7\n    /* \"#utility.yul\":1448:1457   */\n  dup4\n    /* \"#utility.yul\":1429:1468   */\n  tag_15\n  jump\t// in\ntag_47:\n    /* \"#utility.yul\":1417:1468   */\n  swap6\n  pop\n    /* \"#utility.yul\":1501:1505   */\n  dup1\n    /* \"#utility.yul\":1497:1506   */\n  not\n    /* \"#utility.yul\":1490:1495   */\n  dup5\n    /* \"#utility.yul\":1486:1507   */\n  and\n    /* \"#utility.yul\":1477:1507   */\n  swap4\n  pop\n    /* \"#utility.yul\":1550:1554   */\n  dup1\n    /* \"#utility.yul\":1540:1548   */\n  dup7\n    /* \"#utility.yul\":1536:1555   */\n  and\n    /* \"#utility.yul\":1529:1534   */\n  dup5\n    /* \"#utility.yul\":1526:1556   */\n  or\n    /* \"#utility.yul\":1516:1556   */\n  swap3\n  pop\n    /* \"#utility.yul\":1245:1562   */\n  pop\n  pop\n    /* \"#utility.yul\":1169:1562   */\n  swap4\n  swap3\n  pop\n  pop\n  pop\n  jump\t// out\n    /* \"#utility.yul\":1568:1645   */\ntag_17:\n    /* \"#utility.yul\":1605:1612   */\n  0x00\n    /* \"#utility.yul\":1634:1639   */\n  dup2\n    /* \"#utility.yul\":1623:1639   */\n  swap1\n  pop\n    /* \"#utility.yul\":1568:1645   */\n  swap2\n  swap1\n  pop\n  jump\t// out\n    /* \"#utility.yul\":1651:1711   */\ntag_18:\n    /* \"#utility.yul\":1679:1682   */\n  0x00\n    /* \"#utility.yul\":1700:1705   */\n  dup2\n    /* \"#utility.yul\":1693:1705   */\n  swap1\n  pop\n    /* \"#utility.yul\":1651:1711   */\n  swap2\n  swap1\n  pop\n  jump\t// out\n    /* \"#utility.yul\":1717:1859   */\ntag_19:\n    /* \"#utility.yul\":1767:1776   */\n  0x00\n    /* \"#utility.yul\":1800:1853   */\n  tag_51\n    /* \"#utility.yul\":1818:1852   */\n  tag_52\n    /* \"#utility.yul\":1827:1851   */\n  tag_53\n    /* \"#utility.yul\":1845:1850   */\n  dup5\n    /* \"#utility.yul\":1827:1851   */\n  tag_17\n  jump\t// in\ntag_53:\n    /* \"#utility.yul\":1818:1852   */\n  tag_18\n  jump\t// in\ntag_52:\n    /* \"#utility.yul\":1800:1853   */\n  tag_17\n  jump\t// in\ntag_51:\n    /* \"#utility.yul\":1787:1853   */\n  swap1\n  pop\n    /* \"#utility.yul\":1717:1859   */\n  swap2\n  swap1\n  pop\n  jump\t// out\n    /* \"#utility.yul\":1865:1940   */\ntag_20:\n    /* \"#utility.yul\":1908:1911   */\n  0x00\n    /* \"#utility.yul\":1929:1934   */\n  dup2\n    /* \"#utility.yul\":1922:1934   */\n  swap1\n  pop\n    /* \"#utility.yul\":1865:1940   */\n  swap2\n  swap1\n  pop\n  jump\t// out\n    /* \"#utility.yul\":1946:2215   */\ntag_21:\n    /* \"#utility.yul\":2056:2095   */\n  tag_56\n    /* \"#utility.yul\":2087:2094   */\n  dup4\n    /* \"#utility.yul\":2056:2095   */\n  tag_19\n  jump\t// in\ntag_56:\n    /* \"#utility.yul\":2117:2208   */\n  tag_57\n    /* \"#utility.yul\":2166:2207   */\n  tag_58\n    /* \"#utility.yul\":2190:2206   */\n  dup3\n    /* \"#utility.yul\":2166:2207   */\n  tag_20\n  jump\t// in\ntag_58:\n    /* \"#utility.yul\":2158:2164   */\n  dup5\n    /* \"#utility.yul\":2151:2155   */\n  dup5\n    /* \"#utility.yul\":2145:2156   */\n  sload\n    /* \"#utility.yul\":2117:2208   */\n  tag_16\n  jump\t// in\ntag_57:\n    /* \"#utility.yul\":2111:2115   */\n  dup3\n    /* \"#utility.yul\":2104:2209   */\n  sstore\n    /* \"#utility.yul\":2022:2215   */\n  pop\n    /* \"#utility.yul\":1946:2215   */\n  pop\n  pop\n  pop\n  jump\t// out\n    /* \"#utility.yul\":2221:2294   */\ntag_22:\n    /* \"#utility.yul\":2266:2269   */\n  0x00\n    /* \"#utility.yul\":2221:2294   */\n  swap1\n  jump\t// out\n    /* \"#utility.yul\":2300:2489   */\ntag_23:\n    /* \"#utility.yul\":2377:2409   */\n  tag_61\n  tag_22\n  jump\t// in\ntag_61:\n    /* \"#utility.yul\":2418:2483   */\n  tag_62\n    /* \"#utility.yul\":2476:2482   */\n  dup2\n    /* \"#utility.yul\":2468:2474   */\n  dup5\n    /* \"#utility.yul\":2462:2466   */\n  dup5\n    /* \"#utility.yul\":2418:2483   */\n  tag_21\n  jump\t// in\ntag_62:\n    /* \"#utility.yul\":2353:2489   */\n  pop\n    /* \"#utility.yul\":2300:2489   */\n  pop\n  pop\n  jump\t// out\n    /* \"#utility.yul\":2495:2681   */\ntag_24:\n    /* \"#utility.yul\":2555:2675   */\ntag_64:\n    /* \"#utility.yul\":2572:2575   */\n  dup2\n    /* \"#utility.yul\":2565:2570   */\n  dup2\n    /* \"#utility.yul\":2562:2576   */\n  lt\n    /* \"#utility.yul\":2555:2675   */\n  iszero\n  tag_66\n  jumpi\n    /* \"#utility.yul\":2626:2665   */\n  tag_67\n    /* \"#utility.yul\":2663:2664   */\n  0x00\n    /* \"#utility.yul\":2656:2661   */\n  dup3\n    /* \"#utility.yul\":2626:2665   */\n  tag_23\n  jump\t// in\ntag_67:\n    /* \"#utility.yul\":2599:2600   */\n  0x01\n    /* \"#utility.yul\":2592:2597   */\n  dup2\n    /* \"#utility.yul\":2588:2601   */\n  add\n    /* \"#utility.yul\":2579:2601   */\n  swap1\n  pop\n    /* \"#utility.yul\":2555:2675   */\n  jump(tag_64)\ntag_66:\n    /* \"#utility.yul\":2495:2681   */\n  pop\n  pop\n  jump\t// out\n    /* \"#utility.yul\":2687:3230   */\ntag_25:\n    /* \"#utility.yul\":2788:2790   */\n  0x1f\n    /* \"#utility.yul\":2783:2786   */\n  dup3\n    /* \"#utility.yul\":2780:2791   */\n  gt\n    /* \"#utility.yul\":2777:3223   */\n  iszero\n  tag_69\n  jumpi\n    /* \"#utility.yul\":2822:2860   */\n  tag_70\n    /* \"#utility.yul\":2854:2859   */\n  dup2\n    /* \"#utility.yul\":2822:2860   */\n  tag_13\n  jump\t// in\ntag_70:\n    /* \"#utility.yul\":2906:2935   */\n  tag_71\n    /* \"#utility.yul\":2924:2934   */\n  dup5\n    /* \"#utility.yul\":2906:2935   */\n  tag_14\n  jump\t// in\ntag_71:\n    /* \"#utility.yul\":2896:2904   */\n  dup2\n    /* \"#utility.yul\":2892:2936   */\n  add\n    /* \"#utility.yul\":3089:3091   */\n  0x20\n    /* \"#utility.yul\":3077:3087   */\n  dup6\n    /* \"#utility.yul\":3074:3092   */\n  lt\n    /* \"#utility.yul\":3071:3120   */\n  iszero\n  tag_72\n  jumpi\n    /* \"#utility.yul\":3110:3118   */\n  dup2\n    /* \"#utility.yul\":3095:3118   */\n  swap1\n  pop\n    /* \"#utility.yul\":3071:3120   */\ntag_72:\n    /* \"#utility.yul\":3133:3213   */\n  tag_73\n    /* \"#utility.yul\":3189:3211   */\n  tag_74\n    /* \"#utility.yul\":3207:3210   */\n  dup6\n    /* \"#utility.yul\":3189:3211   */\n  tag_14\n  jump\t// in\ntag_74:\n    /* \"#utility.yul\":3179:3187   */\n  dup4\n    /* \"#utility.yul\":3175:3212   */\n  add\n    /* \"#utility.yul\":3162:3173   */\n  dup3\n    /* \"#utility.yul\":3133:3213   */\n  tag_24\n  jump\t// in\ntag_73:\n    /* \"#utility.yul\":2792:3223   */\n  pop\n  pop\n    /* \"#utility.yul\":2777:3223   */\ntag_69:\n    /* \"#utility.yul\":2687:3230   */\n  pop\n  pop\n  pop\n  jump\t// out\n    /* \"#utility.yul\":3236:3353   */\ntag_26:\n    /* \"#utility.yul\":3290:3298   */\n  0x00\n    /* \"#utility.yul\":3340:3345   */\n  dup3\n    /* \"#utility.yul\":3334:3338   */\n  dup3\n    /* \"#utility.yul\":3330:3346   */\n  shr\n    /* \"#utility.yul\":3309:3346   */\n  swap1\n  pop\n    /* \"#utility.yul\":3236:3353   */\n  swap3\n  swap2\n  pop\n  pop\n  jump\t// out\n    /* \"#utility.yul\":3359:3528   */\ntag_27:\n    /* \"#utility.yul\":3403:3409   */\n  0x00\n    /* \"#utility.yul\":3436:3487   */\n  tag_77\n    /* \"#utility.yul\":3484:3485   */\n  0x00\n    /* \"#utility.yul\":3480:3486   */\n  not\n    /* \"#utility.yul\":3472:3477   */\n  dup5\n    /* \"#utility.yul\":3469:3470   */\n  0x08\n    /* \"#utility.yul\":3465:3478   */\n  mul\n    /* \"#utility.yul\":3436:3487   */\n  tag_26\n  jump\t// in\ntag_77:\n    /* \"#utility.yul\":3432:3488   */\n  not\n    /* \"#utility.yul\":3517:3521   */\n  dup1\n    /* \"#utility.yul\":3511:3515   */\n  dup4\n    /* \"#utility.yul\":3507:3522   */\n  and\n    /* \"#utility.yul\":3497:3522   */\n  swap2\n  pop\n    /* \"#utility.yul\":3410:3528   */\n  pop\n    /* \"#utility.yul\":3359:3528   */\n  swap3\n  swap2\n  pop\n  pop\n  jump\t// out\n    /* \"#utility.yul\":3533:3828   */\ntag_28:\n    /* \"#utility.yul\":3609:3613   */\n  0x00\n    /* \"#utility.yul\":3755:3784   */\n  tag_79\n    /* \"#utility.yul\":3780:3783   */\n  dup4\n    /* \"#utility.yul\":3774:3778   */\n  dup4\n    /* \"#utility.yul\":3755:3784   */\n  tag_27\n  jump\t// in\ntag_79:\n    /* \"#utility.yul\":3747:3784   */\n  swap2\n  pop\n    /* \"#utility.yul\":3817:3820   */\n  dup3\n    /* \"#utility.yul\":3814:3815   */\n  0x02\n    /* \"#utility.yul\":3810:3821   */\n  mul\n    /* \"#utility.yul\":3804:3808   */\n  dup3\n    /* \"#utility.yul\":3801:3822   */\n  or\n    /* \"#utility.yul\":3793:3822   */\n  swap1\n  pop\n    /* \"#utility.yul\":3533:3828   */\n  swap3\n  swap2\n  pop\n  pop\n  jump\t// out\n    /* \"#utility.yul\":3833:5228   */\ntag_2:\n    /* \"#utility.yul\":3950:3987   */\n  tag_81\n    /* \"#utility.yul\":3983:3986   */\n  dup3\n    /* \"#utility.yul\":3950:3987   */\n  tag_9\n  jump\t// in\ntag_81:\n    /* \"#utility.yul\":4052:4070   */\n  0xffffffffffffffff\n    /* \"#utility.yul\":4044:4050   */\n  dup2\n    /* \"#utility.yul\":4041:4071   */\n  gt\n    /* \"#utility.yul\":4038:4094   */\n  iszero\n  tag_82\n  jumpi\n    /* \"#utility.yul\":4074:4092   */\n  tag_83\n  tag_10\n  jump\t// in\ntag_83:\n    /* \"#utility.yul\":4038:4094   */\ntag_82:\n    /* \"#utility.yul\":4118:4156   */\n  tag_84\n    /* \"#utility.yul\":4150:4154   */\n  dup3\n    /* \"#utility.yul\":4144:4155   */\n  sload\n    /* \"#utility.yul\":4118:4156   */\n  tag_12\n  jump\t// in\ntag_84:\n    /* \"#utility.yul\":4203:4270   */\n  tag_85\n    /* \"#utility.yul\":4263:4269   */\n  dup3\n    /* \"#utility.yul\":4255:4261   */\n  dup3\n    /* \"#utility.yul\":4249:4253   */\n  dup6\n    /* \"#utility.yul\":4203:4270   */\n  tag_25\n  jump\t// in\ntag_85:\n    /* \"#utility.yul\":4297:4298   */\n  0x00\n    /* \"#utility.yul\":4321:4325   */\n  0x20\n    /* \"#utility.yul\":4308:4325   */\n  swap1\n  pop\n    /* \"#utility.yul\":4353:4355   */\n  0x1f\n    /* \"#utility.yul\":4345:4351   */\n  dup4\n    /* \"#utility.yul\":4342:4356   */\n  gt\n    /* \"#utility.yul\":4370:4371   */\n  0x01\n    /* \"#utility.yul\":4365:4983   */\n  dup2\n  eq\n  tag_87\n  jumpi\n    /* \"#utility.yul\":5027:5028   */\n  0x00\n    /* \"#utility.yul\":5044:5050   */\n  dup5\n    /* \"#utility.yul\":5041:5118   */\n  iszero\n  tag_88\n  jumpi\n    /* \"#utility.yul\":5093:5102   */\n  dup3\n    /* \"#utility.yul\":5088:5091   */\n  dup8\n    /* \"#utility.yul\":5084:5103   */\n  add\n    /* \"#utility.yul\":5078:5104   */\n  mload\n    /* \"#utility.yul\":5069:5104   */\n  swap1\n  pop\n    /* \"#utility.yul\":5041:5118   */\ntag_88:\n    /* \"#utility.yul\":5144:5211   */\n  tag_89\n    /* \"#utility.yul\":5204:5210   */\n  dup6\n    /* \"#utility.yul\":5197:5202   */\n  dup3\n    /* \"#utility.yul\":5144:5211   */\n  tag_28\n  jump\t// in\ntag_89:\n    /* \"#utility.yul\":5138:5142   */\n  dup7\n    /* \"#utility.yul\":5131:5212   */\n  sstore\n    /* \"#utility.yul\":5000:5222   */\n  pop\n    /* \"#utility.yul\":4335:5222   */\n  jump(tag_86)\n    /* \"#utility.yul\":4365:4983   */\ntag_87:\n    /* \"#utility.yul\":4417:4421   */\n  0x1f\n    /* \"#utility.yul\":4413:4422   */\n  not\n    /* \"#utility.yul\":4405:4411   */\n  dup5\n    /* \"#utility.yul\":4401:4423   */\n  and\n    /* \"#utility.yul\":4451:4488   */\n  tag_90\n    /* \"#utility.yul\":4483:4487   */\n  dup7\n    /* \"#utility.yul\":4451:4488   */\n  tag_13\n  jump\t// in\ntag_90:\n    /* \"#utility.yul\":4510:4511   */\n  0x00\n    /* \"#utility.yul\":4524:4732   */\ntag_91:\n    /* \"#utility.yul\":4538:4545   */\n  dup3\n    /* \"#utility.yul\":4535:4536   */\n  dup2\n    /* \"#utility.yul\":4532:4546   */\n  lt\n    /* \"#utility.yul\":4524:4732   */\n  iszero\n  tag_93\n  jumpi\n    /* \"#utility.yul\":4617:4626   */\n  dup5\n    /* \"#utility.yul\":4612:4615   */\n  dup10\n    /* \"#utility.yul\":4608:4627   */\n  add\n    /* \"#utility.yul\":4602:4628   */\n  mload\n    /* \"#utility.yul\":4594:4600   */\n  dup3\n    /* \"#utility.yul\":4587:4629   */\n  sstore\n    /* \"#utility.yul\":4668:4669   */\n  0x01\n    /* \"#utility.yul\":4660:4666   */\n  dup3\n    /* \"#utility.yul\":4656:4670   */\n  add\n    /* \"#utility.yul\":4646:4670   */\n  swap2\n  pop\n    /* \"#utility.yul\":4715:4717   */\n  0x20\n    /* \"#utility.yul\":4704:4713   */\n  dup6\n    /* \"#utility.yul\":4700:4718   */\n  add\n    /* \"#utility.yul\":4687:4718   */\n  swap5\n  pop\n    /* \"#utility.yul\":4561:4565   */\n  0x20\n    /* \"#utility.yul\":4558:4559   */\n  dup2\n    /* \"#utility.yul\":4554:4566   */\n  add\n    /* \"#utility.yul\":4549:4566   */\n  swap1\n  pop\n    /* \"#utility.yul\":4524:4732   */\n  jump(tag_91)\ntag_93:\n    /* \"#utility.yul\":4760:4766   */\n  dup7\n    /* \"#utility.yul\":4751:4758   */\n  dup4\n    /* \"#utility.yul\":4748:4767   */\n  lt\n    /* \"#utility.yul\":4745:4924   */\n  iszero\n  tag_94\n  jumpi\n    /* \"#utility.yul\":4818:4827   */\n  dup5\n    /* \"#utility.yul\":4813:4816   */\n  dup10\n    /* \"#utility.yul\":4809:4828   */\n  add\n    /* \"#utility.yul\":4803:4829   */\n  mload\n    /* \"#utility.yul\":4861:4909   */\n  tag_95\n    /* \"#utility.yul\":4903:4907   */\n  0x1f\n    /* \"#utility.yul\":4895:4901   */\n  dup10\n    /* \"#utility.yul\":4891:4908   */\n  and\n    /* \"#utility.yul\":4880:4889   */\n  dup3\n    /* \"#utility.yul\":4861:4909   */\n  tag_27\n  jump\t// in\ntag_95:\n    /* \"#utility.yul\":4853:4859   */\n  dup4\n    /* \"#utility.yul\":4846:4910   */\n  sstore\n    /* \"#utility.yul\":4768:4924   */\n  pop\n    /* \"#utility.yul\":4745:4924   */\ntag_94:\n    /* \"#utility.yul\":4970:4971   */\n  0x01\n    /* \"#utility.yul\":4966:4967   */\n  0x02\n    /* \"#utility.yul\":4958:4964   */\n  dup9\n    /* \"#utility.yul\":4954:4968   */\n  mul\n    /* \"#utility.yul\":4950:4972   */\n  add\n    /* \"#utility.yul\":4944:4948   */\n  dup9\n    /* \"#utility.yul\":4937:4973   */\n  sstore\n    /* \"#utility.yul\":4372:4983   */\n  pop\n  pop\n  pop\n    /* \"#utility.yul\":4335:5222   */\ntag_86:\n  pop\n    /* \"#utility.yul\":3925:5228   */\n  pop\n  pop\n  pop\n    /* \"#utility.yul\":3833:5228   */\n  pop\n  pop\n  jump\t// out\n    /* \"#utility.yul\":5315:5432   */\ntag_30:\n    /* \"#utility.yul\":5424:5425   */\n  0x00\n    /* \"#utility.yul\":5421:5422   */\n  dup1\n    /* \"#utility.yul\":5414:5426   */\n  revert\n    /* \"#utility.yul\":5561:5683   */\ntag_32:\n    /* \"#utility.yul\":5634:5658   */\n  tag_100\n    /* \"#utility.yul\":5652:5657   */\n  dup2\n    /* \"#utility.yul\":5634:5658   */\n  tag_17\n  jump\t// in\ntag_100:\n    /* \"#utility.yul\":5627:5632   */\n  dup2\n    /* \"#utility.yul\":5624:5659   */\n  eq\n    /* \"#utility.yul\":5614:5677   */\n  tag_101\n  jumpi\n    /* \"#utility.yul\":5673:5674   */\n  0x00\n    /* \"#utility.yul\":5670:5671   */\n  dup1\n    /* \"#utility.yul\":5663:5675   */\n  revert\n    /* \"#utility.yul\":5614:5677   */\ntag_101:\n    /* \"#utility.yul\":5561:5683   */\n  pop\n  jump\t// out\n    /* \"#utility.yul\":5689:5832   */\ntag_33:\n    /* \"#utility.yul\":5746:5751   */\n  0x00\n    /* \"#utility.yul\":5777:5783   */\n  dup2\n    /* \"#utility.yul\":5771:5784   */\n  mload\n    /* \"#utility.yul\":5762:5784   */\n  swap1\n  pop\n    /* \"#utility.yul\":5793:5826   */\n  tag_103\n    /* \"#utility.yul\":5820:5825   */\n  dup2\n    /* \"#utility.yul\":5793:5826   */\n  tag_32\n  jump\t// in\ntag_103:\n    /* \"#utility.yul\":5689:5832   */\n  swap3\n  swap2\n  pop\n  pop\n  jump\t// out\n    /* \"#utility.yul\":5838:6189   */\ntag_5:\n    /* \"#utility.yul\":5908:5914   */\n  0x00\n    /* \"#utility.yul\":5957:5959   */\n  0x20\n    /* \"#utility.yul\":5945:5954   */\n  dup3\n    /* \"#utility.yul\":5936:5943   */\n  dup5\n    /* \"#utility.yul\":5932:5955   */\n  sub\n    /* \"#utility.yul\":5928:5960   */\n  slt\n    /* \"#utility.yul\":5925:6044   */\n  iszero\n  tag_105\n  jumpi\n    /* \"#utility.yul\":5963:6042   */\n  tag_106\n  tag_30\n  jump\t// in\ntag_106:\n    /* \"#utility.yul\":5925:6044   */\ntag_105:\n    /* \"#utility.yul\":6083:6084   */\n  0x00\n    /* \"#utility.yul\":6108:6172   */\n  tag_107\n    /* \"#utility.yul\":6164:6171   */\n  dup5\n    /* \"#utility.yul\":6155:6161   */\n  dup3\n    /* \"#utility.yul\":6144:6153   */\n  dup6\n    /* \"#utility.yul\":6140:6162   */\n  add\n    /* \"#utility.yul\":6108:6172   */\n  tag_33\n  jump\t// in\ntag_107:\n    /* \"#utility.yul\":6098:6172   */\n  swap2\n  pop\n    /* \"#utility.yul\":6054:6182   */\n  pop\n    /* \"#utility.yul\":5838:6189   */\n  swap3\n  swap2\n  pop\n  pop\n  jump\t// out\n    /* \"contracts/mod3.sol\":60:3456  contract VotingSystem {... */\ntag_8:\n  dataSize(sub_0)\n  dup1\n  dataOffset(sub_0)\n  0x00\n  codecopy\n  0x00\n  return\nstop\n\nsub_0: assembly {\n        /* \"contracts/mod3.sol\":60:3456  contract VotingSystem {... */\n      mstore(0x40, 0x80)\n      callvalue\n      dup1\n      iszero\n      tag_1\n      jumpi\n      0x00\n      dup1\n      revert\n    tag_1:\n      pop\n      jumpi(tag_2, lt(calldatasize, 0x04))\n      shr(0xe0, calldataload(0x00))\n      dup1\n      0x3477ee2e\n      gt\n      tag_20\n      jumpi\n      dup1\n      0x8da5cb5b\n      gt\n      tag_21\n      jumpi\n      dup1\n      0x8da5cb5b\n      eq\n      tag_15\n      jumpi\n      dup1\n      0x9ab24eb0\n      eq\n      tag_16\n      jumpi\n      dup1\n      0x9d5a0529\n      eq\n      tag_17\n      jumpi\n      dup1\n      0xc3403ddf\n      eq\n      tag_18\n      jumpi\n      dup1\n      0xf0dda65c\n      eq\n      tag_19\n      jumpi\n      jump(tag_2)\n    tag_21:\n      dup1\n      0x3477ee2e\n      eq\n      tag_11\n      jumpi\n      dup1\n      0x3acd75f8\n      eq\n      tag_12\n      jumpi\n      dup1\n      0x3d2f5bda\n      eq\n      tag_13\n      jumpi\n      dup1\n      0x5f74bbde\n      eq\n      tag_14\n      jumpi\n      jump(tag_2)\n    tag_20:\n      dup1\n      0x1ea736e0\n      gt\n      tag_22\n      jumpi\n      dup1\n      0x1ea736e0\n      eq\n      tag_7\n      jumpi\n      dup1\n      0x2019a608\n      eq\n      tag_8\n      jumpi\n      dup1\n      0x23ef2746\n      eq\n      tag_9\n      jumpi\n      dup1\n      0x27e235e3\n      eq\n      tag_10\n      jumpi\n      jump(tag_2)\n    tag_22:\n      dup1\n      0x06a49fce\n      eq\n      tag_3\n      jumpi\n      dup1\n      0x06fdde03\n      eq\n      tag_4\n      jumpi\n      dup1\n      0x0d1118ce\n      eq\n      tag_5\n      jumpi\n      dup1\n      0x18160ddd\n      eq\n      tag_6\n      jumpi\n    tag_2:\n      0x00\n      dup1\n      revert\n        /* \"contracts/mod3.sol\":2959:3059  function getCandidates() public view returns (address[] memory) {... */\n    tag_3:\n      tag_23\n      tag_24\n      jump\t// in\n    tag_23:\n      mload(0x40)\n      tag_25\n      swap2\n      swap1\n      tag_26\n      jump\t// in\n    tag_25:\n      mload(0x40)\n      dup1\n      swap2\n      sub\n      swap1\n      return\n        /* \"contracts/mod3.sol\":89:123  string public name = \"VotingToken\" */\n    tag_4:\n      tag_27\n      tag_28\n      jump\t// in\n    tag_27:\n      mload(0x40)\n      tag_29\n      swap2\n      swap1\n      tag_30\n      jump\t// in\n    tag_29:\n      mload(0x40)\n      dup1\n      swap2\n      sub\n      swap1\n      return\n        /* \"contracts/mod3.sol\":1677:1942  function burnTokens(address _address, uint _value) public onlyOwner {... */\n    tag_5:\n      tag_31\n      0x04\n      dup1\n      calldatasize\n      sub\n      dup2\n      add\n      swap1\n      tag_32\n      swap2\n      swap1\n      tag_33\n      jump\t// in\n    tag_32:\n      tag_34\n      jump\t// in\n    tag_31:\n      stop\n        /* \"contracts/mod3.sol\":130:153  uint public totalSupply */\n    tag_6:\n      tag_35\n      tag_36\n      jump\t// in\n    tag_35:\n      mload(0x40)\n      tag_37\n      swap2\n      swap1\n      tag_38\n      jump\t// in\n    tag_37:\n      mload(0x40)\n      dup1\n      swap2\n      sub\n      swap1\n      return\n        /* \"contracts/mod3.sol\":250:275  uint public votingEndTime */\n    tag_7:\n      tag_39\n      tag_40\n      jump\t// in\n    tag_39:\n      mload(0x40)\n      tag_41\n      swap2\n      swap1\n      tag_38\n      jump\t// in\n    tag_41:\n      mload(0x40)\n      dup1\n      swap2\n      sub\n      swap1\n      return\n        /* \"contracts/mod3.sol\":216:243  uint public votingStartTime */\n    tag_8:\n      tag_42\n      tag_43\n      jump\t// in\n    tag_42:\n      mload(0x40)\n      tag_44\n      swap2\n      swap1\n      tag_38\n      jump\t// in\n    tag_44:\n      mload(0x40)\n      dup1\n      swap2\n      sub\n      swap1\n      return\n        /* \"contracts/mod3.sol\":423:469  mapping(address => uint) public candidateVotes */\n    tag_9:\n      tag_45\n      0x04\n      dup1\n      calldatasize\n      sub\n      dup2\n      add\n      swap1\n      tag_46\n      swap2\n      swap1\n      tag_47\n      jump\t// in\n    tag_46:\n      tag_48\n      jump\t// in\n    tag_45:\n      mload(0x40)\n      tag_49\n      swap2\n      swap1\n      tag_38\n      jump\t// in\n    tag_49:\n      mload(0x40)\n      dup1\n      swap2\n      sub\n      swap1\n      return\n        /* \"contracts/mod3.sol\":341:381  mapping(address => uint) public balances */\n    tag_10:\n      tag_50\n      0x04\n      dup1\n      calldatasize\n      sub\n      dup2\n      add\n      swap1\n      tag_51\n      swap2\n      swap1\n      tag_47\n      jump\t// in\n    tag_51:\n      tag_52\n      jump\t// in\n    tag_50:\n      mload(0x40)\n      tag_53\n      swap2\n      swap1\n      tag_38\n      jump\t// in\n    tag_53:\n      mload(0x40)\n      dup1\n      swap2\n      sub\n      swap1\n      return\n        /* \"contracts/mod3.sol\":476:503  address[] public candidates */\n    tag_11:\n      tag_54\n      0x04\n      dup1\n      calldatasize\n      sub\n      dup2\n      add\n      swap1\n      tag_55\n      swap2\n      swap1\n      tag_56\n      jump\t// in\n    tag_55:\n      tag_57\n      jump\t// in\n    tag_54:\n      mload(0x40)\n      tag_58\n      swap2\n      swap1\n      tag_59\n      jump\t// in\n    tag_58:\n      mload(0x40)\n      dup1\n      swap2\n      sub\n      swap1\n      return\n        /* \"contracts/mod3.sol\":1950:2149  function addCandidate(address _candidate) public onlyOwner {... */\n    tag_12:\n      tag_60\n      0x04\n      dup1\n      calldatasize\n      sub\n      dup2\n      add\n      swap1\n      tag_61\n      swap2\n      swap1\n      tag_47\n      jump\t// in\n    tag_61:\n      tag_62\n      jump\t// in\n    tag_60:\n      stop\n        /* \"contracts/mod3.sol\":2157:2430  function startVoting(uint _duration) public onlyOwner {... */\n    tag_13:\n      tag_63\n      0x04\n      dup1\n      calldatasize\n      sub\n      dup2\n      add\n      swap1\n      tag_64\n      swap2\n      swap1\n      tag_56\n      jump\t// in\n    tag_64:\n      tag_65\n      jump\t// in\n    tag_63:\n      stop\n        /* \"contracts/mod3.sol\":2582:2951  function vote(address _candidate, uint _amount) public onlyDuringVoting {... */\n    tag_14:\n      tag_66\n      0x04\n      dup1\n      calldatasize\n      sub\n      dup2\n      add\n      swap1\n      tag_67\n      swap2\n      swap1\n      tag_33\n      jump\t// in\n    tag_67:\n      tag_68\n      jump\t// in\n    tag_66:\n      stop\n        /* \"contracts/mod3.sol\":160:180  address public owner */\n    tag_15:\n      tag_69\n      tag_70\n      jump\t// in\n    tag_69:\n      mload(0x40)\n      tag_71\n      swap2\n      swap1\n      tag_59\n      jump\t// in\n    tag_71:\n      mload(0x40)\n      dup1\n      swap2\n      sub\n      swap1\n      return\n        /* \"contracts/mod3.sol\":3067:3184  function getVotes(address _candidate) public view returns (uint) {... */\n    tag_16:\n      tag_72\n      0x04\n      dup1\n      calldatasize\n      sub\n      dup2\n      add\n      swap1\n      tag_73\n      swap2\n      swap1\n      tag_47\n      jump\t// in\n    tag_73:\n      tag_74\n      jump\t// in\n    tag_72:\n      mload(0x40)\n      tag_75\n      swap2\n      swap1\n      tag_38\n      jump\t// in\n    tag_75:\n      mload(0x40)\n      dup1\n      swap2\n      sub\n      swap1\n      return\n        /* \"contracts/mod3.sol\":282:305  bool public votingEnded */\n    tag_17:\n      tag_76\n      tag_77\n      jump\t// in\n    tag_76:\n      mload(0x40)\n      tag_78\n      swap2\n      swap1\n      tag_79\n      jump\t// in\n    tag_78:\n      mload(0x40)\n      dup1\n      swap2\n      sub\n      swap1\n      return\n        /* \"contracts/mod3.sol\":2438:2574  function endVoting() public onlyOwner onlyDuringVoting {... */\n    tag_18:\n      tag_80\n      tag_81\n      jump\t// in\n    tag_80:\n      stop\n        /* \"contracts/mod3.sol\":1476:1669  function mintTokens(address _address, uint _value) public onlyOwner {... */\n    tag_19:\n      tag_82\n      0x04\n      dup1\n      calldatasize\n      sub\n      dup2\n      add\n      swap1\n      tag_83\n      swap2\n      swap1\n      tag_33\n      jump\t// in\n    tag_83:\n      tag_84\n      jump\t// in\n    tag_82:\n      stop\n        /* \"contracts/mod3.sol\":2959:3059  function getCandidates() public view returns (address[] memory) {... */\n    tag_24:\n        /* \"contracts/mod3.sol\":3005:3021  address[] memory */\n      0x60\n        /* \"contracts/mod3.sol\":3041:3051  candidates */\n      0x08\n        /* \"contracts/mod3.sol\":3034:3051  return candidates */\n      dup1\n      sload\n      dup1\n      0x20\n      mul\n      0x20\n      add\n      mload(0x40)\n      swap1\n      dup2\n      add\n      0x40\n      mstore\n      dup1\n      swap3\n      swap2\n      swap1\n      dup2\n      dup2\n      mstore\n      0x20\n      add\n      dup3\n      dup1\n      sload\n      dup1\n      iszero\n      tag_86\n      jumpi\n      0x20\n      mul\n      dup3\n      add\n      swap2\n      swap1\n      0x00\n      mstore\n      keccak256(0x00, 0x20)\n      swap1\n    tag_87:\n      dup2\n      0x00\n      swap1\n      sload\n      swap1\n      0x0100\n      exp\n      swap1\n      div\n      0xffffffffffffffffffffffffffffffffffffffff\n      and\n      0xffffffffffffffffffffffffffffffffffffffff\n      and\n      dup2\n      mstore\n      0x20\n      add\n      swap1\n      0x01\n      add\n      swap1\n      dup1\n      dup4\n      gt\n      tag_87\n      jumpi\n    tag_86:\n      pop\n      pop\n      pop\n      pop\n      pop\n      swap1\n      pop\n        /* \"contracts/mod3.sol\":2959:3059  function getCandidates() public view returns (address[] memory) {... */\n      swap1\n      jump\t// out\n        /* \"contracts/mod3.sol\":89:123  string public name = \"VotingToken\" */\n    tag_28:\n      0x00\n      dup1\n      sload\n      tag_88\n      swap1\n      tag_89\n      jump\t// in\n    tag_88:\n      dup1\n      0x1f\n      add\n      0x20\n      dup1\n      swap2\n      div\n      mul\n      0x20\n      add\n      mload(0x40)\n      swap1\n      dup2\n      add\n      0x40\n      mstore\n      dup1\n      swap3\n      swap2\n      swap1\n      dup2\n      dup2\n      mstore\n      0x20\n      add\n      dup3\n      dup1\n      sload\n      tag_90\n      swap1\n      tag_89\n      jump\t// in\n    tag_90:\n      dup1\n      iszero\n      tag_91\n      jumpi\n      dup1\n      0x1f\n      lt\n      tag_92\n      jumpi\n      0x0100\n      dup1\n      dup4\n      sload\n      div\n      mul\n      dup4\n      mstore\n      swap2\n      0x20\n      add\n      swap2\n      jump(tag_91)\n    tag_92:\n      dup3\n      add\n      swap2\n      swap1\n      0x00\n      mstore\n      keccak256(0x00, 0x20)\n      swap1\n    tag_93:\n      dup2\n      sload\n      dup2\n      mstore\n      swap1\n      0x01\n      add\n      swap1\n      0x20\n      add\n      dup1\n      dup4\n      gt\n      tag_93\n      jumpi\n      dup3\n      swap1\n      sub\n      0x1f\n      and\n      dup3\n      add\n      swap2\n    tag_91:\n      pop\n      pop\n      pop\n      pop\n      pop\n      dup2\n      jump\t// out\n        /* \"contracts/mod3.sol\":1677:1942  function burnTokens(address _address, uint _value) public onlyOwner {... */\n    tag_34:\n        /* \"contracts/mod3.sol\":1117:1122  owner */\n      0x02\n      0x00\n      swap1\n      sload\n      swap1\n      0x0100\n      exp\n      swap1\n      div\n      0xffffffffffffffffffffffffffffffffffffffff\n      and\n        /* \"contracts/mod3.sol\":1103:1122  msg.sender == owner */\n      0xffffffffffffffffffffffffffffffffffffffff\n      and\n        /* \"contracts/mod3.sol\":1103:1113  msg.sender */\n      caller\n        /* \"contracts/mod3.sol\":1103:1122  msg.sender == owner */\n      0xffffffffffffffffffffffffffffffffffffffff\n      and\n      eq\n        /* \"contracts/mod3.sol\":1095:1164  require(msg.sender == owner, \"Only the owner can call this function\") */\n      tag_95\n      jumpi\n      mload(0x40)\n      0x08c379a000000000000000000000000000000000000000000000000000000000\n      dup2\n      mstore\n      0x04\n      add\n      tag_96\n      swap1\n      tag_97\n      jump\t// in\n    tag_96:\n      mload(0x40)\n      dup1\n      swap2\n      sub\n      swap1\n      revert\n    tag_95:\n        /* \"contracts/mod3.sol\":1786:1792  _value */\n      dup1\n        /* \"contracts/mod3.sol\":1764:1772  balances */\n      0x06\n        /* \"contracts/mod3.sol\":1764:1782  balances[_address] */\n      0x00\n        /* \"contracts/mod3.sol\":1773:1781  _address */\n      dup5\n        /* \"contracts/mod3.sol\":1764:1782  balances[_address] */\n      0xffffffffffffffffffffffffffffffffffffffff\n      and\n      0xffffffffffffffffffffffffffffffffffffffff\n      and\n      dup2\n      mstore\n      0x20\n      add\n      swap1\n      dup2\n      mstore\n      0x20\n      add\n      0x00\n      keccak256\n      sload\n        /* \"contracts/mod3.sol\":1764:1792  balances[_address] >= _value */\n      lt\n      iszero\n        /* \"contracts/mod3.sol\":1756:1817  require(balances[_address] >= _value, \"Insufficient balance\") */\n      tag_99\n      jumpi\n      mload(0x40)\n      0x08c379a000000000000000000000000000000000000000000000000000000000\n      dup2\n      mstore\n      0x04\n      add\n      tag_100\n      swap1\n      tag_101\n      jump\t// in\n    tag_100:\n      mload(0x40)\n      dup1\n      swap2\n      sub\n      swap1\n      revert\n    tag_99:\n        /* \"contracts/mod3.sol\":1843:1849  _value */\n      dup1\n        /* \"contracts/mod3.sol\":1828:1839  totalSupply */\n      0x01\n      0x00\n        /* \"contracts/mod3.sol\":1828:1849  totalSupply -= _value */\n      dup3\n      dup3\n      sload\n      tag_102\n      swap2\n      swap1\n      tag_103\n      jump\t// in\n    tag_102:\n      swap3\n      pop\n      pop\n      dup2\n      swap1\n      sstore\n      pop\n        /* \"contracts/mod3.sol\":1882:1888  _value */\n      dup1\n        /* \"contracts/mod3.sol\":1860:1868  balances */\n      0x06\n        /* \"contracts/mod3.sol\":1860:1878  balances[_address] */\n      0x00\n        /* \"contracts/mod3.sol\":1869:1877  _address */\n      dup5\n        /* \"contracts/mod3.sol\":1860:1878  balances[_address] */\n      0xffffffffffffffffffffffffffffffffffffffff\n      and\n      0xffffffffffffffffffffffffffffffffffffffff\n      and\n      dup2\n      mstore\n      0x20\n      add\n      swap1\n      dup2\n      mstore\n      0x20\n      add\n      0x00\n      keccak256\n      0x00\n        /* \"contracts/mod3.sol\":1860:1888  balances[_address] -= _value */\n      dup3\n      dup3\n      sload\n      tag_104\n      swap2\n      swap1\n      tag_103\n      jump\t// in\n    tag_104:\n      swap3\n      pop\n      pop\n      dup2\n      swap1\n      sstore\n      pop\n        /* \"contracts/mod3.sol\":1917:1925  _address */\n      dup2\n        /* \"contracts/mod3.sol\":1904:1934  TokensBurned(_address, _value) */\n      0xffffffffffffffffffffffffffffffffffffffff\n      and\n      0xfd38818f5291bf0bb3a2a48aadc06ba8757865d1dabd804585338aab3009dcb6\n        /* \"contracts/mod3.sol\":1927:1933  _value */\n      dup3\n        /* \"contracts/mod3.sol\":1904:1934  TokensBurned(_address, _value) */\n      mload(0x40)\n      tag_105\n      swap2\n      swap1\n      tag_38\n      jump\t// in\n    tag_105:\n      mload(0x40)\n      dup1\n      swap2\n      sub\n      swap1\n      log2\n        /* \"contracts/mod3.sol\":1677:1942  function burnTokens(address _address, uint _value) public onlyOwner {... */\n      pop\n      pop\n      jump\t// out\n        /* \"contracts/mod3.sol\":130:153  uint public totalSupply */\n    tag_36:\n      sload(0x01)\n      dup2\n      jump\t// out\n        /* \"contracts/mod3.sol\":250:275  uint public votingEndTime */\n    tag_40:\n      sload(0x04)\n      dup2\n      jump\t// out\n        /* \"contracts/mod3.sol\":216:243  uint public votingStartTime */\n    tag_43:\n      sload(0x03)\n      dup2\n      jump\t// out\n        /* \"contracts/mod3.sol\":423:469  mapping(address => uint) public candidateVotes */\n    tag_48:\n      mstore(0x20, 0x07)\n      dup1\n      0x00\n      mstore\n      keccak256(0x00, 0x40)\n      0x00\n      swap2\n      pop\n      swap1\n      pop\n      sload\n      dup2\n      jump\t// out\n        /* \"contracts/mod3.sol\":341:381  mapping(address => uint) public balances */\n    tag_52:\n      mstore(0x20, 0x06)\n      dup1\n      0x00\n      mstore\n      keccak256(0x00, 0x40)\n      0x00\n      swap2\n      pop\n      swap1\n      pop\n      sload\n      dup2\n      jump\t// out\n        /* \"contracts/mod3.sol\":476:503  address[] public candidates */\n    tag_57:\n      0x08\n      dup2\n      dup2\n      sload\n      dup2\n      lt\n      tag_106\n      jumpi\n      0x00\n      dup1\n      revert\n    tag_106:\n      swap1\n      0x00\n      mstore\n      keccak256(0x00, 0x20)\n      add\n      0x00\n      swap2\n      pop\n      sload\n      swap1\n      0x0100\n      exp\n      swap1\n      div\n      0xffffffffffffffffffffffffffffffffffffffff\n      and\n      dup2\n      jump\t// out\n        /* \"contracts/mod3.sol\":1950:2149  function addCandidate(address _candidate) public onlyOwner {... */\n    tag_62:\n        /* \"contracts/mod3.sol\":1117:1122  owner */\n      0x02\n      0x00\n      swap1\n      sload\n      swap1\n      0x0100\n      exp\n      swap1\n      div\n      0xffffffffffffffffffffffffffffffffffffffff\n      and\n        /* \"contracts/mod3.sol\":1103:1122  msg.sender == owner */\n      0xffffffffffffffffffffffffffffffffffffffff\n      and\n        /* \"contracts/mod3.sol\":1103:1113  msg.sender */\n      caller\n        /* \"contracts/mod3.sol\":1103:1122  msg.sender == owner */\n      0xffffffffffffffffffffffffffffffffffffffff\n      and\n      eq\n        /* \"contracts/mod3.sol\":1095:1164  require(msg.sender == owner, \"Only the owner can call this function\") */\n      tag_109\n      jumpi\n      mload(0x40)\n      0x08c379a000000000000000000000000000000000000000000000000000000000\n      dup2\n      mstore\n      0x04\n      add\n      tag_110\n      swap1\n      tag_97\n      jump\t// in\n    tag_110:\n      mload(0x40)\n      dup1\n      swap2\n      sub\n      swap1\n      revert\n    tag_109:\n        /* \"contracts/mod3.sol\":2029:2040  votingEnded */\n      0x05\n      0x00\n      swap1\n      sload\n      swap1\n      0x0100\n      exp\n      swap1\n      div\n      0xff\n      and\n        /* \"contracts/mod3.sol\":2028:2040  !votingEnded */\n      iszero\n        /* \"contracts/mod3.sol\":2020:2061  require(!votingEnded, \"Voting has ended\") */\n      tag_112\n      jumpi\n      mload(0x40)\n      0x08c379a000000000000000000000000000000000000000000000000000000000\n      dup2\n      mstore\n      0x04\n      add\n      tag_113\n      swap1\n      tag_114\n      jump\t// in\n    tag_113:\n      mload(0x40)\n      dup1\n      swap2\n      sub\n      swap1\n      revert\n    tag_112:\n        /* \"contracts/mod3.sol\":2072:2082  candidates */\n      0x08\n        /* \"contracts/mod3.sol\":2088:2098  _candidate */\n      dup2\n        /* \"contracts/mod3.sol\":2072:2099  candidates.push(_candidate) */\n      swap1\n      dup1\n      0x01\n      dup2\n      sload\n      add\n      dup1\n      dup3\n      sstore\n      dup1\n      swap2\n      pop\n      pop\n      0x01\n      swap1\n      sub\n      swap1\n      0x00\n      mstore\n      keccak256(0x00, 0x20)\n      add\n      0x00\n      swap1\n      swap2\n      swap1\n      swap2\n      swap1\n      swap2\n      0x0100\n      exp\n      dup2\n      sload\n      dup2\n      0xffffffffffffffffffffffffffffffffffffffff\n      mul\n      not\n      and\n      swap1\n      dup4\n      0xffffffffffffffffffffffffffffffffffffffff\n      and\n      mul\n      or\n      swap1\n      sstore\n      pop\n        /* \"contracts/mod3.sol\":2130:2140  _candidate */\n      dup1\n        /* \"contracts/mod3.sol\":2115:2141  CandidateAdded(_candidate) */\n      0xffffffffffffffffffffffffffffffffffffffff\n      and\n      0xaa38be308bdffe126c2b6be720070355eb22e0efc549ac39221b1ce71642ed40\n      mload(0x40)\n      mload(0x40)\n      dup1\n      swap2\n      sub\n      swap1\n      log2\n        /* \"contracts/mod3.sol\":1950:2149  function addCandidate(address _candidate) public onlyOwner {... */\n      pop\n      jump\t// out\n        /* \"contracts/mod3.sol\":2157:2430  function startVoting(uint _duration) public onlyOwner {... */\n    tag_65:\n        /* \"contracts/mod3.sol\":1117:1122  owner */\n      0x02\n      0x00\n      swap1\n      sload\n      swap1\n      0x0100\n      exp\n      swap1\n      div\n      0xffffffffffffffffffffffffffffffffffffffff\n      and\n        /* \"contracts/mod3.sol\":1103:1122  msg.sender == owner */\n      0xffffffffffffffffffffffffffffffffffffffff\n      and\n        /* \"contracts/mod3.sol\":1103:1113  msg.sender */\n      caller\n        /* \"contracts/mod3.sol\":1103:1122  msg.sender == owner */\n      0xffffffffffffffffffffffffffffffffffffffff\n      and\n      eq\n        /* \"contracts/mod3.sol\":1095:1164  require(msg.sender == owner, \"Only the owner can call this function\") */\n      tag_117\n      jumpi\n      mload(0x40)\n      0x08c379a000000000000000000000000000000000000000000000000000000000\n      dup2\n      mstore\n      0x04\n      add\n      tag_118\n      swap1\n      tag_97\n      jump\t// in\n    tag_118:\n      mload(0x40)\n      dup1\n      swap2\n      sub\n      swap1\n      revert\n    tag_117:\n        /* \"contracts/mod3.sol\":2231:2242  votingEnded */\n      0x05\n      0x00\n      swap1\n      sload\n      swap1\n      0x0100\n      exp\n      swap1\n      div\n      0xff\n      and\n        /* \"contracts/mod3.sol\":2230:2242  !votingEnded */\n      iszero\n        /* \"contracts/mod3.sol\":2222:2263  require(!votingEnded, \"Voting has ended\") */\n      tag_120\n      jumpi\n      mload(0x40)\n      0x08c379a000000000000000000000000000000000000000000000000000000000\n      dup2\n      mstore\n      0x04\n      add\n      tag_121\n      swap1\n      tag_114\n      jump\t// in\n    tag_121:\n      mload(0x40)\n      dup1\n      swap2\n      sub\n      swap1\n      revert\n    tag_120:\n        /* \"contracts/mod3.sol\":2292:2307  block.timestamp */\n      timestamp\n        /* \"contracts/mod3.sol\":2274:2289  votingStartTime */\n      0x03\n        /* \"contracts/mod3.sol\":2274:2307  votingStartTime = block.timestamp */\n      dup2\n      swap1\n      sstore\n      pop\n        /* \"contracts/mod3.sol\":2352:2361  _duration */\n      dup1\n        /* \"contracts/mod3.sol\":2334:2349  block.timestamp */\n      timestamp\n        /* \"contracts/mod3.sol\":2334:2361  block.timestamp + _duration */\n      tag_122\n      swap2\n      swap1\n      tag_123\n      jump\t// in\n    tag_122:\n        /* \"contracts/mod3.sol\":2318:2331  votingEndTime */\n      0x04\n        /* \"contracts/mod3.sol\":2318:2361  votingEndTime = block.timestamp + _duration */\n      dup2\n      swap1\n      sstore\n      pop\n        /* \"contracts/mod3.sol\":2377:2422  VotingStarted(votingStartTime, votingEndTime) */\n      0xf8c022056754dbacca05aff710dc315a2fa7699ae9309fda403cd1e55c11d40f\n        /* \"contracts/mod3.sol\":2391:2406  votingStartTime */\n      sload(0x03)\n        /* \"contracts/mod3.sol\":2408:2421  votingEndTime */\n      sload(0x04)\n        /* \"contracts/mod3.sol\":2377:2422  VotingStarted(votingStartTime, votingEndTime) */\n      mload(0x40)\n      tag_124\n      swap3\n      swap2\n      swap1\n      tag_125\n      jump\t// in\n    tag_124:\n      mload(0x40)\n      dup1\n      swap2\n      sub\n      swap1\n      log1\n        /* \"contracts/mod3.sol\":2157:2430  function startVoting(uint _duration) public onlyOwner {... */\n      pop\n      jump\t// out\n        /* \"contracts/mod3.sol\":2582:2951  function vote(address _candidate, uint _amount) public onlyDuringVoting {... */\n    tag_68:\n        /* \"contracts/mod3.sol\":1258:1273  votingStartTime */\n      sload(0x03)\n        /* \"contracts/mod3.sol\":1239:1254  block.timestamp */\n      timestamp\n        /* \"contracts/mod3.sol\":1239:1273  block.timestamp >= votingStartTime */\n      lt\n      iszero\n        /* \"contracts/mod3.sol\":1239:1309  block.timestamp >= votingStartTime && block.timestamp <= votingEndTime */\n      dup1\n      iszero\n      tag_127\n      jumpi\n      pop\n        /* \"contracts/mod3.sol\":1296:1309  votingEndTime */\n      sload(0x04)\n        /* \"contracts/mod3.sol\":1277:1292  block.timestamp */\n      timestamp\n        /* \"contracts/mod3.sol\":1277:1309  block.timestamp <= votingEndTime */\n      gt\n      iszero\n        /* \"contracts/mod3.sol\":1239:1309  block.timestamp >= votingStartTime && block.timestamp <= votingEndTime */\n    tag_127:\n        /* \"contracts/mod3.sol\":1231:1334  require(block.timestamp >= votingStartTime && block.timestamp <= votingEndTime, \"Voting is not active\") */\n      tag_128\n      jumpi\n      mload(0x40)\n      0x08c379a000000000000000000000000000000000000000000000000000000000\n      dup2\n      mstore\n      0x04\n      add\n      tag_129\n      swap1\n      tag_130\n      jump\t// in\n    tag_129:\n      mload(0x40)\n      dup1\n      swap2\n      sub\n      swap1\n      revert\n    tag_128:\n        /* \"contracts/mod3.sol\":2697:2704  _amount */\n      dup1\n        /* \"contracts/mod3.sol\":2673:2681  balances */\n      0x06\n        /* \"contracts/mod3.sol\":2673:2693  balances[msg.sender] */\n      0x00\n        /* \"contracts/mod3.sol\":2682:2692  msg.sender */\n      caller\n        /* \"contracts/mod3.sol\":2673:2693  balances[msg.sender] */\n      0xffffffffffffffffffffffffffffffffffffffff\n      and\n      0xffffffffffffffffffffffffffffffffffffffff\n      and\n      dup2\n      mstore\n      0x20\n      add\n      swap1\n      dup2\n      mstore\n      0x20\n      add\n      0x00\n      keccak256\n      sload\n        /* \"contracts/mod3.sol\":2673:2704  balances[msg.sender] >= _amount */\n      lt\n      iszero\n        /* \"contracts/mod3.sol\":2665:2729  require(balances[msg.sender] >= _amount, \"Insufficient balance\") */\n      tag_132\n      jumpi\n      mload(0x40)\n      0x08c379a000000000000000000000000000000000000000000000000000000000\n      dup2\n      mstore\n      0x04\n      add\n      tag_133\n      swap1\n      tag_101\n      jump\t// in\n    tag_133:\n      mload(0x40)\n      dup1\n      swap2\n      sub\n      swap1\n      revert\n    tag_132:\n        /* \"contracts/mod3.sol\":2748:2771  isCandidate(_candidate) */\n      tag_134\n        /* \"contracts/mod3.sol\":2760:2770  _candidate */\n      dup3\n        /* \"contracts/mod3.sol\":2748:2759  isCandidate */\n      tag_135\n        /* \"contracts/mod3.sol\":2748:2771  isCandidate(_candidate) */\n      jump\t// in\n    tag_134:\n        /* \"contracts/mod3.sol\":2740:2797  require(isCandidate(_candidate), \"Not a valid candidate\") */\n      tag_136\n      jumpi\n      mload(0x40)\n      0x08c379a000000000000000000000000000000000000000000000000000000000\n      dup2\n      mstore\n      0x04\n      add\n      tag_137\n      swap1\n      tag_138\n      jump\t// in\n    tag_137:\n      mload(0x40)\n      dup1\n      swap2\n      sub\n      swap1\n      revert\n    tag_136:\n        /* \"contracts/mod3.sol\":2834:2841  _amount */\n      dup1\n        /* \"contracts/mod3.sol\":2810:2818  balances */\n      0x06\n        /* \"contracts/mod3.sol\":2810:2830  balances[msg.sender] */\n      0x00\n        /* \"contracts/mod3.sol\":2819:2829  msg.sender */\n      caller\n        /* \"contracts/mod3.sol\":2810:2830  balances[msg.sender] */\n      0xffffffffffffffffffffffffffffffffffffffff\n      and\n      0xffffffffffffffffffffffffffffffffffffffff\n      and\n      dup2\n      mstore\n      0x20\n      add\n      swap1\n      dup2\n      mstore\n      0x20\n      add\n      0x00\n      keccak256\n      0x00\n        /* \"contracts/mod3.sol\":2810:2841  balances[msg.sender] -= _amount */\n      dup3\n      dup3\n      sload\n      tag_139\n      swap2\n      swap1\n      tag_103\n      jump\t// in\n    tag_139:\n      swap3\n      pop\n      pop\n      dup2\n      swap1\n      sstore\n      pop\n        /* \"contracts/mod3.sol\":2882:2889  _amount */\n      dup1\n        /* \"contracts/mod3.sol\":2852:2866  candidateVotes */\n      0x07\n        /* \"contracts/mod3.sol\":2852:2878  candidateVotes[_candidate] */\n      0x00\n        /* \"contracts/mod3.sol\":2867:2877  _candidate */\n      dup5\n        /* \"contracts/mod3.sol\":2852:2878  candidateVotes[_candidate] */\n      0xffffffffffffffffffffffffffffffffffffffff\n      and\n      0xffffffffffffffffffffffffffffffffffffffff\n      and\n      dup2\n      mstore\n      0x20\n      add\n      swap1\n      dup2\n      mstore\n      0x20\n      add\n      0x00\n      keccak256\n      0x00\n        /* \"contracts/mod3.sol\":2852:2889  candidateVotes[_candidate] += _amount */\n      dup3\n      dup3\n      sload\n      tag_140\n      swap2\n      swap1\n      tag_123\n      jump\t// in\n    tag_140:\n      swap3\n      pop\n      pop\n      dup2\n      swap1\n      sstore\n      pop\n        /* \"contracts/mod3.sol\":2923:2933  _candidate */\n      dup2\n        /* \"contracts/mod3.sol\":2905:2943  Voted(msg.sender, _candidate, _amount) */\n      0xffffffffffffffffffffffffffffffffffffffff\n      and\n        /* \"contracts/mod3.sol\":2911:2921  msg.sender */\n      caller\n        /* \"contracts/mod3.sol\":2905:2943  Voted(msg.sender, _candidate, _amount) */\n      0xffffffffffffffffffffffffffffffffffffffff\n      and\n      0x174ba19ba3c8bb5c679c87e51db79fff7c3f04bb84c1fd55b7dacb470b674aa6\n        /* \"contracts/mod3.sol\":2935:2942  _amount */\n      dup4\n        /* \"contracts/mod3.sol\":2905:2943  Voted(msg.sender, _candidate, _amount) */\n      mload(0x40)\n      tag_141\n      swap2\n      swap1\n      tag_38\n      jump\t// in\n    tag_141:\n      mload(0x40)\n      dup1\n      swap2\n      sub\n      swap1\n      log3\n        /* \"contracts/mod3.sol\":2582:2951  function vote(address _candidate, uint _amount) public onlyDuringVoting {... */\n      pop\n      pop\n      jump\t// out\n        /* \"contracts/mod3.sol\":160:180  address public owner */\n    tag_70:\n      0x02\n      0x00\n      swap1\n      sload\n      swap1\n      0x0100\n      exp\n      swap1\n      div\n      0xffffffffffffffffffffffffffffffffffffffff\n      and\n      dup2\n      jump\t// out\n        /* \"contracts/mod3.sol\":3067:3184  function getVotes(address _candidate) public view returns (uint) {... */\n    tag_74:\n        /* \"contracts/mod3.sol\":3126:3130  uint */\n      0x00\n        /* \"contracts/mod3.sol\":3150:3164  candidateVotes */\n      0x07\n        /* \"contracts/mod3.sol\":3150:3176  candidateVotes[_candidate] */\n      0x00\n        /* \"contracts/mod3.sol\":3165:3175  _candidate */\n      dup4\n        /* \"contracts/mod3.sol\":3150:3176  candidateVotes[_candidate] */\n      0xffffffffffffffffffffffffffffffffffffffff\n      and\n      0xffffffffffffffffffffffffffffffffffffffff\n      and\n      dup2\n      mstore\n      0x20\n      add\n      swap1\n      dup2\n      mstore\n      0x20\n      add\n      0x00\n      keccak256\n      sload\n        /* \"contracts/mod3.sol\":3143:3176  return candidateVotes[_candidate] */\n      swap1\n      pop\n        /* \"contracts/mod3.sol\":3067:3184  function getVotes(address _candidate) public view returns (uint) {... */\n      swap2\n      swap1\n      pop\n      jump\t// out\n        /* \"contracts/mod3.sol\":282:305  bool public votingEnded */\n    tag_77:\n      0x05\n      0x00\n      swap1\n      sload\n      swap1\n      0x0100\n      exp\n      swap1\n      div\n      0xff\n      and\n      dup2\n      jump\t// out\n        /* \"contracts/mod3.sol\":2438:2574  function endVoting() public onlyOwner onlyDuringVoting {... */\n    tag_81:\n        /* \"contracts/mod3.sol\":1117:1122  owner */\n      0x02\n      0x00\n      swap1\n      sload\n      swap1\n      0x0100\n      exp\n      swap1\n      div\n      0xffffffffffffffffffffffffffffffffffffffff\n      and\n        /* \"contracts/mod3.sol\":1103:1122  msg.sender == owner */\n      0xffffffffffffffffffffffffffffffffffffffff\n      and\n        /* \"contracts/mod3.sol\":1103:1113  msg.sender */\n      caller\n        /* \"contracts/mod3.sol\":1103:1122  msg.sender == owner */\n      0xffffffffffffffffffffffffffffffffffffffff\n      and\n      eq\n        /* \"contracts/mod3.sol\":1095:1164  require(msg.sender == owner, \"Only the owner can call this function\") */\n      tag_144\n      jumpi\n      mload(0x40)\n      0x08c379a000000000000000000000000000000000000000000000000000000000\n      dup2\n      mstore\n      0x04\n      add\n      tag_145\n      swap1\n      tag_97\n      jump\t// in\n    tag_145:\n      mload(0x40)\n      dup1\n      swap2\n      sub\n      swap1\n      revert\n    tag_144:\n        /* \"contracts/mod3.sol\":1258:1273  votingStartTime */\n      sload(0x03)\n        /* \"contracts/mod3.sol\":1239:1254  block.timestamp */\n      timestamp\n        /* \"contracts/mod3.sol\":1239:1273  block.timestamp >= votingStartTime */\n      lt\n      iszero\n        /* \"contracts/mod3.sol\":1239:1309  block.timestamp >= votingStartTime && block.timestamp <= votingEndTime */\n      dup1\n      iszero\n      tag_147\n      jumpi\n      pop\n        /* \"contracts/mod3.sol\":1296:1309  votingEndTime */\n      sload(0x04)\n        /* \"contracts/mod3.sol\":1277:1292  block.timestamp */\n      timestamp\n        /* \"contracts/mod3.sol\":1277:1309  block.timestamp <= votingEndTime */\n      gt\n      iszero\n        /* \"contracts/mod3.sol\":1239:1309  block.timestamp >= votingStartTime && block.timestamp <= votingEndTime */\n    tag_147:\n        /* \"contracts/mod3.sol\":1231:1334  require(block.timestamp >= votingStartTime && block.timestamp <= votingEndTime, \"Voting is not active\") */\n      tag_148\n      jumpi\n      mload(0x40)\n      0x08c379a000000000000000000000000000000000000000000000000000000000\n      dup2\n      mstore\n      0x04\n      add\n      tag_149\n      swap1\n      tag_130\n      jump\t// in\n    tag_149:\n      mload(0x40)\n      dup1\n      swap2\n      sub\n      swap1\n      revert\n    tag_148:\n        /* \"contracts/mod3.sol\":2518:2522  true */\n      0x01\n        /* \"contracts/mod3.sol\":2504:2515  votingEnded */\n      0x05\n      0x00\n        /* \"contracts/mod3.sol\":2504:2522  votingEnded = true */\n      0x0100\n      exp\n      dup2\n      sload\n      dup2\n      0xff\n      mul\n      not\n      and\n      swap1\n      dup4\n      iszero\n      iszero\n      mul\n      or\n      swap1\n      sstore\n      pop\n        /* \"contracts/mod3.sol\":2538:2566  VotingEnded(block.timestamp) */\n      0x81eb7415440ff8e6c8e92606fd3b0e5e6a5c99ea90cdb63b41aec54e897312b3\n        /* \"contracts/mod3.sol\":2550:2565  block.timestamp */\n      timestamp\n        /* \"contracts/mod3.sol\":2538:2566  VotingEnded(block.timestamp) */\n      mload(0x40)\n      tag_151\n      swap2\n      swap1\n      tag_38\n      jump\t// in\n    tag_151:\n      mload(0x40)\n      dup1\n      swap2\n      sub\n      swap1\n      log1\n        /* \"contracts/mod3.sol\":2438:2574  function endVoting() public onlyOwner onlyDuringVoting {... */\n      jump\t// out\n        /* \"contracts/mod3.sol\":1476:1669  function mintTokens(address _address, uint _value) public onlyOwner {... */\n    tag_84:\n        /* \"contracts/mod3.sol\":1117:1122  owner */\n      0x02\n      0x00\n      swap1\n      sload\n      swap1\n      0x0100\n      exp\n      swap1\n      div\n      0xffffffffffffffffffffffffffffffffffffffff\n      and\n        /* \"contracts/mod3.sol\":1103:1122  msg.sender == owner */\n      0xffffffffffffffffffffffffffffffffffffffff\n      and\n        /* \"contracts/mod3.sol\":1103:1113  msg.sender */\n      caller\n        /* \"contracts/mod3.sol\":1103:1122  msg.sender == owner */\n      0xffffffffffffffffffffffffffffffffffffffff\n      and\n      eq\n        /* \"contracts/mod3.sol\":1095:1164  require(msg.sender == owner, \"Only the owner can call this function\") */\n      tag_153\n      jumpi\n      mload(0x40)\n      0x08c379a000000000000000000000000000000000000000000000000000000000\n      dup2\n      mstore\n      0x04\n      add\n      tag_154\n      swap1\n      tag_97\n      jump\t// in\n    tag_154:\n      mload(0x40)\n      dup1\n      swap2\n      sub\n      swap1\n      revert\n    tag_153:\n        /* \"contracts/mod3.sol\":1570:1576  _value */\n      dup1\n        /* \"contracts/mod3.sol\":1555:1566  totalSupply */\n      0x01\n      0x00\n        /* \"contracts/mod3.sol\":1555:1576  totalSupply += _value */\n      dup3\n      dup3\n      sload\n      tag_156\n      swap2\n      swap1\n      tag_123\n      jump\t// in\n    tag_156:\n      swap3\n      pop\n      pop\n      dup2\n      swap1\n      sstore\n      pop\n        /* \"contracts/mod3.sol\":1609:1615  _value */\n      dup1\n        /* \"contracts/mod3.sol\":1587:1595  balances */\n      0x06\n        /* \"contracts/mod3.sol\":1587:1605  balances[_address] */\n      0x00\n        /* \"contracts/mod3.sol\":1596:1604  _address */\n      dup5\n        /* \"contracts/mod3.sol\":1587:1605  balances[_address] */\n      0xffffffffffffffffffffffffffffffffffffffff\n      and\n      0xffffffffffffffffffffffffffffffffffffffff\n      and\n      dup2\n      mstore\n      0x20\n      add\n      swap1\n      dup2\n      mstore\n      0x20\n      add\n      0x00\n      keccak256\n      0x00\n        /* \"contracts/mod3.sol\":1587:1615  balances[_address] += _value */\n      dup3\n      dup3\n      sload\n      tag_157\n      swap2\n      swap1\n      tag_123\n      jump\t// in\n    tag_157:\n      swap3\n      pop\n      pop\n      dup2\n      swap1\n      sstore\n      pop\n        /* \"contracts/mod3.sol\":1644:1652  _address */\n      dup2\n        /* \"contracts/mod3.sol\":1631:1661  TokensMinted(_address, _value) */\n      0xffffffffffffffffffffffffffffffffffffffff\n      and\n      0x3f2c9d57c068687834f0de942a9babb9e5acab57d516d3480a3c16ee165a4273\n        /* \"contracts/mod3.sol\":1654:1660  _value */\n      dup3\n        /* \"contracts/mod3.sol\":1631:1661  TokensMinted(_address, _value) */\n      mload(0x40)\n      tag_158\n      swap2\n      swap1\n      tag_38\n      jump\t// in\n    tag_158:\n      mload(0x40)\n      dup1\n      swap2\n      sub\n      swap1\n      log2\n        /* \"contracts/mod3.sol\":1476:1669  function mintTokens(address _address, uint _value) public onlyOwner {... */\n      pop\n      pop\n      jump\t// out\n        /* \"contracts/mod3.sol\":3192:3453  function isCandidate(address _candidate) internal view returns (bool) {... */\n    tag_135:\n        /* \"contracts/mod3.sol\":3256:3260  bool */\n      0x00\n        /* \"contracts/mod3.sol\":3278:3284  uint i */\n      dup1\n        /* \"contracts/mod3.sol\":3287:3288  0 */\n      0x00\n        /* \"contracts/mod3.sol\":3278:3288  uint i = 0 */\n      swap1\n      pop\n        /* \"contracts/mod3.sol\":3273:3423  for (uint i = 0; i < candidates.length; i++) {... */\n    tag_160:\n        /* \"contracts/mod3.sol\":3294:3304  candidates */\n      0x08\n        /* \"contracts/mod3.sol\":3294:3311  candidates.length */\n      dup1\n      sload\n      swap1\n      pop\n        /* \"contracts/mod3.sol\":3290:3291  i */\n      dup2\n        /* \"contracts/mod3.sol\":3290:3311  i < candidates.length */\n      lt\n        /* \"contracts/mod3.sol\":3273:3423  for (uint i = 0; i < candidates.length; i++) {... */\n      iszero\n      tag_161\n      jumpi\n        /* \"contracts/mod3.sol\":3354:3364  _candidate */\n      dup3\n        /* \"contracts/mod3.sol\":3337:3364  candidates[i] == _candidate */\n      0xffffffffffffffffffffffffffffffffffffffff\n      and\n        /* \"contracts/mod3.sol\":3337:3347  candidates */\n      0x08\n        /* \"contracts/mod3.sol\":3348:3349  i */\n      dup3\n        /* \"contracts/mod3.sol\":3337:3350  candidates[i] */\n      dup2\n      sload\n      dup2\n      lt\n      tag_163\n      jumpi\n      tag_164\n      tag_165\n      jump\t// in\n    tag_164:\n    tag_163:\n      swap1\n      0x00\n      mstore\n      keccak256(0x00, 0x20)\n      add\n      0x00\n      swap1\n      sload\n      swap1\n      0x0100\n      exp\n      swap1\n      div\n      0xffffffffffffffffffffffffffffffffffffffff\n      and\n        /* \"contracts/mod3.sol\":3337:3364  candidates[i] == _candidate */\n      0xffffffffffffffffffffffffffffffffffffffff\n      and\n      sub\n        /* \"contracts/mod3.sol\":3333:3412  if (candidates[i] == _candidate) {... */\n      tag_167\n      jumpi\n        /* \"contracts/mod3.sol\":3392:3396  true */\n      0x01\n        /* \"contracts/mod3.sol\":3385:3396  return true */\n      swap2\n      pop\n      pop\n      jump(tag_159)\n        /* \"contracts/mod3.sol\":3333:3412  if (candidates[i] == _candidate) {... */\n    tag_167:\n        /* \"contracts/mod3.sol\":3313:3316  i++ */\n      dup1\n      dup1\n      0x01\n      add\n      swap2\n      pop\n      pop\n        /* \"contracts/mod3.sol\":3273:3423  for (uint i = 0; i < candidates.length; i++) {... */\n      jump(tag_160)\n    tag_161:\n      pop\n        /* \"contracts/mod3.sol\":3440:3445  false */\n      0x00\n        /* \"contracts/mod3.sol\":3433:3445  return false */\n      swap1\n      pop\n        /* \"contracts/mod3.sol\":3192:3453  function isCandidate(address _candidate) internal view returns (bool) {... */\n    tag_159:\n      swap2\n      swap1\n      pop\n      jump\t// out\n        /* \"#utility.yul\":7:121   */\n    tag_168:\n        /* \"#utility.yul\":74:80   */\n      0x00\n        /* \"#utility.yul\":108:113   */\n      dup2\n        /* \"#utility.yul\":102:114   */\n      mload\n        /* \"#utility.yul\":92:114   */\n      swap1\n      pop\n        /* \"#utility.yul\":7:121   */\n      swap2\n      swap1\n      pop\n      jump\t// out\n        /* \"#utility.yul\":127:311   */\n    tag_169:\n        /* \"#utility.yul\":226:237   */\n      0x00\n        /* \"#utility.yul\":260:266   */\n      dup3\n        /* \"#utility.yul\":255:258   */\n      dup3\n        /* \"#utility.yul\":248:267   */\n      mstore\n        /* \"#utility.yul\":300:304   */\n      0x20\n        /* \"#utility.yul\":295:298   */\n      dup3\n        /* \"#utility.yul\":291:305   */\n      add\n        /* \"#utility.yul\":276:305   */\n      swap1\n      pop\n        /* \"#utility.yul\":127:311   */\n      swap3\n      swap2\n      pop\n      pop\n      jump\t// out\n        /* \"#utility.yul\":317:449   */\n    tag_170:\n        /* \"#utility.yul\":384:388   */\n      0x00\n        /* \"#utility.yul\":407:410   */\n      dup2\n        /* \"#utility.yul\":399:410   */\n      swap1\n      pop\n        /* \"#utility.yul\":437:441   */\n      0x20\n        /* \"#utility.yul\":432:435   */\n      dup3\n        /* \"#utility.yul\":428:442   */\n      add\n        /* \"#utility.yul\":420:442   */\n      swap1\n      pop\n        /* \"#utility.yul\":317:449   */\n      swap2\n      swap1\n      pop\n      jump\t// out\n        /* \"#utility.yul\":455:581   */\n    tag_171:\n        /* \"#utility.yul\":492:499   */\n      0x00\n        /* \"#utility.yul\":532:574   */\n      0xffffffffffffffffffffffffffffffffffffffff\n        /* \"#utility.yul\":525:530   */\n      dup3\n        /* \"#utility.yul\":521:575   */\n      and\n        /* \"#utility.yul\":510:575   */\n      swap1\n      pop\n        /* \"#utility.yul\":455:581   */\n      swap2\n      swap1\n      pop\n      jump\t// out\n        /* \"#utility.yul\":587:683   */\n    tag_172:\n        /* \"#utility.yul\":624:631   */\n      0x00\n        /* \"#utility.yul\":653:677   */\n      tag_212\n        /* \"#utility.yul\":671:676   */\n      dup3\n        /* \"#utility.yul\":653:677   */\n      tag_171\n      jump\t// in\n    tag_212:\n        /* \"#utility.yul\":642:677   */\n      swap1\n      pop\n        /* \"#utility.yul\":587:683   */\n      swap2\n      swap1\n      pop\n      jump\t// out\n        /* \"#utility.yul\":689:797   */\n    tag_173:\n        /* \"#utility.yul\":766:790   */\n      tag_214\n        /* \"#utility.yul\":784:789   */\n      dup2\n        /* \"#utility.yul\":766:790   */\n      tag_172\n      jump\t// in\n    tag_214:\n        /* \"#utility.yul\":761:764   */\n      dup3\n        /* \"#utility.yul\":754:791   */\n      mstore\n        /* \"#utility.yul\":689:797   */\n      pop\n      pop\n      jump\t// out\n        /* \"#utility.yul\":803:982   */\n    tag_174:\n        /* \"#utility.yul\":872:882   */\n      0x00\n        /* \"#utility.yul\":893:939   */\n      tag_216\n        /* \"#utility.yul\":935:938   */\n      dup4\n        /* \"#utility.yul\":927:933   */\n      dup4\n        /* \"#utility.yul\":893:939   */\n      tag_173\n      jump\t// in\n    tag_216:\n        /* \"#utility.yul\":971:975   */\n      0x20\n        /* \"#utility.yul\":966:969   */\n      dup4\n        /* \"#utility.yul\":962:976   */\n      add\n        /* \"#utility.yul\":948:976   */\n      swap1\n      pop\n        /* \"#utility.yul\":803:982   */\n      swap3\n      swap2\n      pop\n      pop\n      jump\t// out\n        /* \"#utility.yul\":988:1101   */\n    tag_175:\n        /* \"#utility.yul\":1058:1062   */\n      0x00\n        /* \"#utility.yul\":1090:1094   */\n      0x20\n        /* \"#utility.yul\":1085:1088   */\n      dup3\n        /* \"#utility.yul\":1081:1095   */\n      add\n        /* \"#utility.yul\":1073:1095   */\n      swap1\n      pop\n        /* \"#utility.yul\":988:1101   */\n      swap2\n      swap1\n      pop\n      jump\t// out\n        /* \"#utility.yul\":1137:1869   */\n    tag_176:\n        /* \"#utility.yul\":1256:1259   */\n      0x00\n        /* \"#utility.yul\":1285:1339   */\n      tag_219\n        /* \"#utility.yul\":1333:1338   */\n      dup3\n        /* \"#utility.yul\":1285:1339   */\n      tag_168\n      jump\t// in\n    tag_219:\n        /* \"#utility.yul\":1355:1441   */\n      tag_220\n        /* \"#utility.yul\":1434:1440   */\n      dup2\n        /* \"#utility.yul\":1429:1432   */\n      dup6\n        /* \"#utility.yul\":1355:1441   */\n      tag_169\n      jump\t// in\n    tag_220:\n        /* \"#utility.yul\":1348:1441   */\n      swap4\n      pop\n        /* \"#utility.yul\":1465:1521   */\n      tag_221\n        /* \"#utility.yul\":1515:1520   */\n      dup4\n        /* \"#utility.yul\":1465:1521   */\n      tag_170\n      jump\t// in\n    tag_221:\n        /* \"#utility.yul\":1544:1551   */\n      dup1\n        /* \"#utility.yul\":1575:1576   */\n      0x00\n        /* \"#utility.yul\":1560:1844   */\n    tag_222:\n        /* \"#utility.yul\":1585:1591   */\n      dup4\n        /* \"#utility.yul\":1582:1583   */\n      dup2\n        /* \"#utility.yul\":1579:1592   */\n      lt\n        /* \"#utility.yul\":1560:1844   */\n      iszero\n      tag_224\n      jumpi\n        /* \"#utility.yul\":1661:1667   */\n      dup2\n        /* \"#utility.yul\":1655:1668   */\n      mload\n        /* \"#utility.yul\":1688:1751   */\n      tag_225\n        /* \"#utility.yul\":1747:1750   */\n      dup9\n        /* \"#utility.yul\":1732:1745   */\n      dup3\n        /* \"#utility.yul\":1688:1751   */\n      tag_174\n      jump\t// in\n    tag_225:\n        /* \"#utility.yul\":1681:1751   */\n      swap8\n      pop\n        /* \"#utility.yul\":1774:1834   */\n      tag_226\n        /* \"#utility.yul\":1827:1833   */\n      dup4\n        /* \"#utility.yul\":1774:1834   */\n      tag_175\n      jump\t// in\n    tag_226:\n        /* \"#utility.yul\":1764:1834   */\n      swap3\n      pop\n        /* \"#utility.yul\":1620:1844   */\n      pop\n        /* \"#utility.yul\":1607:1608   */\n      0x01\n        /* \"#utility.yul\":1604:1605   */\n      dup2\n        /* \"#utility.yul\":1600:1609   */\n      add\n        /* \"#utility.yul\":1595:1609   */\n      swap1\n      pop\n        /* \"#utility.yul\":1560:1844   */\n      jump(tag_222)\n    tag_224:\n        /* \"#utility.yul\":1564:1578   */\n      pop\n        /* \"#utility.yul\":1860:1863   */\n      dup6\n        /* \"#utility.yul\":1853:1863   */\n      swap4\n      pop\n        /* \"#utility.yul\":1261:1869   */\n      pop\n      pop\n      pop\n        /* \"#utility.yul\":1137:1869   */\n      swap3\n      swap2\n      pop\n      pop\n      jump\t// out\n        /* \"#utility.yul\":1875:2248   */\n    tag_26:\n        /* \"#utility.yul\":2018:2022   */\n      0x00\n        /* \"#utility.yul\":2056:2058   */\n      0x20\n        /* \"#utility.yul\":2045:2054   */\n      dup3\n        /* \"#utility.yul\":2041:2059   */\n      add\n        /* \"#utility.yul\":2033:2059   */\n      swap1\n      pop\n        /* \"#utility.yul\":2105:2114   */\n      dup2\n        /* \"#utility.yul\":2099:2103   */\n      dup2\n        /* \"#utility.yul\":2095:2115   */\n      sub\n        /* \"#utility.yul\":2091:2092   */\n      0x00\n        /* \"#utility.yul\":2080:2089   */\n      dup4\n        /* \"#utility.yul\":2076:2093   */\n      add\n        /* \"#utility.yul\":2069:2116   */\n      mstore\n        /* \"#utility.yul\":2133:2241   */\n      tag_228\n        /* \"#utility.yul\":2236:2240   */\n      dup2\n        /* \"#utility.yul\":2227:2233   */\n      dup5\n        /* \"#utility.yul\":2133:2241   */\n      tag_176\n      jump\t// in\n    tag_228:\n        /* \"#utility.yul\":2125:2241   */\n      swap1\n      pop\n        /* \"#utility.yul\":1875:2248   */\n      swap3\n      swap2\n      pop\n      pop\n      jump\t// out\n        /* \"#utility.yul\":2254:2353   */\n    tag_177:\n        /* \"#utility.yul\":2306:2312   */\n      0x00\n        /* \"#utility.yul\":2340:2345   */\n      dup2\n        /* \"#utility.yul\":2334:2346   */\n      mload\n        /* \"#utility.yul\":2324:2346   */\n      swap1\n      pop\n        /* \"#utility.yul\":2254:2353   */\n      swap2\n      swap1\n      pop\n      jump\t// out\n        /* \"#utility.yul\":2359:2528   */\n    tag_178:\n        /* \"#utility.yul\":2443:2454   */\n      0x00\n        /* \"#utility.yul\":2477:2483   */\n      dup3\n        /* \"#utility.yul\":2472:2475   */\n      dup3\n        /* \"#utility.yul\":2465:2484   */\n      mstore\n        /* \"#utility.yul\":2517:2521   */\n      0x20\n        /* \"#utility.yul\":2512:2515   */\n      dup3\n        /* \"#utility.yul\":2508:2522   */\n      add\n        /* \"#utility.yul\":2493:2522   */\n      swap1\n      pop\n        /* \"#utility.yul\":2359:2528   */\n      swap3\n      swap2\n      pop\n      pop\n      jump\t// out\n        /* \"#utility.yul\":2534:2673   */\n    tag_179:\n        /* \"#utility.yul\":2623:2629   */\n      dup3\n        /* \"#utility.yul\":2618:2621   */\n      dup2\n        /* \"#utility.yul\":2613:2616   */\n      dup4\n        /* \"#utility.yul\":2607:2630   */\n      mcopy\n        /* \"#utility.yul\":2664:2665   */\n      0x00\n        /* \"#utility.yul\":2655:2661   */\n      dup4\n        /* \"#utility.yul\":2650:2653   */\n      dup4\n        /* \"#utility.yul\":2646:2662   */\n      add\n        /* \"#utility.yul\":2639:2666   */\n      mstore\n        /* \"#utility.yul\":2534:2673   */\n      pop\n      pop\n      pop\n      jump\t// out\n        /* \"#utility.yul\":2679:2781   */\n    tag_180:\n        /* \"#utility.yul\":2720:2726   */\n      0x00\n        /* \"#utility.yul\":2771:2773   */\n      0x1f\n        /* \"#utility.yul\":2767:2774   */\n      not\n        /* \"#utility.yul\":2762:2764   */\n      0x1f\n        /* \"#utility.yul\":2755:2760   */\n      dup4\n        /* \"#utility.yul\":2751:2765   */\n      add\n        /* \"#utility.yul\":2747:2775   */\n      and\n        /* \"#utility.yul\":2737:2775   */\n      swap1\n      pop\n        /* \"#utility.yul\":2679:2781   */\n      swap2\n      swap1\n      pop\n      jump\t// out\n        /* \"#utility.yul\":2787:3164   */\n    tag_181:\n        /* \"#utility.yul\":2875:2878   */\n      0x00\n        /* \"#utility.yul\":2903:2942   */\n      tag_234\n        /* \"#utility.yul\":2936:2941   */\n      dup3\n        /* \"#utility.yul\":2903:2942   */\n      tag_177\n      jump\t// in\n    tag_234:\n        /* \"#utility.yul\":2958:3029   */\n      tag_235\n        /* \"#utility.yul\":3022:3028   */\n      dup2\n        /* \"#utility.yul\":3017:3020   */\n      dup6\n        /* \"#utility.yul\":2958:3029   */\n      tag_178\n      jump\t// in\n    tag_235:\n        /* \"#utility.yul\":2951:3029   */\n      swap4\n      pop\n        /* \"#utility.yul\":3038:3103   */\n      tag_236\n        /* \"#utility.yul\":3096:3102   */\n      dup2\n        /* \"#utility.yul\":3091:3094   */\n      dup6\n        /* \"#utility.yul\":3084:3088   */\n      0x20\n        /* \"#utility.yul\":3077:3082   */\n      dup7\n        /* \"#utility.yul\":3073:3089   */\n      add\n        /* \"#utility.yul\":3038:3103   */\n      tag_179\n      jump\t// in\n    tag_236:\n        /* \"#utility.yul\":3128:3157   */\n      tag_237\n        /* \"#utility.yul\":3150:3156   */\n      dup2\n        /* \"#utility.yul\":3128:3157   */\n      tag_180\n      jump\t// in\n    tag_237:\n        /* \"#utility.yul\":3123:3126   */\n      dup5\n        /* \"#utility.yul\":3119:3158   */\n      add\n        /* \"#utility.yul\":3112:3158   */\n      swap2\n      pop\n        /* \"#utility.yul\":2879:3164   */\n      pop\n        /* \"#utility.yul\":2787:3164   */\n      swap3\n      swap2\n      pop\n      pop\n      jump\t// out\n        /* \"#utility.yul\":3170:3483   */\n    tag_30:\n        /* \"#utility.yul\":3283:3287   */\n      0x00\n        /* \"#utility.yul\":3321:3323   */\n      0x20\n        /* \"#utility.yul\":3310:3319   */\n      dup3\n        /* \"#utility.yul\":3306:3324   */\n      add\n        /* \"#utility.yul\":3298:3324   */\n      swap1\n      pop\n        /* \"#utility.yul\":3370:3379   */\n      dup2\n        /* \"#utility.yul\":3364:3368   */\n      dup2\n        /* \"#utility.yul\":3360:3380   */\n      sub\n        /* \"#utility.yul\":3356:3357   */\n      0x00\n        /* \"#utility.yul\":3345:3354   */\n      dup4\n        /* \"#utility.yul\":3341:3358   */\n      add\n        /* \"#utility.yul\":3334:3381   */\n      mstore\n        /* \"#utility.yul\":3398:3476   */\n      tag_239\n        /* \"#utility.yul\":3471:3475   */\n      dup2\n        /* \"#utility.yul\":3462:3468   */\n      dup5\n        /* \"#utility.yul\":3398:3476   */\n      tag_181\n      jump\t// in\n    tag_239:\n        /* \"#utility.yul\":3390:3476   */\n      swap1\n      pop\n        /* \"#utility.yul\":3170:3483   */\n      swap3\n      swap2\n      pop\n      pop\n      jump\t// out\n        /* \"#utility.yul\":3570:3687   */\n    tag_183:\n        /* \"#utility.yul\":3679:3680   */\n      0x00\n        /* \"#utility.yul\":3676:3677   */\n      dup1\n        /* \"#utility.yul\":3669:3681   */\n      revert\n        /* \"#utility.yul\":3816:3938   */\n    tag_185:\n        /* \"#utility.yul\":3889:3913   */\n      tag_244\n        /* \"#utility.yul\":3907:3912   */\n      dup2\n        /* \"#utility.yul\":3889:3913   */\n      tag_172\n      jump\t// in\n    tag_244:\n        /* \"#utility.yul\":3882:3887   */\n      dup2\n        /* \"#utility.yul\":3879:3914   */\n      eq\n        /* \"#utility.yul\":3869:3932   */\n      tag_245\n      jumpi\n        /* \"#utility.yul\":3928:3929   */\n      0x00\n        /* \"#utility.yul\":3925:3926   */\n      dup1\n        /* \"#utility.yul\":3918:3930   */\n      revert\n        /* \"#utility.yul\":3869:3932   */\n    tag_245:\n        /* \"#utility.yul\":3816:3938   */\n      pop\n      jump\t// out\n        /* \"#utility.yul\":3944:4083   */\n    tag_186:\n        /* \"#utility.yul\":3990:3995   */\n      0x00\n        /* \"#utility.yul\":4028:4034   */\n      dup2\n        /* \"#utility.yul\":4015:4035   */\n      calldataload\n        /* \"#utility.yul\":4006:4035   */\n      swap1\n      pop\n        /* \"#utility.yul\":4044:4077   */\n      tag_247\n        /* \"#utility.yul\":4071:4076   */\n      dup2\n        /* \"#utility.yul\":4044:4077   */\n      tag_185\n      jump\t// in\n    tag_247:\n        /* \"#utility.yul\":3944:4083   */\n      swap3\n      swap2\n      pop\n      pop\n      jump\t// out\n        /* \"#utility.yul\":4089:4166   */\n    tag_187:\n        /* \"#utility.yul\":4126:4133   */\n      0x00\n        /* \"#utility.yul\":4155:4160   */\n      dup2\n        /* \"#utility.yul\":4144:4160   */\n      swap1\n      pop\n        /* \"#utility.yul\":4089:4166   */\n      swap2\n      swap1\n      pop\n      jump\t// out\n        /* \"#utility.yul\":4172:4294   */\n    tag_188:\n        /* \"#utility.yul\":4245:4269   */\n      tag_250\n        /* \"#utility.yul\":4263:4268   */\n      dup2\n        /* \"#utility.yul\":4245:4269   */\n      tag_187\n      jump\t// in\n    tag_250:\n        /* \"#utility.yul\":4238:4243   */\n      dup2\n        /* \"#utility.yul\":4235:4270   */\n      eq\n        /* \"#utility.yul\":4225:4288   */\n      tag_251\n      jumpi\n        /* \"#utility.yul\":4284:4285   */\n      0x00\n        /* \"#utility.yul\":4281:4282   */\n      dup1\n        /* \"#utility.yul\":4274:4286   */\n      revert\n        /* \"#utility.yul\":4225:4288   */\n    tag_251:\n        /* \"#utility.yul\":4172:4294   */\n      pop\n      jump\t// out\n        /* \"#utility.yul\":4300:4439   */\n    tag_189:\n        /* \"#utility.yul\":4346:4351   */\n      0x00\n        /* \"#utility.yul\":4384:4390   */\n      dup2\n        /* \"#utility.yul\":4371:4391   */\n      calldataload\n        /* \"#utility.yul\":4362:4391   */\n      swap1\n      pop\n        /* \"#utility.yul\":4400:4433   */\n      tag_253\n        /* \"#utility.yul\":4427:4432   */\n      dup2\n        /* \"#utility.yul\":4400:4433   */\n      tag_188\n      jump\t// in\n    tag_253:\n        /* \"#utility.yul\":4300:4439   */\n      swap3\n      swap2\n      pop\n      pop\n      jump\t// out\n        /* \"#utility.yul\":4445:4919   */\n    tag_33:\n        /* \"#utility.yul\":4513:4519   */\n      0x00\n        /* \"#utility.yul\":4521:4527   */\n      dup1\n        /* \"#utility.yul\":4570:4572   */\n      0x40\n        /* \"#utility.yul\":4558:4567   */\n      dup4\n        /* \"#utility.yul\":4549:4556   */\n      dup6\n        /* \"#utility.yul\":4545:4568   */\n      sub\n        /* \"#utility.yul\":4541:4573   */\n      slt\n        /* \"#utility.yul\":4538:4657   */\n      iszero\n      tag_255\n      jumpi\n        /* \"#utility.yul\":4576:4655   */\n      tag_256\n      tag_183\n      jump\t// in\n    tag_256:\n        /* \"#utility.yul\":4538:4657   */\n    tag_255:\n        /* \"#utility.yul\":4696:4697   */\n      0x00\n        /* \"#utility.yul\":4721:4774   */\n      tag_257\n        /* \"#utility.yul\":4766:4773   */\n      dup6\n        /* \"#utility.yul\":4757:4763   */\n      dup3\n        /* \"#utility.yul\":4746:4755   */\n      dup7\n        /* \"#utility.yul\":4742:4764   */\n      add\n        /* \"#utility.yul\":4721:4774   */\n      tag_186\n      jump\t// in\n    tag_257:\n        /* \"#utility.yul\":4711:4774   */\n      swap3\n      pop\n        /* \"#utility.yul\":4667:4784   */\n      pop\n        /* \"#utility.yul\":4823:4825   */\n      0x20\n        /* \"#utility.yul\":4849:4902   */\n      tag_258\n        /* \"#utility.yul\":4894:4901   */\n      dup6\n        /* \"#utility.yul\":4885:4891   */\n      dup3\n        /* \"#utility.yul\":4874:4883   */\n      dup7\n        /* \"#utility.yul\":4870:4892   */\n      add\n        /* \"#utility.yul\":4849:4902   */\n      tag_189\n      jump\t// in\n    tag_258:\n        /* \"#utility.yul\":4839:4902   */\n      swap2\n      pop\n        /* \"#utility.yul\":4794:4912   */\n      pop\n        /* \"#utility.yul\":4445:4919   */\n      swap3\n      pop\n      swap3\n      swap1\n      pop\n      jump\t// out\n        /* \"#utility.yul\":4925:5043   */\n    tag_190:\n        /* \"#utility.yul\":5012:5036   */\n      tag_260\n        /* \"#utility.yul\":5030:5035   */\n      dup2\n        /* \"#utility.yul\":5012:5036   */\n      tag_187\n      jump\t// in\n    tag_260:\n        /* \"#utility.yul\":5007:5010   */\n      dup3\n        /* \"#utility.yul\":5000:5037   */\n      mstore\n        /* \"#utility.yul\":4925:5043   */\n      pop\n      pop\n      jump\t// out\n        /* \"#utility.yul\":5049:5271   */\n    tag_38:\n        /* \"#utility.yul\":5142:5146   */\n      0x00\n        /* \"#utility.yul\":5180:5182   */\n      0x20\n        /* \"#utility.yul\":5169:5178   */\n      dup3\n        /* \"#utility.yul\":5165:5183   */\n      add\n        /* \"#utility.yul\":5157:5183   */\n      swap1\n      pop\n        /* \"#utility.yul\":5193:5264   */\n      tag_262\n        /* \"#utility.yul\":5261:5262   */\n      0x00\n        /* \"#utility.yul\":5250:5259   */\n      dup4\n        /* \"#utility.yul\":5246:5263   */\n      add\n        /* \"#utility.yul\":5237:5243   */\n      dup5\n        /* \"#utility.yul\":5193:5264   */\n      tag_190\n      jump\t// in\n    tag_262:\n        /* \"#utility.yul\":5049:5271   */\n      swap3\n      swap2\n      pop\n      pop\n      jump\t// out\n        /* \"#utility.yul\":5277:5606   */\n    tag_47:\n        /* \"#utility.yul\":5336:5342   */\n      0x00\n        /* \"#utility.yul\":5385:5387   */\n      0x20\n        /* \"#utility.yul\":5373:5382   */\n      dup3\n        /* \"#utility.yul\":5364:5371   */\n      dup5\n        /* \"#utility.yul\":5360:5383   */\n      sub\n        /* \"#utility.yul\":5356:5388   */\n      slt\n        /* \"#utility.yul\":5353:5472   */\n      iszero\n      tag_264\n      jumpi\n        /* \"#utility.yul\":5391:5470   */\n      tag_265\n      tag_183\n      jump\t// in\n    tag_265:\n        /* \"#utility.yul\":5353:5472   */\n    tag_264:\n        /* \"#utility.yul\":5511:5512   */\n      0x00\n        /* \"#utility.yul\":5536:5589   */\n      tag_266\n        /* \"#utility.yul\":5581:5588   */\n      dup5\n        /* \"#utility.yul\":5572:5578   */\n      dup3\n        /* \"#utility.yul\":5561:5570   */\n      dup6\n        /* \"#utility.yul\":5557:5579   */\n      add\n        /* \"#utility.yul\":5536:5589   */\n      tag_186\n      jump\t// in\n    tag_266:\n        /* \"#utility.yul\":5526:5589   */\n      swap2\n      pop\n        /* \"#utility.yul\":5482:5599   */\n      pop\n        /* \"#utility.yul\":5277:5606   */\n      swap3\n      swap2\n      pop\n      pop\n      jump\t// out\n        /* \"#utility.yul\":5612:5941   */\n    tag_56:\n        /* \"#utility.yul\":5671:5677   */\n      0x00\n        /* \"#utility.yul\":5720:5722   */\n      0x20\n        /* \"#utility.yul\":5708:5717   */\n      dup3\n        /* \"#utility.yul\":5699:5706   */\n      dup5\n        /* \"#utility.yul\":5695:5718   */\n      sub\n        /* \"#utility.yul\":5691:5723   */\n      slt\n        /* \"#utility.yul\":5688:5807   */\n      iszero\n      tag_268\n      jumpi\n        /* \"#utility.yul\":5726:5805   */\n      tag_269\n      tag_183\n      jump\t// in\n    tag_269:\n        /* \"#utility.yul\":5688:5807   */\n    tag_268:\n        /* \"#utility.yul\":5846:5847   */\n      0x00\n        /* \"#utility.yul\":5871:5924   */\n      tag_270\n        /* \"#utility.yul\":5916:5923   */\n      dup5\n        /* \"#utility.yul\":5907:5913   */\n      dup3\n        /* \"#utility.yul\":5896:5905   */\n      dup6\n        /* \"#utility.yul\":5892:5914   */\n      add\n        /* \"#utility.yul\":5871:5924   */\n      tag_189\n      jump\t// in\n    tag_270:\n        /* \"#utility.yul\":5861:5924   */\n      swap2\n      pop\n        /* \"#utility.yul\":5817:5934   */\n      pop\n        /* \"#utility.yul\":5612:5941   */\n      swap3\n      swap2\n      pop\n      pop\n      jump\t// out\n        /* \"#utility.yul\":5947:6065   */\n    tag_191:\n        /* \"#utility.yul\":6034:6058   */\n      tag_272\n        /* \"#utility.yul\":6052:6057   */\n      dup2\n        /* \"#utility.yul\":6034:6058   */\n      tag_172\n      jump\t// in\n    tag_272:\n        /* \"#utility.yul\":6029:6032   */\n      dup3\n        /* \"#utility.yul\":6022:6059   */\n      mstore\n        /* \"#utility.yul\":5947:6065   */\n      pop\n      pop\n      jump\t// out\n        /* \"#utility.yul\":6071:6293   */\n    tag_59:\n        /* \"#utility.yul\":6164:6168   */\n      0x00\n        /* \"#utility.yul\":6202:6204   */\n      0x20\n        /* \"#utility.yul\":6191:6200   */\n      dup3\n        /* \"#utility.yul\":6187:6205   */\n      add\n        /* \"#utility.yul\":6179:6205   */\n      swap1\n      pop\n        /* \"#utility.yul\":6215:6286   */\n      tag_274\n        /* \"#utility.yul\":6283:6284   */\n      0x00\n        /* \"#utility.yul\":6272:6281   */\n      dup4\n        /* \"#utility.yul\":6268:6285   */\n      add\n        /* \"#utility.yul\":6259:6265   */\n      dup5\n        /* \"#utility.yul\":6215:6286   */\n      tag_191\n      jump\t// in\n    tag_274:\n        /* \"#utility.yul\":6071:6293   */\n      swap3\n      swap2\n      pop\n      pop\n      jump\t// out\n        /* \"#utility.yul\":6299:6389   */\n    tag_192:\n        /* \"#utility.yul\":6333:6340   */\n      0x00\n        /* \"#utility.yul\":6376:6381   */\n      dup2\n        /* \"#utility.yul\":6369:6382   */\n      iszero\n        /* \"#utility.yul\":6362:6383   */\n      iszero\n        /* \"#utility.yul\":6351:6383   */\n      swap1\n      pop\n        /* \"#utility.yul\":6299:6389   */\n      swap2\n      swap1\n      pop\n      jump\t// out\n        /* \"#utility.yul\":6395:6504   */\n    tag_193:\n        /* \"#utility.yul\":6476:6497   */\n      tag_277\n        /* \"#utility.yul\":6491:6496   */\n      dup2\n        /* \"#utility.yul\":6476:6497   */\n      tag_192\n      jump\t// in\n    tag_277:\n        /* \"#utility.yul\":6471:6474   */\n      dup3\n        /* \"#utility.yul\":6464:6498   */\n      mstore\n        /* \"#utility.yul\":6395:6504   */\n      pop\n      pop\n      jump\t// out\n        /* \"#utility.yul\":6510:6720   */\n    tag_79:\n        /* \"#utility.yul\":6597:6601   */\n      0x00\n        /* \"#utility.yul\":6635:6637   */\n      0x20\n        /* \"#utility.yul\":6624:6633   */\n      dup3\n        /* \"#utility.yul\":6620:6638   */\n      add\n        /* \"#utility.yul\":6612:6638   */\n      swap1\n      pop\n        /* \"#utility.yul\":6648:6713   */\n      tag_279\n        /* \"#utility.yul\":6710:6711   */\n      0x00\n        /* \"#utility.yul\":6699:6708   */\n      dup4\n        /* \"#utility.yul\":6695:6712   */\n      add\n        /* \"#utility.yul\":6686:6692   */\n      dup5\n        /* \"#utility.yul\":6648:6713   */\n      tag_193\n      jump\t// in\n    tag_279:\n        /* \"#utility.yul\":6510:6720   */\n      swap3\n      swap2\n      pop\n      pop\n      jump\t// out\n        /* \"#utility.yul\":6726:6906   */\n    tag_194:\n        /* \"#utility.yul\":6774:6851   */\n      0x4e487b7100000000000000000000000000000000000000000000000000000000\n        /* \"#utility.yul\":6771:6772   */\n      0x00\n        /* \"#utility.yul\":6764:6852   */\n      mstore\n        /* \"#utility.yul\":6871:6875   */\n      0x22\n        /* \"#utility.yul\":6868:6869   */\n      0x04\n        /* \"#utility.yul\":6861:6876   */\n      mstore\n        /* \"#utility.yul\":6895:6899   */\n      0x24\n        /* \"#utility.yul\":6892:6893   */\n      0x00\n        /* \"#utility.yul\":6885:6900   */\n      revert\n        /* \"#utility.yul\":6912:7232   */\n    tag_89:\n        /* \"#utility.yul\":6956:6962   */\n      0x00\n        /* \"#utility.yul\":6993:6994   */\n      0x02\n        /* \"#utility.yul\":6987:6991   */\n      dup3\n        /* \"#utility.yul\":6983:6995   */\n      div\n        /* \"#utility.yul\":6973:6995   */\n      swap1\n      pop\n        /* \"#utility.yul\":7040:7041   */\n      0x01\n        /* \"#utility.yul\":7034:7038   */\n      dup3\n        /* \"#utility.yul\":7030:7042   */\n      and\n        /* \"#utility.yul\":7061:7079   */\n      dup1\n        /* \"#utility.yul\":7051:7132   */\n      tag_282\n      jumpi\n        /* \"#utility.yul\":7117:7121   */\n      0x7f\n        /* \"#utility.yul\":7109:7115   */\n      dup3\n        /* \"#utility.yul\":7105:7122   */\n      and\n        /* \"#utility.yul\":7095:7122   */\n      swap2\n      pop\n        /* \"#utility.yul\":7051:7132   */\n    tag_282:\n        /* \"#utility.yul\":7179:7181   */\n      0x20\n        /* \"#utility.yul\":7171:7177   */\n      dup3\n        /* \"#utility.yul\":7168:7182   */\n      lt\n        /* \"#utility.yul\":7148:7166   */\n      dup2\n        /* \"#utility.yul\":7145:7183   */\n      sub\n        /* \"#utility.yul\":7142:7226   */\n      tag_283\n      jumpi\n        /* \"#utility.yul\":7198:7216   */\n      tag_284\n      tag_194\n      jump\t// in\n    tag_284:\n        /* \"#utility.yul\":7142:7226   */\n    tag_283:\n        /* \"#utility.yul\":6963:7232   */\n      pop\n        /* \"#utility.yul\":6912:7232   */\n      swap2\n      swap1\n      pop\n      jump\t// out\n        /* \"#utility.yul\":7238:7462   */\n    tag_195:\n        /* \"#utility.yul\":7378:7412   */\n      0x4f6e6c7920746865206f776e65722063616e2063616c6c20746869732066756e\n        /* \"#utility.yul\":7374:7375   */\n      0x00\n        /* \"#utility.yul\":7366:7372   */\n      dup3\n        /* \"#utility.yul\":7362:7376   */\n      add\n        /* \"#utility.yul\":7355:7413   */\n      mstore\n        /* \"#utility.yul\":7447:7454   */\n      0x6374696f6e000000000000000000000000000000000000000000000000000000\n        /* \"#utility.yul\":7442:7444   */\n      0x20\n        /* \"#utility.yul\":7434:7440   */\n      dup3\n        /* \"#utility.yul\":7430:7445   */\n      add\n        /* \"#utility.yul\":7423:7455   */\n      mstore\n        /* \"#utility.yul\":7238:7462   */\n      pop\n      jump\t// out\n        /* \"#utility.yul\":7468:7834   */\n    tag_196:\n        /* \"#utility.yul\":7610:7613   */\n      0x00\n        /* \"#utility.yul\":7631:7698   */\n      tag_287\n        /* \"#utility.yul\":7695:7697   */\n      0x25\n        /* \"#utility.yul\":7690:7693   */\n      dup4\n        /* \"#utility.yul\":7631:7698   */\n      tag_178\n      jump\t// in\n    tag_287:\n        /* \"#utility.yul\":7624:7698   */\n      swap2\n      pop\n        /* \"#utility.yul\":7707:7800   */\n      tag_288\n        /* \"#utility.yul\":7796:7799   */\n      dup3\n        /* \"#utility.yul\":7707:7800   */\n      tag_195\n      jump\t// in\n    tag_288:\n        /* \"#utility.yul\":7825:7827   */\n      0x40\n        /* \"#utility.yul\":7820:7823   */\n      dup3\n        /* \"#utility.yul\":7816:7828   */\n      add\n        /* \"#utility.yul\":7809:7828   */\n      swap1\n      pop\n        /* \"#utility.yul\":7468:7834   */\n      swap2\n      swap1\n      pop\n      jump\t// out\n        /* \"#utility.yul\":7840:8259   */\n    tag_97:\n        /* \"#utility.yul\":8006:8010   */\n      0x00\n        /* \"#utility.yul\":8044:8046   */\n      0x20\n        /* \"#utility.yul\":8033:8042   */\n      dup3\n        /* \"#utility.yul\":8029:8047   */\n      add\n        /* \"#utility.yul\":8021:8047   */\n      swap1\n      pop\n        /* \"#utility.yul\":8093:8102   */\n      dup2\n        /* \"#utility.yul\":8087:8091   */\n      dup2\n        /* \"#utility.yul\":8083:8103   */\n      sub\n        /* \"#utility.yul\":8079:8080   */\n      0x00\n        /* \"#utility.yul\":8068:8077   */\n      dup4\n        /* \"#utility.yul\":8064:8081   */\n      add\n        /* \"#utility.yul\":8057:8104   */\n      mstore\n        /* \"#utility.yul\":8121:8252   */\n      tag_290\n        /* \"#utility.yul\":8247:8251   */\n      dup2\n        /* \"#utility.yul\":8121:8252   */\n      tag_196\n      jump\t// in\n    tag_290:\n        /* \"#utility.yul\":8113:8252   */\n      swap1\n      pop\n        /* \"#utility.yul\":7840:8259   */\n      swap2\n      swap1\n      pop\n      jump\t// out\n        /* \"#utility.yul\":8265:8435   */\n    tag_197:\n        /* \"#utility.yul\":8405:8427   */\n      0x496e73756666696369656e742062616c616e6365000000000000000000000000\n        /* \"#utility.yul\":8401:8402   */\n      0x00\n        /* \"#utility.yul\":8393:8399   */\n      dup3\n        /* \"#utility.yul\":8389:8403   */\n      add\n        /* \"#utility.yul\":8382:8428   */\n      mstore\n        /* \"#utility.yul\":8265:8435   */\n      pop\n      jump\t// out\n        /* \"#utility.yul\":8441:8807   */\n    tag_198:\n        /* \"#utility.yul\":8583:8586   */\n      0x00\n        /* \"#utility.yul\":8604:8671   */\n      tag_293\n        /* \"#utility.yul\":8668:8670   */\n      0x14\n        /* \"#utility.yul\":8663:8666   */\n      dup4\n        /* \"#utility.yul\":8604:8671   */\n      tag_178\n      jump\t// in\n    tag_293:\n        /* \"#utility.yul\":8597:8671   */\n      swap2\n      pop\n        /* \"#utility.yul\":8680:8773   */\n      tag_294\n        /* \"#utility.yul\":8769:8772   */\n      dup3\n        /* \"#utility.yul\":8680:8773   */\n      tag_197\n      jump\t// in\n    tag_294:\n        /* \"#utility.yul\":8798:8800   */\n      0x20\n        /* \"#utility.yul\":8793:8796   */\n      dup3\n        /* \"#utility.yul\":8789:8801   */\n      add\n        /* \"#utility.yul\":8782:8801   */\n      swap1\n      pop\n        /* \"#utility.yul\":8441:8807   */\n      swap2\n      swap1\n      pop\n      jump\t// out\n        /* \"#utility.yul\":8813:9232   */\n    tag_101:\n        /* \"#utility.yul\":8979:8983   */\n      0x00\n        /* \"#utility.yul\":9017:9019   */\n      0x20\n        /* \"#utility.yul\":9006:9015   */\n      dup3\n        /* \"#utility.yul\":9002:9020   */\n      add\n        /* \"#utility.yul\":8994:9020   */\n      swap1\n      pop\n        /* \"#utility.yul\":9066:9075   */\n      dup2\n        /* \"#utility.yul\":9060:9064   */\n      dup2\n        /* \"#utility.yul\":9056:9076   */\n      sub\n        /* \"#utility.yul\":9052:9053   */\n      0x00\n        /* \"#utility.yul\":9041:9050   */\n      dup4\n        /* \"#utility.yul\":9037:9054   */\n      add\n        /* \"#utility.yul\":9030:9077   */\n      mstore\n        /* \"#utility.yul\":9094:9225   */\n      tag_296\n        /* \"#utility.yul\":9220:9224   */\n      dup2\n        /* \"#utility.yul\":9094:9225   */\n      tag_198\n      jump\t// in\n    tag_296:\n        /* \"#utility.yul\":9086:9225   */\n      swap1\n      pop\n        /* \"#utility.yul\":8813:9232   */\n      swap2\n      swap1\n      pop\n      jump\t// out\n        /* \"#utility.yul\":9238:9418   */\n    tag_199:\n        /* \"#utility.yul\":9286:9363   */\n      0x4e487b7100000000000000000000000000000000000000000000000000000000\n        /* \"#utility.yul\":9283:9284   */\n      0x00\n        /* \"#utility.yul\":9276:9364   */\n      mstore\n        /* \"#utility.yul\":9383:9387   */\n      0x11\n        /* \"#utility.yul\":9380:9381   */\n      0x04\n        /* \"#utility.yul\":9373:9388   */\n      mstore\n        /* \"#utility.yul\":9407:9411   */\n      0x24\n        /* \"#utility.yul\":9404:9405   */\n      0x00\n        /* \"#utility.yul\":9397:9412   */\n      revert\n        /* \"#utility.yul\":9424:9618   */\n    tag_103:\n        /* \"#utility.yul\":9464:9468   */\n      0x00\n        /* \"#utility.yul\":9484:9504   */\n      tag_299\n        /* \"#utility.yul\":9502:9503   */\n      dup3\n        /* \"#utility.yul\":9484:9504   */\n      tag_187\n      jump\t// in\n    tag_299:\n        /* \"#utility.yul\":9479:9504   */\n      swap2\n      pop\n        /* \"#utility.yul\":9518:9538   */\n      tag_300\n        /* \"#utility.yul\":9536:9537   */\n      dup4\n        /* \"#utility.yul\":9518:9538   */\n      tag_187\n      jump\t// in\n    tag_300:\n        /* \"#utility.yul\":9513:9538   */\n      swap3\n      pop\n        /* \"#utility.yul\":9562:9563   */\n      dup3\n        /* \"#utility.yul\":9559:9560   */\n      dup3\n        /* \"#utility.yul\":9555:9564   */\n      sub\n        /* \"#utility.yul\":9547:9564   */\n      swap1\n      pop\n        /* \"#utility.yul\":9586:9587   */\n      dup2\n        /* \"#utility.yul\":9580:9584   */\n      dup2\n        /* \"#utility.yul\":9577:9588   */\n      gt\n        /* \"#utility.yul\":9574:9611   */\n      iszero\n      tag_301\n      jumpi\n        /* \"#utility.yul\":9591:9609   */\n      tag_302\n      tag_199\n      jump\t// in\n    tag_302:\n        /* \"#utility.yul\":9574:9611   */\n    tag_301:\n        /* \"#utility.yul\":9424:9618   */\n      swap3\n      swap2\n      pop\n      pop\n      jump\t// out\n        /* \"#utility.yul\":9624:9790   */\n    tag_200:\n        /* \"#utility.yul\":9764:9782   */\n      0x566f74696e672068617320656e64656400000000000000000000000000000000\n        /* \"#utility.yul\":9760:9761   */\n      0x00\n        /* \"#utility.yul\":9752:9758   */\n      dup3\n        /* \"#utility.yul\":9748:9762   */\n      add\n        /* \"#utility.yul\":9741:9783   */\n      mstore\n        /* \"#utility.yul\":9624:9790   */\n      pop\n      jump\t// out\n        /* \"#utility.yul\":9796:10162   */\n    tag_201:\n        /* \"#utility.yul\":9938:9941   */\n      0x00\n        /* \"#utility.yul\":9959:10026   */\n      tag_305\n        /* \"#utility.yul\":10023:10025   */\n      0x10\n        /* \"#utility.yul\":10018:10021   */\n      dup4\n        /* \"#utility.yul\":9959:10026   */\n      tag_178\n      jump\t// in\n    tag_305:\n        /* \"#utility.yul\":9952:10026   */\n      swap2\n      pop\n        /* \"#utility.yul\":10035:10128   */\n      tag_306\n        /* \"#utility.yul\":10124:10127   */\n      dup3\n        /* \"#utility.yul\":10035:10128   */\n      tag_200\n      jump\t// in\n    tag_306:\n        /* \"#utility.yul\":10153:10155   */\n      0x20\n        /* \"#utility.yul\":10148:10151   */\n      dup3\n        /* \"#utility.yul\":10144:10156   */\n      add\n        /* \"#utility.yul\":10137:10156   */\n      swap1\n      pop\n        /* \"#utility.yul\":9796:10162   */\n      swap2\n      swap1\n      pop\n      jump\t// out\n        /* \"#utility.yul\":10168:10587   */\n    tag_114:\n        /* \"#utility.yul\":10334:10338   */\n      0x00\n        /* \"#utility.yul\":10372:10374   */\n      0x20\n        /* \"#utility.yul\":10361:10370   */\n      dup3\n        /* \"#utility.yul\":10357:10375   */\n      add\n        /* \"#utility.yul\":10349:10375   */\n      swap1\n      pop\n        /* \"#utility.yul\":10421:10430   */\n      dup2\n        /* \"#utility.yul\":10415:10419   */\n      dup2\n        /* \"#utility.yul\":10411:10431   */\n      sub\n        /* \"#utility.yul\":10407:10408   */\n      0x00\n        /* \"#utility.yul\":10396:10405   */\n      dup4\n        /* \"#utility.yul\":10392:10409   */\n      add\n        /* \"#utility.yul\":10385:10432   */\n      mstore\n        /* \"#utility.yul\":10449:10580   */\n      tag_308\n        /* \"#utility.yul\":10575:10579   */\n      dup2\n        /* \"#utility.yul\":10449:10580   */\n      tag_201\n      jump\t// in\n    tag_308:\n        /* \"#utility.yul\":10441:10580   */\n      swap1\n      pop\n        /* \"#utility.yul\":10168:10587   */\n      swap2\n      swap1\n      pop\n      jump\t// out\n        /* \"#utility.yul\":10593:10784   */\n    tag_123:\n        /* \"#utility.yul\":10633:10636   */\n      0x00\n        /* \"#utility.yul\":10652:10672   */\n      tag_310\n        /* \"#utility.yul\":10670:10671   */\n      dup3\n        /* \"#utility.yul\":10652:10672   */\n      tag_187\n      jump\t// in\n    tag_310:\n        /* \"#utility.yul\":10647:10672   */\n      swap2\n      pop\n        /* \"#utility.yul\":10686:10706   */\n      tag_311\n        /* \"#utility.yul\":10704:10705   */\n      dup4\n        /* \"#utility.yul\":10686:10706   */\n      tag_187\n      jump\t// in\n    tag_311:\n        /* \"#utility.yul\":10681:10706   */\n      swap3\n      pop\n        /* \"#utility.yul\":10729:10730   */\n      dup3\n        /* \"#utility.yul\":10726:10727   */\n      dup3\n        /* \"#utility.yul\":10722:10731   */\n      add\n        /* \"#utility.yul\":10715:10731   */\n      swap1\n      pop\n        /* \"#utility.yul\":10750:10753   */\n      dup1\n        /* \"#utility.yul\":10747:10748   */\n      dup3\n        /* \"#utility.yul\":10744:10754   */\n      gt\n        /* \"#utility.yul\":10741:10777   */\n      iszero\n      tag_312\n      jumpi\n        /* \"#utility.yul\":10757:10775   */\n      tag_313\n      tag_199\n      jump\t// in\n    tag_313:\n        /* \"#utility.yul\":10741:10777   */\n    tag_312:\n        /* \"#utility.yul\":10593:10784   */\n      swap3\n      swap2\n      pop\n      pop\n      jump\t// out\n        /* \"#utility.yul\":10790:11122   */\n    tag_125:\n        /* \"#utility.yul\":10911:10915   */\n      0x00\n        /* \"#utility.yul\":10949:10951   */\n      0x40\n        /* \"#utility.yul\":10938:10947   */\n      dup3\n        /* \"#utility.yul\":10934:10952   */\n      add\n        /* \"#utility.yul\":10926:10952   */\n      swap1\n      pop\n        /* \"#utility.yul\":10962:11033   */\n      tag_315\n        /* \"#utility.yul\":11030:11031   */\n      0x00\n        /* \"#utility.yul\":11019:11028   */\n      dup4\n        /* \"#utility.yul\":11015:11032   */\n      add\n        /* \"#utility.yul\":11006:11012   */\n      dup6\n        /* \"#utility.yul\":10962:11033   */\n      tag_190\n      jump\t// in\n    tag_315:\n        /* \"#utility.yul\":11043:11115   */\n      tag_316\n        /* \"#utility.yul\":11111:11113   */\n      0x20\n        /* \"#utility.yul\":11100:11109   */\n      dup4\n        /* \"#utility.yul\":11096:11114   */\n      add\n        /* \"#utility.yul\":11087:11093   */\n      dup5\n        /* \"#utility.yul\":11043:11115   */\n      tag_190\n      jump\t// in\n    tag_316:\n        /* \"#utility.yul\":10790:11122   */\n      swap4\n      swap3\n      pop\n      pop\n      pop\n      jump\t// out\n        /* \"#utility.yul\":11128:11298   */\n    tag_202:\n        /* \"#utility.yul\":11268:11290   */\n      0x566f74696e67206973206e6f7420616374697665000000000000000000000000\n        /* \"#utility.yul\":11264:11265   */\n      0x00\n        /* \"#utility.yul\":11256:11262   */\n      dup3\n        /* \"#utility.yul\":11252:11266   */\n      add\n        /* \"#utility.yul\":11245:11291   */\n      mstore\n        /* \"#utility.yul\":11128:11298   */\n      pop\n      jump\t// out\n        /* \"#utility.yul\":11304:11670   */\n    tag_203:\n        /* \"#utility.yul\":11446:11449   */\n      0x00\n        /* \"#utility.yul\":11467:11534   */\n      tag_319\n        /* \"#utility.yul\":11531:11533   */\n      0x14\n        /* \"#utility.yul\":11526:11529   */\n      dup4\n        /* \"#utility.yul\":11467:11534   */\n      tag_178\n      jump\t// in\n    tag_319:\n        /* \"#utility.yul\":11460:11534   */\n      swap2\n      pop\n        /* \"#utility.yul\":11543:11636   */\n      tag_320\n        /* \"#utility.yul\":11632:11635   */\n      dup3\n        /* \"#utility.yul\":11543:11636   */\n      tag_202\n      jump\t// in\n    tag_320:\n        /* \"#utility.yul\":11661:11663   */\n      0x20\n        /* \"#utility.yul\":11656:11659   */\n      dup3\n        /* \"#utility.yul\":11652:11664   */\n      add\n        /* \"#utility.yul\":11645:11664   */\n      swap1\n      pop\n        /* \"#utility.yul\":11304:11670   */\n      swap2\n      swap1\n      pop\n      jump\t// out\n        /* \"#utility.yul\":11676:12095   */\n    tag_130:\n        /* \"#utility.yul\":11842:11846   */\n      0x00\n        /* \"#utility.yul\":11880:11882   */\n      0x20\n        /* \"#utility.yul\":11869:11878   */\n      dup3\n        /* \"#utility.yul\":11865:11883   */\n      add\n        /* \"#utility.yul\":11857:11883   */\n      swap1\n      pop\n        /* \"#utility.yul\":11929:11938   */\n      dup2\n        /* \"#utility.yul\":11923:11927   */\n      dup2\n        /* \"#utility.yul\":11919:11939   */\n      sub\n        /* \"#utility.yul\":11915:11916   */\n      0x00\n        /* \"#utility.yul\":11904:11913   */\n      dup4\n        /* \"#utility.yul\":11900:11917   */\n      add\n        /* \"#utility.yul\":11893:11940   */\n      mstore\n        /* \"#utility.yul\":11957:12088   */\n      tag_322\n        /* \"#utility.yul\":12083:12087   */\n      dup2\n        /* \"#utility.yul\":11957:12088   */\n      tag_203\n      jump\t// in\n    tag_322:\n        /* \"#utility.yul\":11949:12088   */\n      swap1\n      pop\n        /* \"#utility.yul\":11676:12095   */\n      swap2\n      swap1\n      pop\n      jump\t// out\n        /* \"#utility.yul\":12101:12272   */\n    tag_204:\n        /* \"#utility.yul\":12241:12264   */\n      0x4e6f7420612076616c69642063616e6469646174650000000000000000000000\n        /* \"#utility.yul\":12237:12238   */\n      0x00\n        /* \"#utility.yul\":12229:12235   */\n      dup3\n        /* \"#utility.yul\":12225:12239   */\n      add\n        /* \"#utility.yul\":12218:12265   */\n      mstore\n        /* \"#utility.yul\":12101:12272   */\n      pop\n      jump\t// out\n        /* \"#utility.yul\":12278:12644   */\n    tag_205:\n        /* \"#utility.yul\":12420:12423   */\n      0x00\n        /* \"#utility.yul\":12441:12508   */\n      tag_325\n        /* \"#utility.yul\":12505:12507   */\n      0x15\n        /* \"#utility.yul\":12500:12503   */\n      dup4\n        /* \"#utility.yul\":12441:12508   */\n      tag_178\n      jump\t// in\n    tag_325:\n        /* \"#utility.yul\":12434:12508   */\n      swap2\n      pop\n        /* \"#utility.yul\":12517:12610   */\n      tag_326\n        /* \"#utility.yul\":12606:12609   */\n      dup3\n        /* \"#utility.yul\":12517:12610   */\n      tag_204\n      jump\t// in\n    tag_326:\n        /* \"#utility.yul\":12635:12637   */\n      0x20\n        /* \"#utility.yul\":12630:12633   */\n      dup3\n        /* \"#utility.yul\":12626:12638   */\n      add\n        /* \"#utility.yul\":12619:12638   */\n      swap1\n      pop\n        /* \"#utility.yul\":12278:12644   */\n      swap2\n      swap1\n      pop\n      jump\t// out\n        /* \"#utility.yul\":12650:13069   */\n    tag_138:\n        /* \"#utility.yul\":12816:12820   */\n      0x00\n        /* \"#utility.yul\":12854:12856   */\n      0x20\n        /* \"#utility.yul\":12843:12852   */\n      dup3\n        /* \"#utility.yul\":12839:12857   */\n      add\n        /* \"#utility.yul\":12831:12857   */\n      swap1\n      pop\n        /* \"#utility.yul\":12903:12912   */\n      dup2\n        /* \"#utility.yul\":12897:12901   */\n      dup2\n        /* \"#utility.yul\":12893:12913   */\n      sub\n        /* \"#utility.yul\":12889:12890   */\n      0x00\n        /* \"#utility.yul\":12878:12887   */\n      dup4\n        /* \"#utility.yul\":12874:12891   */\n      add\n        /* \"#utility.yul\":12867:12914   */\n      mstore\n        /* \"#utility.yul\":12931:13062   */\n      tag_328\n        /* \"#utility.yul\":13057:13061   */\n      dup2\n        /* \"#utility.yul\":12931:13062   */\n      tag_205\n      jump\t// in\n    tag_328:\n        /* \"#utility.yul\":12923:13062   */\n      swap1\n      pop\n        /* \"#utility.yul\":12650:13069   */\n      swap2\n      swap1\n      pop\n      jump\t// out\n        /* \"#utility.yul\":13075:13255   */\n    tag_165:\n        /* \"#utility.yul\":13123:13200   */\n      0x4e487b7100000000000000000000000000000000000000000000000000000000\n        /* \"#utility.yul\":13120:13121   */\n      0x00\n        /* \"#utility.yul\":13113:13201   */\n      mstore\n        /* \"#utility.yul\":13220:13224   */\n      0x32\n        /* \"#utility.yul\":13217:13218   */\n      0x04\n        /* \"#utility.yul\":13210:13225   */\n      mstore\n        /* \"#utility.yul\":13244:13248   */\n      0x24\n        /* \"#utility.yul\":13241:13242   */\n      0x00\n        /* \"#utility.yul\":13234:13249   */\n      revert\n\n    auxdata: 0xa264697066735822122018c07d58c138ff28c5f50ecd828ab73e9bec5c2ad1e4a9e2578563d970c5076e64736f6c634300081a0033\n}\n",
				"bytecode": {
					"linkReferences": {},
					"object": "60806040526040518060400160405280600b81526020017f566f74696e67546f6b656e0000000000000000000000000000000000000000008152505f90816100479190610378565b50348015610053575f80fd5b50604051611a77380380611a7783398181016040528101906100759190610475565b3360025f6101000a81548173ffffffffffffffffffffffffffffffffffffffff021916908373ffffffffffffffffffffffffffffffffffffffff160217905550806001819055508060065f60025f9054906101000a900473ffffffffffffffffffffffffffffffffffffffff1673ffffffffffffffffffffffffffffffffffffffff1673ffffffffffffffffffffffffffffffffffffffff1681526020019081526020015f20819055505f60055f6101000a81548160ff021916908315150217905550506104a0565b5f81519050919050565b7f4e487b71000000000000000000000000000000000000000000000000000000005f52604160045260245ffd5b7f4e487b71000000000000000000000000000000000000000000000000000000005f52602260045260245ffd5b5f60028204905060018216806101b957607f821691505b6020821081036101cc576101cb610175565b5b50919050565b5f819050815f5260205f209050919050565b5f6020601f8301049050919050565b5f82821b905092915050565b5f6008830261022e7fffffffffffffffffffffffffffffffffffffffffffffffffffffffffffffffff826101f3565b61023886836101f3565b95508019841693508086168417925050509392505050565b5f819050919050565b5f819050919050565b5f61027c61027761027284610250565b610259565b610250565b9050919050565b5f819050919050565b61029583610262565b6102a96102a182610283565b8484546101ff565b825550505050565b5f90565b6102bd6102b1565b6102c881848461028c565b505050565b5b818110156102eb576102e05f826102b5565b6001810190506102ce565b5050565b601f82111561033057610301816101d2565b61030a846101e4565b81016020851015610319578190505b61032d610325856101e4565b8301826102cd565b50505b505050565b5f82821c905092915050565b5f6103505f1984600802610335565b1980831691505092915050565b5f6103688383610341565b9150826002028217905092915050565b6103818261013e565b67ffffffffffffffff81111561039a57610399610148565b5b6103a482546101a2565b6103af8282856102ef565b5f60209050601f8311600181146103e0575f84156103ce578287015190505b6103d8858261035d565b86555061043f565b601f1984166103ee866101d2565b5f5b82811015610415578489015182556001820191506020850194506020810190506103f0565b86831015610432578489015161042e601f891682610341565b8355505b6001600288020188555050505b505050505050565b5f80fd5b61045481610250565b811461045e575f80fd5b50565b5f8151905061046f8161044b565b92915050565b5f6020828403121561048a57610489610447565b5b5f61049784828501610461565b91505092915050565b6115ca806104ad5f395ff3fe608060405234801561000f575f80fd5b5060043610610109575f3560e01c80633477ee2e116100a05780638da5cb5b1161006f5780638da5cb5b146102a35780639ab24eb0146102c15780639d5a0529146102f1578063c3403ddf1461030f578063f0dda65c1461031957610109565b80633477ee2e1461021f5780633acd75f81461024f5780633d2f5bda1461026b5780635f74bbde1461028757610109565b80631ea736e0116100dc5780631ea736e0146101835780632019a608146101a157806323ef2746146101bf57806327e235e3146101ef57610109565b806306a49fce1461010d57806306fdde031461012b5780630d1118ce1461014957806318160ddd14610165575b5f80fd5b610115610335565b6040516101229190610ffa565b60405180910390f35b6101336103c0565b604051610140919061108a565b60405180910390f35b610163600480360381019061015e919061110b565b61044b565b005b61016d610617565b60405161017a9190611158565b60405180910390f35b61018b61061d565b6040516101989190611158565b60405180910390f35b6101a9610623565b6040516101b69190611158565b60405180910390f35b6101d960048036038101906101d49190611171565b610629565b6040516101e69190611158565b60405180910390f35b61020960048036038101906102049190611171565b61063e565b6040516102169190611158565b60405180910390f35b6102396004803603810190610234919061119c565b610653565b60405161024691906111d6565b60405180910390f35b61026960048036038101906102649190611171565b61068e565b005b6102856004803603810190610280919061119c565b610812565b005b6102a1600480360381019061029c919061110b565b610949565b005b6102ab610b73565b6040516102b891906111d6565b60405180910390f35b6102db60048036038101906102d69190611171565b610b98565b6040516102e89190611158565b60405180910390f35b6102f9610bde565b6040516103069190611209565b60405180910390f35b610317610bf0565b005b610333600480360381019061032e919061110b565b610d25565b005b606060088054806020026020016040519081016040528092919081815260200182805480156103b657602002820191905f5260205f20905b815f9054906101000a900473ffffffffffffffffffffffffffffffffffffffff1673ffffffffffffffffffffffffffffffffffffffff168152602001906001019080831161036d575b5050505050905090565b5f80546103cc9061124f565b80601f01602080910402602001604051908101604052809291908181526020018280546103f89061124f565b80156104435780601f1061041a57610100808354040283529160200191610443565b820191905f5260205f20905b81548152906001019060200180831161042657829003601f168201915b505050505081565b60025f9054906101000a900473ffffffffffffffffffffffffffffffffffffffff1673ffffffffffffffffffffffffffffffffffffffff163373ffffffffffffffffffffffffffffffffffffffff16146104da576040517f08c379a00000000000000000000000000000000000000000000000000000000081526004016104d1906112ef565b60405180910390fd5b8060065f8473ffffffffffffffffffffffffffffffffffffffff1673ffffffffffffffffffffffffffffffffffffffff1681526020019081526020015f2054101561055a576040517f08c379a000000000000000000000000000000000000000000000000000000000815260040161055190611357565b60405180910390fd5b8060015f82825461056b91906113a2565b925050819055508060065f8473ffffffffffffffffffffffffffffffffffffffff1673ffffffffffffffffffffffffffffffffffffffff1681526020019081526020015f205f8282546105be91906113a2565b925050819055508173ffffffffffffffffffffffffffffffffffffffff167ffd38818f5291bf0bb3a2a48aadc06ba8757865d1dabd804585338aab3009dcb68260405161060b9190611158565b60405180910390a25050565b60015481565b60045481565b60035481565b6007602052805f5260405f205f915090505481565b6006602052805f5260405f205f915090505481565b60088181548110610662575f80fd5b905f5260205f20015f915054906101000a900473ffffffffffffffffffffffffffffffffffffffff1681565b60025f9054906101000a900473ffffffffffffffffffffffffffffffffffffffff1673ffffffffffffffffffffffffffffffffffffffff163373ffffffffffffffffffffffffffffffffffffffff161461071d576040517f08c379a0000000000000000000000000000000000000000000000000000000008152600401610714906112ef565b60405180910390fd5b60055f9054906101000a900460ff161561076c576040517f08c379a00000000000000000000000000000000000000000000000000000000081526004016107639061141f565b60405180910390fd5b600881908060018154018082558091505060019003905f5260205f20015f9091909190916101000a81548173ffffffffffffffffffffffffffffffffffffffff021916908373ffffffffffffffffffffffffffffffffffffffff1602179055508073ffffffffffffffffffffffffffffffffffffffff167faa38be308bdffe126c2b6be720070355eb22e0efc549ac39221b1ce71642ed4060405160405180910390a250565b60025f9054906101000a900473ffffffffffffffffffffffffffffffffffffffff1673ffffffffffffffffffffffffffffffffffffffff163373ffffffffffffffffffffffffffffffffffffffff16146108a1576040517f08c379a0000000000000000000000000000000000000000000000000000000008152600401610898906112ef565b60405180910390fd5b60055f9054906101000a900460ff16156108f0576040517f08c379a00000000000000000000000000000000000000000000000000000000081526004016108e79061141f565b60405180910390fd5b426003819055508042610903919061143d565b6004819055507ff8c022056754dbacca05aff710dc315a2fa7699ae9309fda403cd1e55c11d40f60035460045460405161093e929190611470565b60405180910390a150565b600354421015801561095d57506004544211155b61099c576040517f08c379a0000000000000000000000000000000000000000000000000000000008152600401610993906114e1565b60405180910390fd5b8060065f3373ffffffffffffffffffffffffffffffffffffffff1673ffffffffffffffffffffffffffffffffffffffff1681526020019081526020015f20541015610a1c576040517f08c379a0000000000000000000000000000000000000000000000000000000008152600401610a1390611357565b60405180910390fd5b610a2582610e71565b610a64576040517f08c379a0000000000000000000000000000000000000000000000000000000008152600401610a5b90611549565b60405180910390fd5b8060065f3373ffffffffffffffffffffffffffffffffffffffff1673ffffffffffffffffffffffffffffffffffffffff1681526020019081526020015f205f828254610ab091906113a2565b925050819055508060075f8473ffffffffffffffffffffffffffffffffffffffff1673ffffffffffffffffffffffffffffffffffffffff1681526020019081526020015f205f828254610b03919061143d565b925050819055508173ffffffffffffffffffffffffffffffffffffffff163373ffffffffffffffffffffffffffffffffffffffff167f174ba19ba3c8bb5c679c87e51db79fff7c3f04bb84c1fd55b7dacb470b674aa683604051610b679190611158565b60405180910390a35050565b60025f9054906101000a900473ffffffffffffffffffffffffffffffffffffffff1681565b5f60075f8373ffffffffffffffffffffffffffffffffffffffff1673ffffffffffffffffffffffffffffffffffffffff1681526020019081526020015f20549050919050565b60055f9054906101000a900460ff1681565b60025f9054906101000a900473ffffffffffffffffffffffffffffffffffffffff1673ffffffffffffffffffffffffffffffffffffffff163373ffffffffffffffffffffffffffffffffffffffff1614610c7f576040517f08c379a0000000000000000000000000000000000000000000000000000000008152600401610c76906112ef565b60405180910390fd5b6003544210158015610c9357506004544211155b610cd2576040517f08c379a0000000000000000000000000000000000000000000000000000000008152600401610cc9906114e1565b60405180910390fd5b600160055f6101000a81548160ff0219169083151502179055507f81eb7415440ff8e6c8e92606fd3b0e5e6a5c99ea90cdb63b41aec54e897312b342604051610d1b9190611158565b60405180910390a1565b60025f9054906101000a900473ffffffffffffffffffffffffffffffffffffffff1673ffffffffffffffffffffffffffffffffffffffff163373ffffffffffffffffffffffffffffffffffffffff1614610db4576040517f08c379a0000000000000000000000000000000000000000000000000000000008152600401610dab906112ef565b60405180910390fd5b8060015f828254610dc5919061143d565b925050819055508060065f8473ffffffffffffffffffffffffffffffffffffffff1673ffffffffffffffffffffffffffffffffffffffff1681526020019081526020015f205f828254610e18919061143d565b925050819055508173ffffffffffffffffffffffffffffffffffffffff167f3f2c9d57c068687834f0de942a9babb9e5acab57d516d3480a3c16ee165a427382604051610e659190611158565b60405180910390a25050565b5f805f90505b600880549050811015610f09578273ffffffffffffffffffffffffffffffffffffffff1660088281548110610eaf57610eae611567565b5b905f5260205f20015f9054906101000a900473ffffffffffffffffffffffffffffffffffffffff1673ffffffffffffffffffffffffffffffffffffffff1603610efc576001915050610f0e565b8080600101915050610e77565b505f90505b919050565b5f81519050919050565b5f82825260208201905092915050565b5f819050602082019050919050565b5f73ffffffffffffffffffffffffffffffffffffffff82169050919050565b5f610f6582610f3c565b9050919050565b610f7581610f5b565b82525050565b5f610f868383610f6c565b60208301905092915050565b5f602082019050919050565b5f610fa882610f13565b610fb28185610f1d565b9350610fbd83610f2d565b805f5b83811015610fed578151610fd48882610f7b565b9750610fdf83610f92565b925050600181019050610fc0565b5085935050505092915050565b5f6020820190508181035f8301526110128184610f9e565b905092915050565b5f81519050919050565b5f82825260208201905092915050565b8281835e5f83830152505050565b5f601f19601f8301169050919050565b5f61105c8261101a565b6110668185611024565b9350611076818560208601611034565b61107f81611042565b840191505092915050565b5f6020820190508181035f8301526110a28184611052565b905092915050565b5f80fd5b6110b781610f5b565b81146110c1575f80fd5b50565b5f813590506110d2816110ae565b92915050565b5f819050919050565b6110ea816110d8565b81146110f4575f80fd5b50565b5f81359050611105816110e1565b92915050565b5f8060408385031215611121576111206110aa565b5b5f61112e858286016110c4565b925050602061113f858286016110f7565b9150509250929050565b611152816110d8565b82525050565b5f60208201905061116b5f830184611149565b92915050565b5f60208284031215611186576111856110aa565b5b5f611193848285016110c4565b91505092915050565b5f602082840312156111b1576111b06110aa565b5b5f6111be848285016110f7565b91505092915050565b6111d081610f5b565b82525050565b5f6020820190506111e95f8301846111c7565b92915050565b5f8115159050919050565b611203816111ef565b82525050565b5f60208201905061121c5f8301846111fa565b92915050565b7f4e487b71000000000000000000000000000000000000000000000000000000005f52602260045260245ffd5b5f600282049050600182168061126657607f821691505b60208210810361127957611278611222565b5b50919050565b7f4f6e6c7920746865206f776e65722063616e2063616c6c20746869732066756e5f8201527f6374696f6e000000000000000000000000000000000000000000000000000000602082015250565b5f6112d9602583611024565b91506112e48261127f565b604082019050919050565b5f6020820190508181035f830152611306816112cd565b9050919050565b7f496e73756666696369656e742062616c616e63650000000000000000000000005f82015250565b5f611341601483611024565b915061134c8261130d565b602082019050919050565b5f6020820190508181035f83015261136e81611335565b9050919050565b7f4e487b71000000000000000000000000000000000000000000000000000000005f52601160045260245ffd5b5f6113ac826110d8565b91506113b7836110d8565b92508282039050818111156113cf576113ce611375565b5b92915050565b7f566f74696e672068617320656e646564000000000000000000000000000000005f82015250565b5f611409601083611024565b9150611414826113d5565b602082019050919050565b5f6020820190508181035f830152611436816113fd565b9050919050565b5f611447826110d8565b9150611452836110d8565b925082820190508082111561146a57611469611375565b5b92915050565b5f6040820190506114835f830185611149565b6114906020830184611149565b9392505050565b7f566f74696e67206973206e6f74206163746976650000000000000000000000005f82015250565b5f6114cb601483611024565b91506114d682611497565b602082019050919050565b5f6020820190508181035f8301526114f8816114bf565b9050919050565b7f4e6f7420612076616c69642063616e64696461746500000000000000000000005f82015250565b5f611533601583611024565b915061153e826114ff565b602082019050919050565b5f6020820190508181035f83015261156081611527565b9050919050565b7f4e487b71000000000000000000000000000000000000000000000000000000005f52603260045260245ffdfea264697066735822122018c07d58c138ff28c5f50ecd828ab73e9bec5c2ad1e4a9e2578563d970c5076e64736f6c634300081a0033",
					"opcodes": "PUSH1 0x80 PUSH1 0x40 MSTORE PUSH1 0x40 MLOAD DUP1 PUSH1 0x40 ADD PUSH1 0x40 MSTORE DUP1 PUSH1 0xB DUP2 MSTORE PUSH1 0x20 ADD PUSH32 0x566F74696E67546F6B656E000000000000000000000000000000000000000000 DUP2 MSTORE POP PUSH0 SWAP1 DUP2 PUSH2 0x47 SWAP2 SWAP1 PUSH2 0x378 JUMP JUMPDEST POP CALLVALUE DUP1 ISZERO PUSH2 0x53 JUMPI PUSH0 DUP1 REVERT JUMPDEST POP PUSH1 0x40 MLOAD PUSH2 0x1A77 CODESIZE SUB DUP1 PUSH2 0x1A77 DUP4 CODECOPY DUP2 DUP2 ADD PUSH1 0x40 MSTORE DUP2 ADD SWAP1 PUSH2 0x75 SWAP2 SWAP1 PUSH2 0x475 JUMP JUMPDEST CALLER PUSH1 0x2 PUSH0 PUSH2 0x100 EXP DUP2 SLOAD DUP2 PUSH20 0xFFFFFFFFFFFFFFFFFFFFFFFFFFFFFFFFFFFFFFFF MUL NOT AND SWAP1 DUP4 PUSH20 0xFFFFFFFFFFFFFFFFFFFFFFFFFFFFFFFFFFFFFFFF AND MUL OR SWAP1 SSTORE POP DUP1 PUSH1 0x1 DUP2 SWAP1 SSTORE POP DUP1 PUSH1 0x6 PUSH0 PUSH1 0x2 PUSH0 SWAP1 SLOAD SWAP1 PUSH2 0x100 EXP SWAP1 DIV PUSH20 0xFFFFFFFFFFFFFFFFFFFFFFFFFFFFFFFFFFFFFFFF AND PUSH20 0xFFFFFFFFFFFFFFFFFFFFFFFFFFFFFFFFFFFFFFFF AND PUSH20 0xFFFFFFFFFFFFFFFFFFFFFFFFFFFFFFFFFFFFFFFF AND DUP2 MSTORE PUSH1 0x20 ADD SWAP1 DUP2 MSTORE PUSH1 0x20 ADD PUSH0 KECCAK256 DUP2 SWAP1 SSTORE POP PUSH0 PUSH1 0x5 PUSH0 PUSH2 0x100 EXP DUP2 SLOAD DUP2 PUSH1 0xFF MUL NOT AND SWAP1 DUP4 ISZERO ISZERO MUL OR SWAP1 SSTORE POP POP PUSH2 0x4A0 JUMP JUMPDEST PUSH0 DUP2 MLOAD SWAP1 POP SWAP2 SWAP1 POP JUMP JUMPDEST PUSH32 0x4E487B7100000000000000000000000000000000000000000000000000000000 PUSH0 MSTORE PUSH1 0x41 PUSH1 0x4 MSTORE PUSH1 0x24 PUSH0 REVERT JUMPDEST PUSH32 0x4E487B7100000000000000000000000000000000000000000000000000000000 PUSH0 MSTORE PUSH1 0x22 PUSH1 0x4 MSTORE PUSH1 0x24 PUSH0 REVERT JUMPDEST PUSH0 PUSH1 0x2 DUP3 DIV SWAP1 POP PUSH1 0x1 DUP3 AND DUP1 PUSH2 0x1B9 JUMPI PUSH1 0x7F DUP3 AND SWAP2 POP JUMPDEST PUSH1 0x20 DUP3 LT DUP2 SUB PUSH2 0x1CC JUMPI PUSH2 0x1CB PUSH2 0x175 JUMP JUMPDEST JUMPDEST POP SWAP2 SWAP1 POP JUMP JUMPDEST PUSH0 DUP2 SWAP1 POP DUP2 PUSH0 MSTORE PUSH1 0x20 PUSH0 KECCAK256 SWAP1 POP SWAP2 SWAP1 POP JUMP JUMPDEST PUSH0 PUSH1 0x20 PUSH1 0x1F DUP4 ADD DIV SWAP1 POP SWAP2 SWAP1 POP JUMP JUMPDEST PUSH0 DUP3 DUP3 SHL SWAP1 POP SWAP3 SWAP2 POP POP JUMP JUMPDEST PUSH0 PUSH1 0x8 DUP4 MUL PUSH2 0x22E PUSH32 0xFFFFFFFFFFFFFFFFFFFFFFFFFFFFFFFFFFFFFFFFFFFFFFFFFFFFFFFFFFFFFFFF DUP3 PUSH2 0x1F3 JUMP JUMPDEST PUSH2 0x238 DUP7 DUP4 PUSH2 0x1F3 JUMP JUMPDEST SWAP6 POP DUP1 NOT DUP5 AND SWAP4 POP DUP1 DUP7 AND DUP5 OR SWAP3 POP POP POP SWAP4 SWAP3 POP POP POP JUMP JUMPDEST PUSH0 DUP2 SWAP1 POP SWAP2 SWAP1 POP JUMP JUMPDEST PUSH0 DUP2 SWAP1 POP SWAP2 SWAP1 POP JUMP JUMPDEST PUSH0 PUSH2 0x27C PUSH2 0x277 PUSH2 0x272 DUP5 PUSH2 0x250 JUMP JUMPDEST PUSH2 0x259 JUMP JUMPDEST PUSH2 0x250 JUMP JUMPDEST SWAP1 POP SWAP2 SWAP1 POP JUMP JUMPDEST PUSH0 DUP2 SWAP1 POP SWAP2 SWAP1 POP JUMP JUMPDEST PUSH2 0x295 DUP4 PUSH2 0x262 JUMP JUMPDEST PUSH2 0x2A9 PUSH2 0x2A1 DUP3 PUSH2 0x283 JUMP JUMPDEST DUP5 DUP5 SLOAD PUSH2 0x1FF JUMP JUMPDEST DUP3 SSTORE POP POP POP POP JUMP JUMPDEST PUSH0 SWAP1 JUMP JUMPDEST PUSH2 0x2BD PUSH2 0x2B1 JUMP JUMPDEST PUSH2 0x2C8 DUP2 DUP5 DUP5 PUSH2 0x28C JUMP JUMPDEST POP POP POP JUMP JUMPDEST JUMPDEST DUP2 DUP2 LT ISZERO PUSH2 0x2EB JUMPI PUSH2 0x2E0 PUSH0 DUP3 PUSH2 0x2B5 JUMP JUMPDEST PUSH1 0x1 DUP2 ADD SWAP1 POP PUSH2 0x2CE JUMP JUMPDEST POP POP JUMP JUMPDEST PUSH1 0x1F DUP3 GT ISZERO PUSH2 0x330 JUMPI PUSH2 0x301 DUP2 PUSH2 0x1D2 JUMP JUMPDEST PUSH2 0x30A DUP5 PUSH2 0x1E4 JUMP JUMPDEST DUP2 ADD PUSH1 0x20 DUP6 LT ISZERO PUSH2 0x319 JUMPI DUP2 SWAP1 POP JUMPDEST PUSH2 0x32D PUSH2 0x325 DUP6 PUSH2 0x1E4 JUMP JUMPDEST DUP4 ADD DUP3 PUSH2 0x2CD JUMP JUMPDEST POP POP JUMPDEST POP POP POP JUMP JUMPDEST PUSH0 DUP3 DUP3 SHR SWAP1 POP SWAP3 SWAP2 POP POP JUMP JUMPDEST PUSH0 PUSH2 0x350 PUSH0 NOT DUP5 PUSH1 0x8 MUL PUSH2 0x335 JUMP JUMPDEST NOT DUP1 DUP4 AND SWAP2 POP POP SWAP3 SWAP2 POP POP JUMP JUMPDEST PUSH0 PUSH2 0x368 DUP4 DUP4 PUSH2 0x341 JUMP JUMPDEST SWAP2 POP DUP3 PUSH1 0x2 MUL DUP3 OR SWAP1 POP SWAP3 SWAP2 POP POP JUMP JUMPDEST PUSH2 0x381 DUP3 PUSH2 0x13E JUMP JUMPDEST PUSH8 0xFFFFFFFFFFFFFFFF DUP2 GT ISZERO PUSH2 0x39A JUMPI PUSH2 0x399 PUSH2 0x148 JUMP JUMPDEST JUMPDEST PUSH2 0x3A4 DUP3 SLOAD PUSH2 0x1A2 JUMP JUMPDEST PUSH2 0x3AF DUP3 DUP3 DUP6 PUSH2 0x2EF JUMP JUMPDEST PUSH0 PUSH1 0x20 SWAP1 POP PUSH1 0x1F DUP4 GT PUSH1 0x1 DUP2 EQ PUSH2 0x3E0 JUMPI PUSH0 DUP5 ISZERO PUSH2 0x3CE JUMPI DUP3 DUP8 ADD MLOAD SWAP1 POP JUMPDEST PUSH2 0x3D8 DUP6 DUP3 PUSH2 0x35D JUMP JUMPDEST DUP7 SSTORE POP PUSH2 0x43F JUMP JUMPDEST PUSH1 0x1F NOT DUP5 AND PUSH2 0x3EE DUP7 PUSH2 0x1D2 JUMP JUMPDEST PUSH0 JUMPDEST DUP3 DUP2 LT ISZERO PUSH2 0x415 JUMPI DUP5 DUP10 ADD MLOAD DUP3 SSTORE PUSH1 0x1 DUP3 ADD SWAP2 POP PUSH1 0x20 DUP6 ADD SWAP5 POP PUSH1 0x20 DUP2 ADD SWAP1 POP PUSH2 0x3F0 JUMP JUMPDEST DUP7 DUP4 LT ISZERO PUSH2 0x432 JUMPI DUP5 DUP10 ADD MLOAD PUSH2 0x42E PUSH1 0x1F DUP10 AND DUP3 PUSH2 0x341 JUMP JUMPDEST DUP4 SSTORE POP JUMPDEST PUSH1 0x1 PUSH1 0x2 DUP9 MUL ADD DUP9 SSTORE POP POP POP JUMPDEST POP POP POP POP POP POP JUMP JUMPDEST PUSH0 DUP1 REVERT JUMPDEST PUSH2 0x454 DUP2 PUSH2 0x250 JUMP JUMPDEST DUP2 EQ PUSH2 0x45E JUMPI PUSH0 DUP1 REVERT JUMPDEST POP JUMP JUMPDEST PUSH0 DUP2 MLOAD SWAP1 POP PUSH2 0x46F DUP2 PUSH2 0x44B JUMP JUMPDEST SWAP3 SWAP2 POP POP JUMP JUMPDEST PUSH0 PUSH1 0x20 DUP3 DUP5 SUB SLT ISZERO PUSH2 0x48A JUMPI PUSH2 0x489 PUSH2 0x447 JUMP JUMPDEST JUMPDEST PUSH0 PUSH2 0x497 DUP5 DUP3 DUP6 ADD PUSH2 0x461 JUMP JUMPDEST SWAP2 POP POP SWAP3 SWAP2 POP POP JUMP JUMPDEST PUSH2 0x15CA DUP1 PUSH2 0x4AD PUSH0 CODECOPY PUSH0 RETURN INVALID PUSH1 0x80 PUSH1 0x40 MSTORE CALLVALUE DUP1 ISZERO PUSH2 0xF JUMPI PUSH0 DUP1 REVERT JUMPDEST POP PUSH1 0x4 CALLDATASIZE LT PUSH2 0x109 JUMPI PUSH0 CALLDATALOAD PUSH1 0xE0 SHR DUP1 PUSH4 0x3477EE2E GT PUSH2 0xA0 JUMPI DUP1 PUSH4 0x8DA5CB5B GT PUSH2 0x6F JUMPI DUP1 PUSH4 0x8DA5CB5B EQ PUSH2 0x2A3 JUMPI DUP1 PUSH4 0x9AB24EB0 EQ PUSH2 0x2C1 JUMPI DUP1 PUSH4 0x9D5A0529 EQ PUSH2 0x2F1 JUMPI DUP1 PUSH4 0xC3403DDF EQ PUSH2 0x30F JUMPI DUP1 PUSH4 0xF0DDA65C EQ PUSH2 0x319 JUMPI PUSH2 0x109 JUMP JUMPDEST DUP1 PUSH4 0x3477EE2E EQ PUSH2 0x21F JUMPI DUP1 PUSH4 0x3ACD75F8 EQ PUSH2 0x24F JUMPI DUP1 PUSH4 0x3D2F5BDA EQ PUSH2 0x26B JUMPI DUP1 PUSH4 0x5F74BBDE EQ PUSH2 0x287 JUMPI PUSH2 0x109 JUMP JUMPDEST DUP1 PUSH4 0x1EA736E0 GT PUSH2 0xDC JUMPI DUP1 PUSH4 0x1EA736E0 EQ PUSH2 0x183 JUMPI DUP1 PUSH4 0x2019A608 EQ PUSH2 0x1A1 JUMPI DUP1 PUSH4 0x23EF2746 EQ PUSH2 0x1BF JUMPI DUP1 PUSH4 0x27E235E3 EQ PUSH2 0x1EF JUMPI PUSH2 0x109 JUMP JUMPDEST DUP1 PUSH4 0x6A49FCE EQ PUSH2 0x10D JUMPI DUP1 PUSH4 0x6FDDE03 EQ PUSH2 0x12B JUMPI DUP1 PUSH4 0xD1118CE EQ PUSH2 0x149 JUMPI DUP1 PUSH4 0x18160DDD EQ PUSH2 0x165 JUMPI JUMPDEST PUSH0 DUP1 REVERT JUMPDEST PUSH2 0x115 PUSH2 0x335 JUMP JUMPDEST PUSH1 0x40 MLOAD PUSH2 0x122 SWAP2 SWAP1 PUSH2 0xFFA JUMP JUMPDEST PUSH1 0x40 MLOAD DUP1 SWAP2 SUB SWAP1 RETURN JUMPDEST PUSH2 0x133 PUSH2 0x3C0 JUMP JUMPDEST PUSH1 0x40 MLOAD PUSH2 0x140 SWAP2 SWAP1 PUSH2 0x108A JUMP JUMPDEST PUSH1 0x40 MLOAD DUP1 SWAP2 SUB SWAP1 RETURN JUMPDEST PUSH2 0x163 PUSH1 0x4 DUP1 CALLDATASIZE SUB DUP2 ADD SWAP1 PUSH2 0x15E SWAP2 SWAP1 PUSH2 0x110B JUMP JUMPDEST PUSH2 0x44B JUMP JUMPDEST STOP JUMPDEST PUSH2 0x16D PUSH2 0x617 JUMP JUMPDEST PUSH1 0x40 MLOAD PUSH2 0x17A SWAP2 SWAP1 PUSH2 0x1158 JUMP JUMPDEST PUSH1 0x40 MLOAD DUP1 SWAP2 SUB SWAP1 RETURN JUMPDEST PUSH2 0x18B PUSH2 0x61D JUMP JUMPDEST PUSH1 0x40 MLOAD PUSH2 0x198 SWAP2 SWAP1 PUSH2 0x1158 JUMP JUMPDEST PUSH1 0x40 MLOAD DUP1 SWAP2 SUB SWAP1 RETURN JUMPDEST PUSH2 0x1A9 PUSH2 0x623 JUMP JUMPDEST PUSH1 0x40 MLOAD PUSH2 0x1B6 SWAP2 SWAP1 PUSH2 0x1158 JUMP JUMPDEST PUSH1 0x40 MLOAD DUP1 SWAP2 SUB SWAP1 RETURN JUMPDEST PUSH2 0x1D9 PUSH1 0x4 DUP1 CALLDATASIZE SUB DUP2 ADD SWAP1 PUSH2 0x1D4 SWAP2 SWAP1 PUSH2 0x1171 JUMP JUMPDEST PUSH2 0x629 JUMP JUMPDEST PUSH1 0x40 MLOAD PUSH2 0x1E6 SWAP2 SWAP1 PUSH2 0x1158 JUMP JUMPDEST PUSH1 0x40 MLOAD DUP1 SWAP2 SUB SWAP1 RETURN JUMPDEST PUSH2 0x209 PUSH1 0x4 DUP1 CALLDATASIZE SUB DUP2 ADD SWAP1 PUSH2 0x204 SWAP2 SWAP1 PUSH2 0x1171 JUMP JUMPDEST PUSH2 0x63E JUMP JUMPDEST PUSH1 0x40 MLOAD PUSH2 0x216 SWAP2 SWAP1 PUSH2 0x1158 JUMP JUMPDEST PUSH1 0x40 MLOAD DUP1 SWAP2 SUB SWAP1 RETURN JUMPDEST PUSH2 0x239 PUSH1 0x4 DUP1 CALLDATASIZE SUB DUP2 ADD SWAP1 PUSH2 0x234 SWAP2 SWAP1 PUSH2 0x119C JUMP JUMPDEST PUSH2 0x653 JUMP JUMPDEST PUSH1 0x40 MLOAD PUSH2 0x246 SWAP2 SWAP1 PUSH2 0x11D6 JUMP JUMPDEST PUSH1 0x40 MLOAD DUP1 SWAP2 SUB SWAP1 RETURN JUMPDEST PUSH2 0x269 PUSH1 0x4 DUP1 CALLDATASIZE SUB DUP2 ADD SWAP1 PUSH2 0x264 SWAP2 SWAP1 PUSH2 0x1171 JUMP JUMPDEST PUSH2 0x68E JUMP JUMPDEST STOP JUMPDEST PUSH2 0x285 PUSH1 0x4 DUP1 CALLDATASIZE SUB DUP2 ADD SWAP1 PUSH2 0x280 SWAP2 SWAP1 PUSH2 0x119C JUMP JUMPDEST PUSH2 0x812 JUMP JUMPDEST STOP JUMPDEST PUSH2 0x2A1 PUSH1 0x4 DUP1 CALLDATASIZE SUB DUP2 ADD SWAP1 PUSH2 0x29C SWAP2 SWAP1 PUSH2 0x110B JUMP JUMPDEST PUSH2 0x949 JUMP JUMPDEST STOP JUMPDEST PUSH2 0x2AB PUSH2 0xB73 JUMP JUMPDEST PUSH1 0x40 MLOAD PUSH2 0x2B8 SWAP2 SWAP1 PUSH2 0x11D6 JUMP JUMPDEST PUSH1 0x40 MLOAD DUP1 SWAP2 SUB SWAP1 RETURN JUMPDEST PUSH2 0x2DB PUSH1 0x4 DUP1 CALLDATASIZE SUB DUP2 ADD SWAP1 PUSH2 0x2D6 SWAP2 SWAP1 PUSH2 0x1171 JUMP JUMPDEST PUSH2 0xB98 JUMP JUMPDEST PUSH1 0x40 MLOAD PUSH2 0x2E8 SWAP2 SWAP1 PUSH2 0x1158 JUMP JUMPDEST PUSH1 0x40 MLOAD DUP1 SWAP2 SUB SWAP1 RETURN JUMPDEST PUSH2 0x2F9 PUSH2 0xBDE JUMP JUMPDEST PUSH1 0x40 MLOAD PUSH2 0x306 SWAP2 SWAP1 PUSH2 0x1209 JUMP JUMPDEST PUSH1 0x40 MLOAD DUP1 SWAP2 SUB SWAP1 RETURN JUMPDEST PUSH2 0x317 PUSH2 0xBF0 JUMP JUMPDEST STOP JUMPDEST PUSH2 0x333 PUSH1 0x4 DUP1 CALLDATASIZE SUB DUP2 ADD SWAP1 PUSH2 0x32E SWAP2 SWAP1 PUSH2 0x110B JUMP JUMPDEST PUSH2 0xD25 JUMP JUMPDEST STOP JUMPDEST PUSH1 0x60 PUSH1 0x8 DUP1 SLOAD DUP1 PUSH1 0x20 MUL PUSH1 0x20 ADD PUSH1 0x40 MLOAD SWAP1 DUP2 ADD PUSH1 0x40 MSTORE DUP1 SWAP3 SWAP2 SWAP1 DUP2 DUP2 MSTORE PUSH1 0x20 ADD DUP3 DUP1 SLOAD DUP1 ISZERO PUSH2 0x3B6 JUMPI PUSH1 0x20 MUL DUP3 ADD SWAP2 SWAP1 PUSH0 MSTORE PUSH1 0x20 PUSH0 KECCAK256 SWAP1 JUMPDEST DUP2 PUSH0 SWAP1 SLOAD SWAP1 PUSH2 0x100 EXP SWAP1 DIV PUSH20 0xFFFFFFFFFFFFFFFFFFFFFFFFFFFFFFFFFFFFFFFF AND PUSH20 0xFFFFFFFFFFFFFFFFFFFFFFFFFFFFFFFFFFFFFFFF AND DUP2 MSTORE PUSH1 0x20 ADD SWAP1 PUSH1 0x1 ADD SWAP1 DUP1 DUP4 GT PUSH2 0x36D JUMPI JUMPDEST POP POP POP POP POP SWAP1 POP SWAP1 JUMP JUMPDEST PUSH0 DUP1 SLOAD PUSH2 0x3CC SWAP1 PUSH2 0x124F JUMP JUMPDEST DUP1 PUSH1 0x1F ADD PUSH1 0x20 DUP1 SWAP2 DIV MUL PUSH1 0x20 ADD PUSH1 0x40 MLOAD SWAP1 DUP2 ADD PUSH1 0x40 MSTORE DUP1 SWAP3 SWAP2 SWAP1 DUP2 DUP2 MSTORE PUSH1 0x20 ADD DUP3 DUP1 SLOAD PUSH2 0x3F8 SWAP1 PUSH2 0x124F JUMP JUMPDEST DUP1 ISZERO PUSH2 0x443 JUMPI DUP1 PUSH1 0x1F LT PUSH2 0x41A JUMPI PUSH2 0x100 DUP1 DUP4 SLOAD DIV MUL DUP4 MSTORE SWAP2 PUSH1 0x20 ADD SWAP2 PUSH2 0x443 JUMP JUMPDEST DUP3 ADD SWAP2 SWAP1 PUSH0 MSTORE PUSH1 0x20 PUSH0 KECCAK256 SWAP1 JUMPDEST DUP2 SLOAD DUP2 MSTORE SWAP1 PUSH1 0x1 ADD SWAP1 PUSH1 0x20 ADD DUP1 DUP4 GT PUSH2 0x426 JUMPI DUP3 SWAP1 SUB PUSH1 0x1F AND DUP3 ADD SWAP2 JUMPDEST POP POP POP POP POP DUP2 JUMP JUMPDEST PUSH1 0x2 PUSH0 SWAP1 SLOAD SWAP1 PUSH2 0x100 EXP SWAP1 DIV PUSH20 0xFFFFFFFFFFFFFFFFFFFFFFFFFFFFFFFFFFFFFFFF AND PUSH20 0xFFFFFFFFFFFFFFFFFFFFFFFFFFFFFFFFFFFFFFFF AND CALLER PUSH20 0xFFFFFFFFFFFFFFFFFFFFFFFFFFFFFFFFFFFFFFFF AND EQ PUSH2 0x4DA JUMPI PUSH1 0x40 MLOAD PUSH32 0x8C379A000000000000000000000000000000000000000000000000000000000 DUP2 MSTORE PUSH1 0x4 ADD PUSH2 0x4D1 SWAP1 PUSH2 0x12EF JUMP JUMPDEST PUSH1 0x40 MLOAD DUP1 SWAP2 SUB SWAP1 REVERT JUMPDEST DUP1 PUSH1 0x6 PUSH0 DUP5 PUSH20 0xFFFFFFFFFFFFFFFFFFFFFFFFFFFFFFFFFFFFFFFF AND PUSH20 0xFFFFFFFFFFFFFFFFFFFFFFFFFFFFFFFFFFFFFFFF AND DUP2 MSTORE PUSH1 0x20 ADD SWAP1 DUP2 MSTORE PUSH1 0x20 ADD PUSH0 KECCAK256 SLOAD LT ISZERO PUSH2 0x55A JUMPI PUSH1 0x40 MLOAD PUSH32 0x8C379A000000000000000000000000000000000000000000000000000000000 DUP2 MSTORE PUSH1 0x4 ADD PUSH2 0x551 SWAP1 PUSH2 0x1357 JUMP JUMPDEST PUSH1 0x40 MLOAD DUP1 SWAP2 SUB SWAP1 REVERT JUMPDEST DUP1 PUSH1 0x1 PUSH0 DUP3 DUP3 SLOAD PUSH2 0x56B SWAP2 SWAP1 PUSH2 0x13A2 JUMP JUMPDEST SWAP3 POP POP DUP2 SWAP1 SSTORE POP DUP1 PUSH1 0x6 PUSH0 DUP5 PUSH20 0xFFFFFFFFFFFFFFFFFFFFFFFFFFFFFFFFFFFFFFFF AND PUSH20 0xFFFFFFFFFFFFFFFFFFFFFFFFFFFFFFFFFFFFFFFF AND DUP2 MSTORE PUSH1 0x20 ADD SWAP1 DUP2 MSTORE PUSH1 0x20 ADD PUSH0 KECCAK256 PUSH0 DUP3 DUP3 SLOAD PUSH2 0x5BE SWAP2 SWAP1 PUSH2 0x13A2 JUMP JUMPDEST SWAP3 POP POP DUP2 SWAP1 SSTORE POP DUP2 PUSH20 0xFFFFFFFFFFFFFFFFFFFFFFFFFFFFFFFFFFFFFFFF AND PUSH32 0xFD38818F5291BF0BB3A2A48AADC06BA8757865D1DABD804585338AAB3009DCB6 DUP3 PUSH1 0x40 MLOAD PUSH2 0x60B SWAP2 SWAP1 PUSH2 0x1158 JUMP JUMPDEST PUSH1 0x40 MLOAD DUP1 SWAP2 SUB SWAP1 LOG2 POP POP JUMP JUMPDEST PUSH1 0x1 SLOAD DUP2 JUMP JUMPDEST PUSH1 0x4 SLOAD DUP2 JUMP JUMPDEST PUSH1 0x3 SLOAD DUP2 JUMP JUMPDEST PUSH1 0x7 PUSH1 0x20 MSTORE DUP1 PUSH0 MSTORE PUSH1 0x40 PUSH0 KECCAK256 PUSH0 SWAP2 POP SWAP1 POP SLOAD DUP2 JUMP JUMPDEST PUSH1 0x6 PUSH1 0x20 MSTORE DUP1 PUSH0 MSTORE PUSH1 0x40 PUSH0 KECCAK256 PUSH0 SWAP2 POP SWAP1 POP SLOAD DUP2 JUMP JUMPDEST PUSH1 0x8 DUP2 DUP2 SLOAD DUP2 LT PUSH2 0x662 JUMPI PUSH0 DUP1 REVERT JUMPDEST SWAP1 PUSH0 MSTORE PUSH1 0x20 PUSH0 KECCAK256 ADD PUSH0 SWAP2 POP SLOAD SWAP1 PUSH2 0x100 EXP SWAP1 DIV PUSH20 0xFFFFFFFFFFFFFFFFFFFFFFFFFFFFFFFFFFFFFFFF AND DUP2 JUMP JUMPDEST PUSH1 0x2 PUSH0 SWAP1 SLOAD SWAP1 PUSH2 0x100 EXP SWAP1 DIV PUSH20 0xFFFFFFFFFFFFFFFFFFFFFFFFFFFFFFFFFFFFFFFF AND PUSH20 0xFFFFFFFFFFFFFFFFFFFFFFFFFFFFFFFFFFFFFFFF AND CALLER PUSH20 0xFFFFFFFFFFFFFFFFFFFFFFFFFFFFFFFFFFFFFFFF AND EQ PUSH2 0x71D JUMPI PUSH1 0x40 MLOAD PUSH32 0x8C379A000000000000000000000000000000000000000000000000000000000 DUP2 MSTORE PUSH1 0x4 ADD PUSH2 0x714 SWAP1 PUSH2 0x12EF JUMP JUMPDEST PUSH1 0x40 MLOAD DUP1 SWAP2 SUB SWAP1 REVERT JUMPDEST PUSH1 0x5 PUSH0 SWAP1 SLOAD SWAP1 PUSH2 0x100 EXP SWAP1 DIV PUSH1 0xFF AND ISZERO PUSH2 0x76C JUMPI PUSH1 0x40 MLOAD PUSH32 0x8C379A000000000000000000000000000000000000000000000000000000000 DUP2 MSTORE PUSH1 0x4 ADD PUSH2 0x763 SWAP1 PUSH2 0x141F JUMP JUMPDEST PUSH1 0x40 MLOAD DUP1 SWAP2 SUB SWAP1 REVERT JUMPDEST PUSH1 0x8 DUP2 SWAP1 DUP1 PUSH1 0x1 DUP2 SLOAD ADD DUP1 DUP3 SSTORE DUP1 SWAP2 POP POP PUSH1 0x1 SWAP1 SUB SWAP1 PUSH0 MSTORE PUSH1 0x20 PUSH0 KECCAK256 ADD PUSH0 SWAP1 SWAP2 SWAP1 SWAP2 SWAP1 SWAP2 PUSH2 0x100 EXP DUP2 SLOAD DUP2 PUSH20 0xFFFFFFFFFFFFFFFFFFFFFFFFFFFFFFFFFFFFFFFF MUL NOT AND SWAP1 DUP4 PUSH20 0xFFFFFFFFFFFFFFFFFFFFFFFFFFFFFFFFFFFFFFFF AND MUL OR SWAP1 SSTORE POP DUP1 PUSH20 0xFFFFFFFFFFFFFFFFFFFFFFFFFFFFFFFFFFFFFFFF AND PUSH32 0xAA38BE308BDFFE126C2B6BE720070355EB22E0EFC549AC39221B1CE71642ED40 PUSH1 0x40 MLOAD PUSH1 0x40 MLOAD DUP1 SWAP2 SUB SWAP1 LOG2 POP JUMP JUMPDEST PUSH1 0x2 PUSH0 SWAP1 SLOAD SWAP1 PUSH2 0x100 EXP SWAP1 DIV PUSH20 0xFFFFFFFFFFFFFFFFFFFFFFFFFFFFFFFFFFFFFFFF AND PUSH20 0xFFFFFFFFFFFFFFFFFFFFFFFFFFFFFFFFFFFFFFFF AND CALLER PUSH20 0xFFFFFFFFFFFFFFFFFFFFFFFFFFFFFFFFFFFFFFFF AND EQ PUSH2 0x8A1 JUMPI PUSH1 0x40 MLOAD PUSH32 0x8C379A000000000000000000000000000000000000000000000000000000000 DUP2 MSTORE PUSH1 0x4 ADD PUSH2 0x898 SWAP1 PUSH2 0x12EF JUMP JUMPDEST PUSH1 0x40 MLOAD DUP1 SWAP2 SUB SWAP1 REVERT JUMPDEST PUSH1 0x5 PUSH0 SWAP1 SLOAD SWAP1 PUSH2 0x100 EXP SWAP1 DIV PUSH1 0xFF AND ISZERO PUSH2 0x8F0 JUMPI PUSH1 0x40 MLOAD PUSH32 0x8C379A000000000000000000000000000000000000000000000000000000000 DUP2 MSTORE PUSH1 0x4 ADD PUSH2 0x8E7 SWAP1 PUSH2 0x141F JUMP JUMPDEST PUSH1 0x40 MLOAD DUP1 SWAP2 SUB SWAP1 REVERT JUMPDEST TIMESTAMP PUSH1 0x3 DUP2 SWAP1 SSTORE POP DUP1 TIMESTAMP PUSH2 0x903 SWAP2 SWAP1 PUSH2 0x143D JUMP JUMPDEST PUSH1 0x4 DUP2 SWAP1 SSTORE POP PUSH32 0xF8C022056754DBACCA05AFF710DC315A2FA7699AE9309FDA403CD1E55C11D40F PUSH1 0x3 SLOAD PUSH1 0x4 SLOAD PUSH1 0x40 MLOAD PUSH2 0x93E SWAP3 SWAP2 SWAP1 PUSH2 0x1470 JUMP JUMPDEST PUSH1 0x40 MLOAD DUP1 SWAP2 SUB SWAP1 LOG1 POP JUMP JUMPDEST PUSH1 0x3 SLOAD TIMESTAMP LT ISZERO DUP1 ISZERO PUSH2 0x95D JUMPI POP PUSH1 0x4 SLOAD TIMESTAMP GT ISZERO JUMPDEST PUSH2 0x99C JUMPI PUSH1 0x40 MLOAD PUSH32 0x8C379A000000000000000000000000000000000000000000000000000000000 DUP2 MSTORE PUSH1 0x4 ADD PUSH2 0x993 SWAP1 PUSH2 0x14E1 JUMP JUMPDEST PUSH1 0x40 MLOAD DUP1 SWAP2 SUB SWAP1 REVERT JUMPDEST DUP1 PUSH1 0x6 PUSH0 CALLER PUSH20 0xFFFFFFFFFFFFFFFFFFFFFFFFFFFFFFFFFFFFFFFF AND PUSH20 0xFFFFFFFFFFFFFFFFFFFFFFFFFFFFFFFFFFFFFFFF AND DUP2 MSTORE PUSH1 0x20 ADD SWAP1 DUP2 MSTORE PUSH1 0x20 ADD PUSH0 KECCAK256 SLOAD LT ISZERO PUSH2 0xA1C JUMPI PUSH1 0x40 MLOAD PUSH32 0x8C379A000000000000000000000000000000000000000000000000000000000 DUP2 MSTORE PUSH1 0x4 ADD PUSH2 0xA13 SWAP1 PUSH2 0x1357 JUMP JUMPDEST PUSH1 0x40 MLOAD DUP1 SWAP2 SUB SWAP1 REVERT JUMPDEST PUSH2 0xA25 DUP3 PUSH2 0xE71 JUMP JUMPDEST PUSH2 0xA64 JUMPI PUSH1 0x40 MLOAD PUSH32 0x8C379A000000000000000000000000000000000000000000000000000000000 DUP2 MSTORE PUSH1 0x4 ADD PUSH2 0xA5B SWAP1 PUSH2 0x1549 JUMP JUMPDEST PUSH1 0x40 MLOAD DUP1 SWAP2 SUB SWAP1 REVERT JUMPDEST DUP1 PUSH1 0x6 PUSH0 CALLER PUSH20 0xFFFFFFFFFFFFFFFFFFFFFFFFFFFFFFFFFFFFFFFF AND PUSH20 0xFFFFFFFFFFFFFFFFFFFFFFFFFFFFFFFFFFFFFFFF AND DUP2 MSTORE PUSH1 0x20 ADD SWAP1 DUP2 MSTORE PUSH1 0x20 ADD PUSH0 KECCAK256 PUSH0 DUP3 DUP3 SLOAD PUSH2 0xAB0 SWAP2 SWAP1 PUSH2 0x13A2 JUMP JUMPDEST SWAP3 POP POP DUP2 SWAP1 SSTORE POP DUP1 PUSH1 0x7 PUSH0 DUP5 PUSH20 0xFFFFFFFFFFFFFFFFFFFFFFFFFFFFFFFFFFFFFFFF AND PUSH20 0xFFFFFFFFFFFFFFFFFFFFFFFFFFFFFFFFFFFFFFFF AND DUP2 MSTORE PUSH1 0x20 ADD SWAP1 DUP2 MSTORE PUSH1 0x20 ADD PUSH0 KECCAK256 PUSH0 DUP3 DUP3 SLOAD PUSH2 0xB03 SWAP2 SWAP1 PUSH2 0x143D JUMP JUMPDEST SWAP3 POP POP DUP2 SWAP1 SSTORE POP DUP2 PUSH20 0xFFFFFFFFFFFFFFFFFFFFFFFFFFFFFFFFFFFFFFFF AND CALLER PUSH20 0xFFFFFFFFFFFFFFFFFFFFFFFFFFFFFFFFFFFFFFFF AND PUSH32 0x174BA19BA3C8BB5C679C87E51DB79FFF7C3F04BB84C1FD55B7DACB470B674AA6 DUP4 PUSH1 0x40 MLOAD PUSH2 0xB67 SWAP2 SWAP1 PUSH2 0x1158 JUMP JUMPDEST PUSH1 0x40 MLOAD DUP1 SWAP2 SUB SWAP1 LOG3 POP POP JUMP JUMPDEST PUSH1 0x2 PUSH0 SWAP1 SLOAD SWAP1 PUSH2 0x100 EXP SWAP1 DIV PUSH20 0xFFFFFFFFFFFFFFFFFFFFFFFFFFFFFFFFFFFFFFFF AND DUP2 JUMP JUMPDEST PUSH0 PUSH1 0x7 PUSH0 DUP4 PUSH20 0xFFFFFFFFFFFFFFFFFFFFFFFFFFFFFFFFFFFFFFFF AND PUSH20 0xFFFFFFFFFFFFFFFFFFFFFFFFFFFFFFFFFFFFFFFF AND DUP2 MSTORE PUSH1 0x20 ADD SWAP1 DUP2 MSTORE PUSH1 0x20 ADD PUSH0 KECCAK256 SLOAD SWAP1 POP SWAP2 SWAP1 POP JUMP JUMPDEST PUSH1 0x5 PUSH0 SWAP1 SLOAD SWAP1 PUSH2 0x100 EXP SWAP1 DIV PUSH1 0xFF AND DUP2 JUMP JUMPDEST PUSH1 0x2 PUSH0 SWAP1 SLOAD SWAP1 PUSH2 0x100 EXP SWAP1 DIV PUSH20 0xFFFFFFFFFFFFFFFFFFFFFFFFFFFFFFFFFFFFFFFF AND PUSH20 0xFFFFFFFFFFFFFFFFFFFFFFFFFFFFFFFFFFFFFFFF AND CALLER PUSH20 0xFFFFFFFFFFFFFFFFFFFFFFFFFFFFFFFFFFFFFFFF AND EQ PUSH2 0xC7F JUMPI PUSH1 0x40 MLOAD PUSH32 0x8C379A000000000000000000000000000000000000000000000000000000000 DUP2 MSTORE PUSH1 0x4 ADD PUSH2 0xC76 SWAP1 PUSH2 0x12EF JUMP JUMPDEST PUSH1 0x40 MLOAD DUP1 SWAP2 SUB SWAP1 REVERT JUMPDEST PUSH1 0x3 SLOAD TIMESTAMP LT ISZERO DUP1 ISZERO PUSH2 0xC93 JUMPI POP PUSH1 0x4 SLOAD TIMESTAMP GT ISZERO JUMPDEST PUSH2 0xCD2 JUMPI PUSH1 0x40 MLOAD PUSH32 0x8C379A000000000000000000000000000000000000000000000000000000000 DUP2 MSTORE PUSH1 0x4 ADD PUSH2 0xCC9 SWAP1 PUSH2 0x14E1 JUMP JUMPDEST PUSH1 0x40 MLOAD DUP1 SWAP2 SUB SWAP1 REVERT JUMPDEST PUSH1 0x1 PUSH1 0x5 PUSH0 PUSH2 0x100 EXP DUP2 SLOAD DUP2 PUSH1 0xFF MUL NOT AND SWAP1 DUP4 ISZERO ISZERO MUL OR SWAP1 SSTORE POP PUSH32 0x81EB7415440FF8E6C8E92606FD3B0E5E6A5C99EA90CDB63B41AEC54E897312B3 TIMESTAMP PUSH1 0x40 MLOAD PUSH2 0xD1B SWAP2 SWAP1 PUSH2 0x1158 JUMP JUMPDEST PUSH1 0x40 MLOAD DUP1 SWAP2 SUB SWAP1 LOG1 JUMP JUMPDEST PUSH1 0x2 PUSH0 SWAP1 SLOAD SWAP1 PUSH2 0x100 EXP SWAP1 DIV PUSH20 0xFFFFFFFFFFFFFFFFFFFFFFFFFFFFFFFFFFFFFFFF AND PUSH20 0xFFFFFFFFFFFFFFFFFFFFFFFFFFFFFFFFFFFFFFFF AND CALLER PUSH20 0xFFFFFFFFFFFFFFFFFFFFFFFFFFFFFFFFFFFFFFFF AND EQ PUSH2 0xDB4 JUMPI PUSH1 0x40 MLOAD PUSH32 0x8C379A000000000000000000000000000000000000000000000000000000000 DUP2 MSTORE PUSH1 0x4 ADD PUSH2 0xDAB SWAP1 PUSH2 0x12EF JUMP JUMPDEST PUSH1 0x40 MLOAD DUP1 SWAP2 SUB SWAP1 REVERT JUMPDEST DUP1 PUSH1 0x1 PUSH0 DUP3 DUP3 SLOAD PUSH2 0xDC5 SWAP2 SWAP1 PUSH2 0x143D JUMP JUMPDEST SWAP3 POP POP DUP2 SWAP1 SSTORE POP DUP1 PUSH1 0x6 PUSH0 DUP5 PUSH20 0xFFFFFFFFFFFFFFFFFFFFFFFFFFFFFFFFFFFFFFFF AND PUSH20 0xFFFFFFFFFFFFFFFFFFFFFFFFFFFFFFFFFFFFFFFF AND DUP2 MSTORE PUSH1 0x20 ADD SWAP1 DUP2 MSTORE PUSH1 0x20 ADD PUSH0 KECCAK256 PUSH0 DUP3 DUP3 SLOAD PUSH2 0xE18 SWAP2 SWAP1 PUSH2 0x143D JUMP JUMPDEST SWAP3 POP POP DUP2 SWAP1 SSTORE POP DUP2 PUSH20 0xFFFFFFFFFFFFFFFFFFFFFFFFFFFFFFFFFFFFFFFF AND PUSH32 0x3F2C9D57C068687834F0DE942A9BABB9E5ACAB57D516D3480A3C16EE165A4273 DUP3 PUSH1 0x40 MLOAD PUSH2 0xE65 SWAP2 SWAP1 PUSH2 0x1158 JUMP JUMPDEST PUSH1 0x40 MLOAD DUP1 SWAP2 SUB SWAP1 LOG2 POP POP JUMP JUMPDEST PUSH0 DUP1 PUSH0 SWAP1 POP JUMPDEST PUSH1 0x8 DUP1 SLOAD SWAP1 POP DUP2 LT ISZERO PUSH2 0xF09 JUMPI DUP3 PUSH20 0xFFFFFFFFFFFFFFFFFFFFFFFFFFFFFFFFFFFFFFFF AND PUSH1 0x8 DUP3 DUP2 SLOAD DUP2 LT PUSH2 0xEAF JUMPI PUSH2 0xEAE PUSH2 0x1567 JUMP JUMPDEST JUMPDEST SWAP1 PUSH0 MSTORE PUSH1 0x20 PUSH0 KECCAK256 ADD PUSH0 SWAP1 SLOAD SWAP1 PUSH2 0x100 EXP SWAP1 DIV PUSH20 0xFFFFFFFFFFFFFFFFFFFFFFFFFFFFFFFFFFFFFFFF AND PUSH20 0xFFFFFFFFFFFFFFFFFFFFFFFFFFFFFFFFFFFFFFFF AND SUB PUSH2 0xEFC JUMPI PUSH1 0x1 SWAP2 POP POP PUSH2 0xF0E JUMP JUMPDEST DUP1 DUP1 PUSH1 0x1 ADD SWAP2 POP POP PUSH2 0xE77 JUMP JUMPDEST POP PUSH0 SWAP1 POP JUMPDEST SWAP2 SWAP1 POP JUMP JUMPDEST PUSH0 DUP2 MLOAD SWAP1 POP SWAP2 SWAP1 POP JUMP JUMPDEST PUSH0 DUP3 DUP3 MSTORE PUSH1 0x20 DUP3 ADD SWAP1 POP SWAP3 SWAP2 POP POP JUMP JUMPDEST PUSH0 DUP2 SWAP1 POP PUSH1 0x20 DUP3 ADD SWAP1 POP SWAP2 SWAP1 POP JUMP JUMPDEST PUSH0 PUSH20 0xFFFFFFFFFFFFFFFFFFFFFFFFFFFFFFFFFFFFFFFF DUP3 AND SWAP1 POP SWAP2 SWAP1 POP JUMP JUMPDEST PUSH0 PUSH2 0xF65 DUP3 PUSH2 0xF3C JUMP JUMPDEST SWAP1 POP SWAP2 SWAP1 POP JUMP JUMPDEST PUSH2 0xF75 DUP2 PUSH2 0xF5B JUMP JUMPDEST DUP3 MSTORE POP POP JUMP JUMPDEST PUSH0 PUSH2 0xF86 DUP4 DUP4 PUSH2 0xF6C JUMP JUMPDEST PUSH1 0x20 DUP4 ADD SWAP1 POP SWAP3 SWAP2 POP POP JUMP JUMPDEST PUSH0 PUSH1 0x20 DUP3 ADD SWAP1 POP SWAP2 SWAP1 POP JUMP JUMPDEST PUSH0 PUSH2 0xFA8 DUP3 PUSH2 0xF13 JUMP JUMPDEST PUSH2 0xFB2 DUP2 DUP6 PUSH2 0xF1D JUMP JUMPDEST SWAP4 POP PUSH2 0xFBD DUP4 PUSH2 0xF2D JUMP JUMPDEST DUP1 PUSH0 JUMPDEST DUP4 DUP2 LT ISZERO PUSH2 0xFED JUMPI DUP2 MLOAD PUSH2 0xFD4 DUP9 DUP3 PUSH2 0xF7B JUMP JUMPDEST SWAP8 POP PUSH2 0xFDF DUP4 PUSH2 0xF92 JUMP JUMPDEST SWAP3 POP POP PUSH1 0x1 DUP2 ADD SWAP1 POP PUSH2 0xFC0 JUMP JUMPDEST POP DUP6 SWAP4 POP POP POP POP SWAP3 SWAP2 POP POP JUMP JUMPDEST PUSH0 PUSH1 0x20 DUP3 ADD SWAP1 POP DUP2 DUP2 SUB PUSH0 DUP4 ADD MSTORE PUSH2 0x1012 DUP2 DUP5 PUSH2 0xF9E JUMP JUMPDEST SWAP1 POP SWAP3 SWAP2 POP POP JUMP JUMPDEST PUSH0 DUP2 MLOAD SWAP1 POP SWAP2 SWAP1 POP JUMP JUMPDEST PUSH0 DUP3 DUP3 MSTORE PUSH1 0x20 DUP3 ADD SWAP1 POP SWAP3 SWAP2 POP POP JUMP JUMPDEST DUP3 DUP2 DUP4 MCOPY PUSH0 DUP4 DUP4 ADD MSTORE POP POP POP JUMP JUMPDEST PUSH0 PUSH1 0x1F NOT PUSH1 0x1F DUP4 ADD AND SWAP1 POP SWAP2 SWAP1 POP JUMP JUMPDEST PUSH0 PUSH2 0x105C DUP3 PUSH2 0x101A JUMP JUMPDEST PUSH2 0x1066 DUP2 DUP6 PUSH2 0x1024 JUMP JUMPDEST SWAP4 POP PUSH2 0x1076 DUP2 DUP6 PUSH1 0x20 DUP7 ADD PUSH2 0x1034 JUMP JUMPDEST PUSH2 0x107F DUP2 PUSH2 0x1042 JUMP JUMPDEST DUP5 ADD SWAP2 POP POP SWAP3 SWAP2 POP POP JUMP JUMPDEST PUSH0 PUSH1 0x20 DUP3 ADD SWAP1 POP DUP2 DUP2 SUB PUSH0 DUP4 ADD MSTORE PUSH2 0x10A2 DUP2 DUP5 PUSH2 0x1052 JUMP JUMPDEST SWAP1 POP SWAP3 SWAP2 POP POP JUMP JUMPDEST PUSH0 DUP1 REVERT JUMPDEST PUSH2 0x10B7 DUP2 PUSH2 0xF5B JUMP JUMPDEST DUP2 EQ PUSH2 0x10C1 JUMPI PUSH0 DUP1 REVERT JUMPDEST POP JUMP JUMPDEST PUSH0 DUP2 CALLDATALOAD SWAP1 POP PUSH2 0x10D2 DUP2 PUSH2 0x10AE JUMP JUMPDEST SWAP3 SWAP2 POP POP JUMP JUMPDEST PUSH0 DUP2 SWAP1 POP SWAP2 SWAP1 POP JUMP JUMPDEST PUSH2 0x10EA DUP2 PUSH2 0x10D8 JUMP JUMPDEST DUP2 EQ PUSH2 0x10F4 JUMPI PUSH0 DUP1 REVERT JUMPDEST POP JUMP JUMPDEST PUSH0 DUP2 CALLDATALOAD SWAP1 POP PUSH2 0x1105 DUP2 PUSH2 0x10E1 JUMP JUMPDEST SWAP3 SWAP2 POP POP JUMP JUMPDEST PUSH0 DUP1 PUSH1 0x40 DUP4 DUP6 SUB SLT ISZERO PUSH2 0x1121 JUMPI PUSH2 0x1120 PUSH2 0x10AA JUMP JUMPDEST JUMPDEST PUSH0 PUSH2 0x112E DUP6 DUP3 DUP7 ADD PUSH2 0x10C4 JUMP JUMPDEST SWAP3 POP POP PUSH1 0x20 PUSH2 0x113F DUP6 DUP3 DUP7 ADD PUSH2 0x10F7 JUMP JUMPDEST SWAP2 POP POP SWAP3 POP SWAP3 SWAP1 POP JUMP JUMPDEST PUSH2 0x1152 DUP2 PUSH2 0x10D8 JUMP JUMPDEST DUP3 MSTORE POP POP JUMP JUMPDEST PUSH0 PUSH1 0x20 DUP3 ADD SWAP1 POP PUSH2 0x116B PUSH0 DUP4 ADD DUP5 PUSH2 0x1149 JUMP JUMPDEST SWAP3 SWAP2 POP POP JUMP JUMPDEST PUSH0 PUSH1 0x20 DUP3 DUP5 SUB SLT ISZERO PUSH2 0x1186 JUMPI PUSH2 0x1185 PUSH2 0x10AA JUMP JUMPDEST JUMPDEST PUSH0 PUSH2 0x1193 DUP5 DUP3 DUP6 ADD PUSH2 0x10C4 JUMP JUMPDEST SWAP2 POP POP SWAP3 SWAP2 POP POP JUMP JUMPDEST PUSH0 PUSH1 0x20 DUP3 DUP5 SUB SLT ISZERO PUSH2 0x11B1 JUMPI PUSH2 0x11B0 PUSH2 0x10AA JUMP JUMPDEST JUMPDEST PUSH0 PUSH2 0x11BE DUP5 DUP3 DUP6 ADD PUSH2 0x10F7 JUMP JUMPDEST SWAP2 POP POP SWAP3 SWAP2 POP POP JUMP JUMPDEST PUSH2 0x11D0 DUP2 PUSH2 0xF5B JUMP JUMPDEST DUP3 MSTORE POP POP JUMP JUMPDEST PUSH0 PUSH1 0x20 DUP3 ADD SWAP1 POP PUSH2 0x11E9 PUSH0 DUP4 ADD DUP5 PUSH2 0x11C7 JUMP JUMPDEST SWAP3 SWAP2 POP POP JUMP JUMPDEST PUSH0 DUP2 ISZERO ISZERO SWAP1 POP SWAP2 SWAP1 POP JUMP JUMPDEST PUSH2 0x1203 DUP2 PUSH2 0x11EF JUMP JUMPDEST DUP3 MSTORE POP POP JUMP JUMPDEST PUSH0 PUSH1 0x20 DUP3 ADD SWAP1 POP PUSH2 0x121C PUSH0 DUP4 ADD DUP5 PUSH2 0x11FA JUMP JUMPDEST SWAP3 SWAP2 POP POP JUMP JUMPDEST PUSH32 0x4E487B7100000000000000000000000000000000000000000000000000000000 PUSH0 MSTORE PUSH1 0x22 PUSH1 0x4 MSTORE PUSH1 0x24 PUSH0 REVERT JUMPDEST PUSH0 PUSH1 0x2 DUP3 DIV SWAP1 POP PUSH1 0x1 DUP3 AND DUP1 PUSH2 0x1266 JUMPI PUSH1 0x7F DUP3 AND SWAP2 POP JUMPDEST PUSH1 0x20 DUP3 LT DUP2 SUB PUSH2 0x1279 JUMPI PUSH2 0x1278 PUSH2 0x1222 JUMP JUMPDEST JUMPDEST POP SWAP2 SWAP1 POP JUMP JUMPDEST PUSH32 0x4F6E6C7920746865206F776E65722063616E2063616C6C20746869732066756E PUSH0 DUP3 ADD MSTORE PUSH32 0x6374696F6E000000000000000000000000000000000000000000000000000000 PUSH1 0x20 DUP3 ADD MSTORE POP JUMP JUMPDEST PUSH0 PUSH2 0x12D9 PUSH1 0x25 DUP4 PUSH2 0x1024 JUMP JUMPDEST SWAP2 POP PUSH2 0x12E4 DUP3 PUSH2 0x127F JUMP JUMPDEST PUSH1 0x40 DUP3 ADD SWAP1 POP SWAP2 SWAP1 POP JUMP JUMPDEST PUSH0 PUSH1 0x20 DUP3 ADD SWAP1 POP DUP2 DUP2 SUB PUSH0 DUP4 ADD MSTORE PUSH2 0x1306 DUP2 PUSH2 0x12CD JUMP JUMPDEST SWAP1 POP SWAP2 SWAP1 POP JUMP JUMPDEST PUSH32 0x496E73756666696369656E742062616C616E6365000000000000000000000000 PUSH0 DUP3 ADD MSTORE POP JUMP JUMPDEST PUSH0 PUSH2 0x1341 PUSH1 0x14 DUP4 PUSH2 0x1024 JUMP JUMPDEST SWAP2 POP PUSH2 0x134C DUP3 PUSH2 0x130D JUMP JUMPDEST PUSH1 0x20 DUP3 ADD SWAP1 POP SWAP2 SWAP1 POP JUMP JUMPDEST PUSH0 PUSH1 0x20 DUP3 ADD SWAP1 POP DUP2 DUP2 SUB PUSH0 DUP4 ADD MSTORE PUSH2 0x136E DUP2 PUSH2 0x1335 JUMP JUMPDEST SWAP1 POP SWAP2 SWAP1 POP JUMP JUMPDEST PUSH32 0x4E487B7100000000000000000000000000000000000000000000000000000000 PUSH0 MSTORE PUSH1 0x11 PUSH1 0x4 MSTORE PUSH1 0x24 PUSH0 REVERT JUMPDEST PUSH0 PUSH2 0x13AC DUP3 PUSH2 0x10D8 JUMP JUMPDEST SWAP2 POP PUSH2 0x13B7 DUP4 PUSH2 0x10D8 JUMP JUMPDEST SWAP3 POP DUP3 DUP3 SUB SWAP1 POP DUP2 DUP2 GT ISZERO PUSH2 0x13CF JUMPI PUSH2 0x13CE PUSH2 0x1375 JUMP JUMPDEST JUMPDEST SWAP3 SWAP2 POP POP JUMP JUMPDEST PUSH32 0x566F74696E672068617320656E64656400000000000000000000000000000000 PUSH0 DUP3 ADD MSTORE POP JUMP JUMPDEST PUSH0 PUSH2 0x1409 PUSH1 0x10 DUP4 PUSH2 0x1024 JUMP JUMPDEST SWAP2 POP PUSH2 0x1414 DUP3 PUSH2 0x13D5 JUMP JUMPDEST PUSH1 0x20 DUP3 ADD SWAP1 POP SWAP2 SWAP1 POP JUMP JUMPDEST PUSH0 PUSH1 0x20 DUP3 ADD SWAP1 POP DUP2 DUP2 SUB PUSH0 DUP4 ADD MSTORE PUSH2 0x1436 DUP2 PUSH2 0x13FD JUMP JUMPDEST SWAP1 POP SWAP2 SWAP1 POP JUMP JUMPDEST PUSH0 PUSH2 0x1447 DUP3 PUSH2 0x10D8 JUMP JUMPDEST SWAP2 POP PUSH2 0x1452 DUP4 PUSH2 0x10D8 JUMP JUMPDEST SWAP3 POP DUP3 DUP3 ADD SWAP1 POP DUP1 DUP3 GT ISZERO PUSH2 0x146A JUMPI PUSH2 0x1469 PUSH2 0x1375 JUMP JUMPDEST JUMPDEST SWAP3 SWAP2 POP POP JUMP JUMPDEST PUSH0 PUSH1 0x40 DUP3 ADD SWAP1 POP PUSH2 0x1483 PUSH0 DUP4 ADD DUP6 PUSH2 0x1149 JUMP JUMPDEST PUSH2 0x1490 PUSH1 0x20 DUP4 ADD DUP5 PUSH2 0x1149 JUMP JUMPDEST SWAP4 SWAP3 POP POP POP JUMP JUMPDEST PUSH32 0x566F74696E67206973206E6F7420616374697665000000000000000000000000 PUSH0 DUP3 ADD MSTORE POP JUMP JUMPDEST PUSH0 PUSH2 0x14CB PUSH1 0x14 DUP4 PUSH2 0x1024 JUMP JUMPDEST SWAP2 POP PUSH2 0x14D6 DUP3 PUSH2 0x1497 JUMP JUMPDEST PUSH1 0x20 DUP3 ADD SWAP1 POP SWAP2 SWAP1 POP JUMP JUMPDEST PUSH0 PUSH1 0x20 DUP3 ADD SWAP1 POP DUP2 DUP2 SUB PUSH0 DUP4 ADD MSTORE PUSH2 0x14F8 DUP2 PUSH2 0x14BF JUMP JUMPDEST SWAP1 POP SWAP2 SWAP1 POP JUMP JUMPDEST PUSH32 0x4E6F7420612076616C69642063616E6469646174650000000000000000000000 PUSH0 DUP3 ADD MSTORE POP JUMP JUMPDEST PUSH0 PUSH2 0x1533 PUSH1 0x15 DUP4 PUSH2 0x1024 JUMP JUMPDEST SWAP2 POP PUSH2 0x153E DUP3 PUSH2 0x14FF JUMP JUMPDEST PUSH1 0x20 DUP3 ADD SWAP1 POP SWAP2 SWAP1 POP JUMP JUMPDEST PUSH0 PUSH1 0x20 DUP3 ADD SWAP1 POP DUP2 DUP2 SUB PUSH0 DUP4 ADD MSTORE PUSH2 0x1560 DUP2 PUSH2 0x1527 JUMP JUMPDEST SWAP1 POP SWAP2 SWAP1 POP JUMP JUMPDEST PUSH32 0x4E487B7100000000000000000000000000000000000000000000000000000000 PUSH0 MSTORE PUSH1 0x32 PUSH1 0x4 MSTORE PUSH1 0x24 PUSH0 REVERT INVALID LOG2 PUSH5 0x6970667358 0x22 SLT KECCAK256 XOR 0xC0 PUSH30 0x58C138FF28C5F50ECD828AB73E9BEC5C2AD1E4A9E2578563D970C5076E64 PUSH20 0x6F6C634300081A00330000000000000000000000 "
				},
				"gasEstimates": {
					"creation": {
						"codeDepositCost": "1115600",
						"executionCost": "infinite",
						"totalCost": "infinite"
					},
					"external": {
						"addCandidate(address)": "54555",
						"balances(address)": "2891",
						"burnTokens(address,uint256)": "infinite",
						"candidateVotes(address)": "2869",
						"candidates(uint256)": "4967",
						"endVoting()": "32111",
						"getCandidates()": "infinite",
						"getVotes(address)": "2873",
						"mintTokens(address,uint256)": "infinite",
						"name()": "infinite",
						"owner()": "2530",
						"startVoting(uint256)": "infinite",
						"totalSupply()": "2515",
						"vote(address,uint256)": "infinite",
						"votingEndTime()": "2448",
						"votingEnded()": "2532",
						"votingStartTime()": "2470"
					},
					"internal": {
						"isCandidate(address)": "infinite"
					}
				},
				"methodIdentifiers": {
					"addCandidate(address)": "3acd75f8",
					"balances(address)": "27e235e3",
					"burnTokens(address,uint256)": "0d1118ce",
					"candidateVotes(address)": "23ef2746",
					"candidates(uint256)": "3477ee2e",
					"endVoting()": "c3403ddf",
					"getCandidates()": "06a49fce",
					"getVotes(address)": "9ab24eb0",
					"mintTokens(address,uint256)": "f0dda65c",
					"name()": "06fdde03",
					"owner()": "8da5cb5b",
					"startVoting(uint256)": "3d2f5bda",
					"totalSupply()": "18160ddd",
					"vote(address,uint256)": "5f74bbde",
					"votingEndTime()": "1ea736e0",
					"votingEnded()": "9d5a0529",
					"votingStartTime()": "2019a608"
				}
			},
			"storageLayout": {
				"storage": [
					{
						"astId": 4,
						"contract": "contracts/mod3.sol:VotingSystem",
						"label": "name",
						"offset": 0,
						"slot": "0",
						"type": "t_string_storage"
					},
					{
						"astId": 6,
						"contract": "contracts/mod3.sol:VotingSystem",
						"label": "totalSupply",
						"offset": 0,
						"slot": "1",
						"type": "t_uint256"
					},
					{
						"astId": 8,
						"contract": "contracts/mod3.sol:VotingSystem",
						"label": "owner",
						"offset": 0,
						"slot": "2",
						"type": "t_address"
					},
					{
						"astId": 10,
						"contract": "contracts/mod3.sol:VotingSystem",
						"label": "votingStartTime",
						"offset": 0,
						"slot": "3",
						"type": "t_uint256"
					},
					{
						"astId": 12,
						"contract": "contracts/mod3.sol:VotingSystem",
						"label": "votingEndTime",
						"offset": 0,
						"slot": "4",
						"type": "t_uint256"
					},
					{
						"astId": 14,
						"contract": "contracts/mod3.sol:VotingSystem",
						"label": "votingEnded",
						"offset": 0,
						"slot": "5",
						"type": "t_bool"
					},
					{
						"astId": 18,
						"contract": "contracts/mod3.sol:VotingSystem",
						"label": "balances",
						"offset": 0,
						"slot": "6",
						"type": "t_mapping(t_address,t_uint256)"
					},
					{
						"astId": 22,
						"contract": "contracts/mod3.sol:VotingSystem",
						"label": "candidateVotes",
						"offset": 0,
						"slot": "7",
						"type": "t_mapping(t_address,t_uint256)"
					},
					{
						"astId": 25,
						"contract": "contracts/mod3.sol:VotingSystem",
						"label": "candidates",
						"offset": 0,
						"slot": "8",
						"type": "t_array(t_address)dyn_storage"
					}
				],
				"types": {
					"t_address": {
						"encoding": "inplace",
						"label": "address",
						"numberOfBytes": "20"
					},
					"t_array(t_address)dyn_storage": {
						"base": "t_address",
						"encoding": "dynamic_array",
						"label": "address[]",
						"numberOfBytes": "32"
					},
					"t_bool": {
						"encoding": "inplace",
						"label": "bool",
						"numberOfBytes": "1"
					},
					"t_mapping(t_address,t_uint256)": {
						"encoding": "mapping",
						"key": "t_address",
						"label": "mapping(address => uint256)",
						"numberOfBytes": "32",
						"value": "t_uint256"
					},
					"t_string_storage": {
						"encoding": "bytes",
						"label": "string",
						"numberOfBytes": "32"
					},
					"t_uint256": {
						"encoding": "inplace",
						"label": "uint256",
						"numberOfBytes": "32"
					}
				}
			},
			"userdoc": {
				"kind": "user",
				"methods": {},
				"version": 1
			}
		}
	}
}